S01A000030365F554152545F554C545241534F4E49432E73726563A6
S113000045C0000060C000005EC000005CC000008D
S11300105AC0000058C0000056C0000054C0000080
S113002052C0000050C000004EC000004CC0000090
S11300304AC0000048C0000046C0000044C00000A0
S1130040B0C2000040C000003FC000003CC000003F
S11300503AC0000038C0000036C0000034C00000C0
S113006032C0000030C000002EC000002CC00000D0
S11300702AC0000028C0000026C0000024C00000E0
S113008022C0000020C000001EC0000011241FBEBA
S1130090CFEFD0E1DEBFCDBF11E0A0E0B1E0E8E1F9
S11300A0F7E000E00BBF02C007900D92AA3AB10737
S11300B0D9F724E0AAEAB1E001C01D92A03EB2073C
S11300C0E1F7B3D227C39CCF1F920F920FB60F92C2
S11300D011240BB60F922F933F934F935F936F931B
S11300E07F938F939F93AF93BF93EF93FF93CF939C
S11300F0DF931F92CDB7DEB78CB1898389818D30B0
S113010019F089818A3061F52091B0013091B101F3
S11301108091AA019091AB0140E5429FF001439F79
S1130120F00D1124E654FE4FE80FF91F10821092CF
S1130130AB011092AA018091B0019091B101019696
S11301409093B1018093B0018091B0019091B1017D
S11301506AE070E07AD29093B1018093B0011CC040
S11301606091B0017091B1018091AA019091AB01AD
S11301709C012F5F3F4F3093AB012093AA0149812B
S113018050E5569F9001579F300D112426543E4F41
S1130190F901E80FF91F40830F90DF91CF91FF9190
S11301A0EF91BF91AF919F918F917F916F915F91EB
S11301B04F913F912F910F900BBE0F900FBE0F9058
S11301C01F901895109290008FEC89B98BB18260C2
S11301D08BB9E5E9F0E08081866080838AB1886923
S11301E08AB908955D9BFECF8CB90895CF93209171
S11301F0AE013091AF018091B0019091B101281707
S1130200390709F4F4C02091AE013091AF01C0E583
S1130210C29FC001C39F900D112486549E4F4AD2A1
S11302202091AE013091AF01C29FC001C39F900DD8
S113023011244AE050E060E271E086549E4F2CD2D3
S1130240892B39F481E090E09093AD018093AC0167
S1130250BAC02091AE013091AF0140E5429FC00188
S1130260439F900D11244BE050E06BE271E0865403
S11302709E4F12D2892B39F482E090E09093AD0125
S11302808093AC01A0C02091AE013091AF0140E554
S1130290429FC001439F900D112448E050E067E362
S11302A071E086549E4FF8D1892B39F483E090E0B5
S11302B09093AD018093AC0186C02091AE01309142
S11302C0AF0140E5429FC001439F900D112449E0D6
S11302D050E060E471E086549E4FDED1892B39F4FE
S11302E084E090E09093AD018093AC016CC02091C8
S11302F0AE013091AF0140E5429FC001439F900D94
S1130300112440E150E06AE471E086549E4FC4D168
S1130310892B39F485E090E09093AD018093AC0192
S113032052C02091AE013091AF0140E5429FC0011F
S1130330439F900D112441E150E06BE571E0865438
S11303409E4FAAD1892B39F486E090E09093AD01B9
S11303508093AC0138C02091AE013091AF0140E5EB
S1130360429FC001439F900D112445E150E06DE68A
S113037071E086549E4F90D1892B39F487E090E048
S11303809093AD018093AC011EC02091AE013091D9
S1130390AF0140E5429FC001439F900D112446E107
S11303A050E063E871E086549E4F76D1892B39F48E
S11303B088E090E09093AD018093AC0104C010926A
S11303C0AD011092AC018091AE019091AF01019604
S11303D09093AF018093AE018091AE019091AF01F3
S11303E06AE070E032D19093AF018093AE018091C6
S11303F0AC019091AD019C012150310928303105A7
S113040048F4880F991FFC01E050FF4F0190F081E0
S1130410E02D0995CF9108951BBA20E030E016C075
S11304204BB381E090E0022E02C0880F991F0A941A
S1130430E2F7840F8BBB4FEF81EE94E04150804094
S11304409040E1F700C000002F5F3F4F2830310596
S11304503CF308951BBA20E030E016C04BB380E8AB
S113046090E0022E02C0959587950A94E2F7840FD6
S11304708BBB4FEF81EE94E0415080409040E1F718
S113048000C000002F5F3F4F283031053CF3089532
S113049080E090E013C021E030E0082E02C0220F7B
S11304A0331F0A94E2F72BBB2FEF31EE44E02150C7
S11304B030404040E1F700C00000019688309105CB
S11304C054F3089580E090E013C020E830E0082E53
S11304D002C0359527950A94E2F72BBB2FEF31EE36
S11304E044E0215030404040E1F700C00000019654
S11304F08830910554F308958FEF8BBB08951BBA90
S113050008951BBA20E030E020C04BB388E090E0AF
S1130510BC01022E02C0759567950A94E2F780E14A
S113052090E0022E02C0880F991F0A94E2F7862BEE
S1130530842B8BBB4FEF81EE94E041508040904080
S1130540E1F700C000002F5F3F4F24303105ECF28B
S113055008951BBA20E030E020C04BB381E090E066
S1130560BC01022E02C0660F771F0A94E2F780E8EE
S113057090E0022E02C0959587950A94E2F7862BA7
S1130580842B8BBB4FEF81EE94E041508040904030
S1130590E1F700C000002F5F3F4F24303105ECF23B
S11305A008951F920F920FB60F9211248F939F9369
S11305B0AF93BF9386E082BF8091B6019091B7015B
S11305C0A091B801B091B9010196A11DB11D80930C
S11305D0B6019093B701A093B801B093B90180918B
S11305E0B2019091B301A091B401B091B50101960B
S11305F0A11DB11D8093B2019093B301A093B401E6
S1130600B093B501BF91AF919F918F910F900FBEA1
S11306100F901F90189586E082BF83B7846083BFD4
S113062087B7816087BF78940895F5DFCBDD82E1D9
S113063091E09093DD048093DC048FEF8ABB78947F
S11306408AE991E037D0D2DDFECF97FB072E16F46E
S1130650009406D077FD08D00BD007FC05D03EF4FB
S1130660909581959F4F0895709561957F4F08955A
S1130670AA1BBB1B51E107C0AA1FBB1FA617B707C4
S113068010F0A61BB70B881F991F5A95A9F78095E0
S11306909095BC01CD010895FB01DC01415050400F
S11306A030F08D910190801919F40020B9F7881B5E
S11306B0990B08950F931F93CF93DF93E091DC047C
S11306C0F091DD04238121FF1BC08C01D0E0C0E048
S11306D0F80181918F016091DC047091DD04DB01EC
S11306E01896ED91FC911997882331F00995892B7F
S11306F079F3DFEFCFEFECCF8AE00995892B19F07E
S11307008FEF9FEF02C08D2F9C2FDF91CF911F9110
S10B07100F910895F894FFCF46
S113071800007C027F028102A902480262020C02E4
S11307282A020000000200000000F200000000009D
S11307386C65645F616C6C5F6F6E006C65645F61AF
S11307486C6C5F6F666600666C6F7765726F6E00BF
S1130758666C6F7765726F66660073686966745F46
S11307686C6566745F6C65646F6E00736869667443
S11307785F72696768745F6C65646F6E007368693B
S113078866745F6C6566745F6B6565705F6C6564E1
S11307986F6E0073686966745F72696768745F6B0B
S11307A86565705F6C65646F6E0048656C6C6F207E
S10D07B853454F4E474A494E0000D6
S9030000FC
