:1000000045C0000061C000005FC000005DC000008E
:100010005BC00000CFC4000057C0000055C0000006
:1000200053C0000051C000004FC000004DC0000090
:100030004BC0000049C0000047C0000045C00000A0
:10004000C0C3000041C0000040C000003DC000002F
:100050003BC0000039C0000037C0000035C00000C0
:1000600033C0000031C000002FC000002DC00000D0
:100070002BC0000029C0000009C4000025C00000FA
:1000800023C0000021C000001FC0000011241FBEBB
:10009000CFEFD0E1DEBFCDBF11E0A0E0B1E0EEE4F4
:1000A000F4E100E00BBF02C007900D92A63CB1073F
:1000B000D9F728E0A6ECB1E001C01D92A636B20740
:1000C000E1F7D5D30C94250A9BCF1F920F920FB660
:1000D0000F9211240BB60F922F933F934F935F9380
:1000E0006F937F938F939F93AF93BF93EF93FF9300
:1000F000CF93DF931F92CDB7DEB78CB1898389810F
:100100008D3021F089818A3009F042C02091CA01E6
:100110003091CB018091C6019091C70140E5429F8B
:10012000F001439FF00D1124E251FE4FE80FF91F3B
:1001300010821092C7011092C6018091CA0190915D
:10014000CB0101969093CB018093CA018091CA01A3
:100150009091CB012AE030E0B90124D69093CB01F5
:100160008093CA018091CA019091CB010196B90197
:1001700019D62091C8013091C9018217930721F542
:100180008EE191E09F938F9342D60F900F901CC009
:100190006091CA017091CB018091C6019091C70115
:1001A0009C012F5F3F4F3093C7012093C6014981C7
:1001B00050E5569F9001579F300D112422513E4F1C
:1001C000F901E80FF91F40830F90DF91CF91FF9164
:1001D000EF91BF91AF919F918F917F916F915F91BF
:1001E0004F913F912F910F900BBE0F900FBE0F902C
:1001F0001F901895109290008FEC89B98BB1826096
:100200008BB9E5E9F0E08081866080838AB18869F6
:100210008AB908955D9BFECF8CB90895CF93209144
:10022000C8013091C9018091CA019091CB01281772
:10023000390709F41BC12091C8013091C901C0E5FB
:10024000C29FC001C39F900D112482519E4FF2D5D1
:100250002091C8013091C901C29FC001C39F900D78
:1002600011244AE050E06CE371E082519E4FC1D509
:10027000892B59F481E090E09093DB018093DA01BF
:100280001092D9011092D801DDC02091C80130919F
:10029000C90140E5429FC001439F900D11244BE0EE
:1002A00050E067E471E082519E4FA3D5892B59F449
:1002B00081E090E09093DB018093DA019093D90183
:1002C0008093D801BFC02091C8013091C90140E599
:1002D000429FC001439F900D112448E050E063E528
:1002E00071E082519E4F85D5892B69F481E090E0C1
:1002F0009093DB018093DA0182E090E09093D90142
:100300008093D8019FC02091C8013091C90140E578
:10031000429FC001439F900D112449E050E064E6E4
:1003200071E082519E4F65D5892B69F481E090E0A0
:100330009093DB018093DA0183E090E09093D90100
:100340008093D8017FC02091C8013091C90140E558
:10035000429FC001439F900D112440E150E066E7A9
:1003600071E082519E4F45D5892B69F481E090E080
:100370009093DB018093DA0184E090E09093D901BF
:100380008093D8015FC02091C8013091C90140E538
:10039000429FC001439F900D112441E150E06CE861
:1003A00071E082519E4F25D5892B69F481E090E060
:1003B0009093DB018093DA0185E090E09093D9017E
:1003C0008093D8013FC02091C8013091C90140E518
:1003D000429FC001439F900D112445E150E063EA24
:1003E00071E082519E4F05D5892B69F481E090E040
:1003F0009093DB018093DA0186E090E09093D9013D
:100400008093D8011FC02091C8013091C90140E5F7
:10041000429FC001439F900D112446E150E06CEAD9
:1004200071E082519E4FE5D4892B61F481E090E028
:100430009093DB018093DA0187E090E09093D901FB
:100440008093D8018091C8019091C9010196909341
:10045000C9018093C8018091C8019091C9016AE0E7
:1004600070E0A0D49093C9018093C8018091DA0113
:100470009091DB01019761F4E091D801F091D901ED
:10048000EE0FFF1FE050FF4F0190F081E02D099526
:100490008091CA019091CB0101966AE070E082D40C
:1004A0002091C8013091C9018217930739F48EE178
:1004B00091E09F938F93ABD40F900F90CF910895BD
:1004C0008091E4019091E501A091E601B091E701EE
:1004D00084369105A105B10570F11092E4011092E6
:1004E000E5011092E6011092E7012091D6013091CA
:1004F000D701283031057CF01092D7011092D60137
:100500001BBA8091D8019091D90101969093D9019D
:100510008093D8010895C90101969093D7018093E3
:10052000D60181E090E002C0880F991F2A95E2F77A
:100530009BB3892B8BBB08958091E4019091E501D9
:10054000A091E601B091E70184369105A105B105BE
:1005500070F11092E4011092E5011092E601109200
:10056000E7012091D4013091D501283031057CF08C
:100570001092D5011092D4011BBA8091D8019091AC
:10058000D90101969093D9018093D8010895C901AA
:1005900001969093D5018093D40180E890E002C049
:1005A000959587952A95E2F79BB3892B8BBB089588
:1005B0008091E4019091E501A091E601B091E701FD
:1005C00084369105A105B10570F11092E4011092F5
:1005D000E5011092E6011092E7018091D20190911D
:1005E000D301883091057CF01092D3011092D20192
:1005F0001BBA8091D8019091D90101969093D901AD
:100600008093D80108959C012F5F3F4F3093D30111
:100610002093D20121E030E0A90102C0440F551F10
:100620008A95E2F74BBB08958091E4019091E50132
:10063000A091E601B091E70184369105A105B105CD
:1006400070F11092E4011092E5011092E60110920F
:10065000E7018091D0019091D101883091057CF023
:100660001092D1011092D0011BBA8091D8019091C3
:10067000D90101969093D9018093D80108959C01E6
:100680002F5F3F4F3093D1012093D00120E830E01D
:10069000A90102C0559547958A95E2F74BBB08958D
:1006A0008FEF8BBB08951BBA08958091E401909160
:1006B000E501A091E601B091E70184369105A1051D
:1006C000B105D8F11092E4011092E5011092E60113
:1006D0001092E7012091CE013091CF0124303105F5
:1006E0007CF01092CF011092CE011BBA8091D801FC
:1006F0009091D90101969093D9018093D8010895E2
:100700003BB380E190E0AC01022E02C0440F551FC4
:100710000A94E2F788E090E002C0959587952A95C3
:10072000E2F7842B832B8BBB8091CE019091CF017C
:1007300001969093CF018093CE0108958091E401BA
:100740009091E501A091E601B091E7018436910511
:10075000A105B105A8F11092E4011092E5011092F3
:10076000E6011092E7014091CC015091CD01443057
:10077000510554F01092CD011092CC011BBA109289
:10078000D9011092D801089520EF30E0042E02C064
:10079000359527950A94E2F78FE090E002C0880F24
:1007A000991F4A95E2F7207F8F70822B8BBB809137
:1007B000CC019091CD0101969093CD018093CC0115
:1007C00008951F920F920FB60F9211248F939F934B
:1007D000AF93BF9386E082BF8091E4019091E501E1
:1007E000A091E601B091E7010196A11DB11D809392
:1007F000E4019093E501A093E601B093E7018091B5
:10080000E0019091E101A091E201B091E301019634
:10081000A11DB11D8093E0019093E101A093E2013D
:10082000B093E3018091DC019091DD01A091DE01A4
:10083000B091DF010196A11DB11D8093DC01909361
:10084000DD01A093DE01B093DF01BF91AF919F91D5
:100850008F910F900FBE0F901F90189586E082BF6A
:1008600083B7846083BF87B7816087BF0895F6DF51
:10087000C1DC8BD0FBD080E191E090936308809342
:1008800062088FEF8ABB7894C9DCFECF1F920F926B
:100890000FB60F9211240BB60F922F933F934F93E5
:1008A0005F936F937F938F939F93AF93BF93EF93D8
:1008B000FF93CF93DF931F92CDB7DEB780919C005B
:1008C000898389818D3019F089818A3061F5209181
:1008D000EA013091EB018091E8019091E90140E556
:1008E000429FF001439FF00D1124E25FFA4FE80FA1
:1008F000F91F10821092E9011092E8018091EA013B
:100900009091EB0101969093EB018093EA01809125
:10091000EA019091EB016AE070E044D29093EB0120
:100920008093EA011CC06091EA017091EB01809113
:10093000E8019091E9019C012F5F3F4F3093E9015D
:100940002093E801498150E5569F9001579F300D53
:100950001124225F3A4FF901E80FF91F40830F90ED
:10096000DF91CF91FF91EF91BF91AF919F918F91C7
:100970007F916F915F914F913F912F910F900BBE9F
:100980000F900FBE0F901F901895109298008FEC4B
:1009900080939900EBE9F0E0808182608083EDE94B
:1009A000F0E0808186608083EAE9F0E080818869F8
:1009B000808308951F920F920FB60F9211240BB6E9
:1009C0000F922F933F934F935F936F937F938F93E8
:1009D0009F93AF93BF93EF93FF930C9B03C01DBCFA
:1009E0001CBC31C06CB57DB580E090E0EAD020E061
:1009F00034E244E759E473D120E030E040E854E4C5
:100A00006ED120E034E244E75BE442D0A9D0709399
:100A1000ED016093EC018091EC019091ED016AE3AE
:100A200070E0C0D17F936F9386EB91E09F938F939B
:100A30008EE298E09F938F932DD20F900F900F909E
:100A40000F900F900F90FF91EF91BF91AF919F91F9
:100A50008F917F916F915F914F913F912F910F9067
:100A60000BBE0F900FBE0F901F901895E4E6F0E0BC
:100A700080818061808382B18F7E82B98AB78160F4
:100A80008ABF8EB585608EBD89B7806189BF0895A4
:100A90000CD0EBC0E3D040F0DAD030F021F45F3F6F
:100AA00019F0CCC0511115C1CFC0F0D098F39923E3
:100AB000C9F35523B1F3951B550BBB27AA27621722
:100AC0007307840738F09F5F5F4F220F331F441F67
:100AD000AA1FA9F333D00E2E3AF0E0E830D091509F
:100AE0005040E695001CCAF729D0FE2F27D0660F8C
:100AF000771F881FBB1F261737074807AB07B0E8CB
:100B000009F0BB0B802DBF01FF2793585F4F2AF0E0
:100B10009E3F510568F092C0DCC05F3FECF3983E09
:100B2000DCF3869577956795B795F7959F5FC9F73D
:100B3000880F911D9695879597F90895E1E0660FC6
:100B4000771F881FBB1F621773078407BA0720F03F
:100B5000621B730B840BBA0BEE1F88F7E0950895A8
:100B600004D06894B111B5C0089598D088F09F570B
:100B700090F0B92F9927B751A0F0D1F0660F771FE9
:100B8000881F991F1AF0BA95C9F712C0B13081F0C9
:100B90009FD0B1E008959CC0672F782F8827B85F59
:100BA00039F0B93FCCF3869577956795B395D9F72A
:100BB0003EF490958095709561957F4F8F4F9F4F34
:100BC0000895E89409C097FB3EF490958095709540
:100BD00061957F4F8F4F9F4F9923A9F0F92F96E989
:100BE000BB279395F695879577956795B795F111FE
:100BF000F8CFFAF4BB0F11F460FF1BC06F5F7F4F9B
:100C00008F4F9F4F16C0882311F096E911C07723AC
:100C100021F09EE8872F762F05C0662371F096E8B5
:100C2000862F70E060E02AF09A95660F771F881F84
:100C3000DAF7880F9695879597F9089597F99F6742
:100C400080E870E060E008959FEF80EC0895002454
:100C50000A941616170618060906089500240A9421
:100C600012161306140605060895092E0394000CA7
:100C700011F4882352F0BB0F40F4BF2B11F460FF36
:100C800004C06F5F7F4F8F4F9F4F089557FD90585F
:100C9000440F551F59F05F3F71F04795880F97FB40
:100CA000991F61F09F3F79F08795089512161306FA
:100CB0001406551FF2CF4695F1DF08C01616170629
:100CC0001806991FF1CF869571056105089408955E
:100CD000E894BB2766277727CB0197F908950BD0B7
:100CE000C4CFB5DF28F0BADF18F0952309F0A6CFFE
:100CF000ABCF1124EECFCADFA0F3959FD1F3950FB0
:100D000050E0551F629FF001729FBB27F00DB11D8F
:100D1000639FAA27F00DB11DAA1F649F6627B00D1F
:100D2000A11D661F829F2227B00DA11D621F739F08
:100D3000B00DA11D621F839FA00D611D221F749F16
:100D40003327A00D611D231F849F600D211D822F5D
:100D5000762F6A2F11249F5750408AF0E1F08823A4
:100D60004AF0EE0FFF1FBB1F661F771F881F9150B1
:100D70005040A9F79E3F510570F060CFAACF5F3F6A
:100D8000ECF3983EDCF3869577956795B795F795E4
:100D9000E7959F5FC1F7FE2B880F911D969587956C
:100DA00097F9089597FB072E16F4009406D077FD67
:100DB00008D00BD007FC05D03EF4909581959F4F4D
:100DC0000895709561957F4F0895AA1BBB1B51E153
:100DD00007C0AA1FBB1FA617B70710F0A61BB70BAB
:100DE000881F991F5A95A9F780959095BC01CD0150
:100DF0000895FB01DC014150504030F08D9101908D
:100E0000801919F40020B9F7881B990B0895CF9326
:100E1000DF93CDB7DEB7AE014B5F5F4FFA01619153
:100E20007191AF01809162089091630861D0DF9168
:100E3000CF9108950F931F93CF93DF93E0916208B2
:100E4000F0916308238121FF1BC08C01D0E0C0E03A
:100E5000F80181918F016091620870916308DB0154
:100E60001896ED91FC911997882331F00995892BFB
:100E700079F3DFEFCFEFECCF8AE00995892B19F0FA
:100E80008FEF9FEF02C08D2F9C2FDF91CF911F918D
:100E90000F9108950F931F93CF93DF93CDB7DEB7D4
:100EA0002E970FB6F894DEBF0FBECDBF0D891E89F9
:100EB00086E08C831A8309838FEF9FE79E838D835F
:100EC000AE01475E5F4F6F89788DCE01019610D0DD
:100ED000EF81F885E00FF11F10822E960FB6F8947F
:100EE000DEBF0FBECDBFDF91CF911F910F9108954F
:100EF0002F923F924F925F926F927F928F929F922A
:100F0000AF92BF92CF92DF92EF92FF920F931F9317
:100F1000CF93DF93CDB7DEB72B970FB6F894DEBF34
:100F20000FBECDBF6C017B018A01FC0117821682C6
:100F3000838181FFBFC1CE0101963C01F6019381FF
:100F4000F70193FD859193FF81917F01882309F437
:100F5000ADC1853239F493FD859193FF81917F0175
:100F6000853221F4B60190E0D6D1E8CF912C212C26
:100F7000312CFFE1F315D8F08B3279F038F4803260
:100F800079F08332A1F4232D20611DC08D3261F0F0
:100F9000803369F4232D216016C0832D8260382EA2
:100FA000E32DE4603E2E2AC0F32DF8601DC037FC0F
:100FB0002DC020ED280F2A3040F08E32B9F436FCD7
:100FC00075C1232D2064322E19C036FE06C08AE07A
:100FD000989E200D1124922E11C0EAE02E9E200D25
:100FE0001124222EF32DF0623F2E08C08C3621F4FE
:100FF000832D8068382E02C0883641F4F70193FDB6
:10100000859193FF81917F018111B3CF982F9F7DAF
:101010009554933028F40C5F1F4F9FE399830DC0C4
:10102000833631F0833771F0833509F055C020C025
:10103000F801808189830E5F1F4F88248394912C4F
:10104000530112C02801F2E04F0E511CF801A0809C
:10105000B18036FE03C0692D70E002C06FEF7FEFF4
:10106000C5014ED14C018201F32DFF773F2E15C0F3
:10107000280122E0420E511CF801A080B18036FE0A
:1010800003C0692D70E002C06FEF7FEFC5012DD165
:101090004C01F32DF0683F2E820133FC19C0822DE4
:1010A00090E088169906A0F4B60180E290E033D172
:1010B0002A94F5CFF50137FC859137FE81915F01C8
:1010C000B60190E028D121102A9421E0821A9108DB
:1010D0008114910479F7E1C0843611F0893639F52D
:1010E000F80137FE07C060817181828193810C5FB6
:1010F0001F4F08C060817181072E000C880B990B6F
:101100000E5F1F4FF32DFF763F2E97FF09C090957E
:101110008095709561957F4F8F4F9F4FF0683F2E60
:101120002AE030E0A30133D1882E861844C08537E9
:1011300031F4232D2F7EB22E2AE030E025C0932DEE
:10114000997FB92E8F36C1F018F4883579F0AEC08A
:10115000803719F0883721F0A9C0E92FE061BE2E51
:10116000B4FE0DC0FB2DF460BF2E09C034FE0AC0D2
:10117000292F2660B22E06C028E030E005C020E10D
:1011800030E002C020E132E0F801B7FE07C0608124
:101190007181828193810C5F1F4F06C060817181D4
:1011A00080E090E00E5F1F4FA301F1D0882E8618DB
:1011B000FB2DFF773F2E36FE0DC0232D2E7FA22E56
:1011C000891458F434FE0BC032FC09C0832D8E7E86
:1011D000A82E05C0B82CA32C03C0B82C01C0B92C74
:1011E000A4FE0FC0FE01E80DF11D8081803321F4C3
:1011F0009A2D997EA92E09C0A2FE06C0B394B3947D
:1012000004C08A2D867809F0B394A3FC10C0A0FE18
:1012100006C0B21480F4280C922C9B180DC0B21496
:1012200058F4B60180E290E076D0B394F8CFB214CF
:1012300018F42B1802C0982C212CA4FE0FC0B60164
:1012400080E390E068D0A2FE16C0A1FC03C088E74E
:1012500090E002C088E590E0B6010CC08A2D867847
:1012600051F0A1FE02C08BE201C080E2A7FC8DE23A
:10127000B60190E050D0891430F4B60180E390E0DC
:101280004AD09A94F8CF8A94F301E80DF11D808139
:10129000B60190E040D08110F6CF222009F44ECE66
:1012A000B60180E290E037D02A94F7CFF60186812C
:1012B000978102C08FEF9FEF2B960FB6F894DEBF99
:1012C0000FBECDBFDF91CF911F910F91FF90EF9097
:1012D000DF90CF90BF90AF909F908F907F906F9056
:1012E0005F904F903F902F900895FC0105906150C2
:1012F00070400110D8F7809590958E0F9F1F08952C
:10130000FC016150704001900110D8F780959095D4
:101310008E0F9F1F08950F931F93CF93DF93FB01B1
:10132000238121FD03C08FEF9FEF2CC022FF16C049
:1013300046815781248135814217530744F4A081A7
:10134000B1819D012F5F3F4F318320838C93268194
:1013500037812F5F3F4F3783268314C08B01EC0109
:10136000FB010084F185E02D0995892BE1F6D80178
:1013700016968D919C911797019617969C938E9334
:101380001697CE01DF91CF911F910F910895FA0129
:10139000AA27283051F1203181F1E8946F936E7FB4
:1013A0006E5F7F4F8F4F9F4FAF4FB1E03ED0B4E0A5
:1013B0003CD0670F781F891F9A1FA11D680F791FE6
:1013C0008A1F911DA11D6A0F711D811D911DA11DF7
:1013D00020D009F468943F912AE0269F1124301907
:1013E000305D3193DEF6CF010895462F4770405DA2
:1013F0004193B3E00FD0C9F7F6CF462F4F70405D51
:101400004A3318F0495D31FD4052419302D0A9F7AB
:10141000EACFB4E0A6959795879577956795BA95A5
:10142000C9F700976105710508959B01AC010A2E6B
:1014300006945795479537952795BA95C9F7620F42
:0E144000731F841F951FA01D0895F894FFCF01
:10144E0050035303D802140360029C0255039E03FB
:10145E0000000002000000000A01000000004655D6
:10146E004C4C212121212121212121212121212108
:10147E002121212121212121212121006C65645F5F
:10148E00616C6C5F6F6E006C65645F616C6C5F6F3E
:10149E0066660073686966745F6C6566745F6C651A
:1014AE00646F6E0073686966745F72696768745FF3
:1014BE006C65646F6E0073686966745F6C656674E4
:1014CE005F6B6565705F6C65646F6E0073686966EF
:1014DE00745F72696768745F6B6565705F6C656475
:1014EE006F6E00666C6F7765726F6E00666C6F77ED
:1014FE0065726F666600646973203A202564636DB9
:06150E000A002573000035
:00000001FF
