:1000000077C0000093C0000091C000008FC00000C6
:100010008DC0000026C7000071C70000BCC70000EB
:1000200085C0000083C0000081C000007FC00000C8
:100030007DC000007BC0000079C0000077C00000D8
:10004000DFC2000073C0000037C600006FC00000B0
:100050006DC000006BC0000069C0000067C00000F8
:1000600065C0000063C0000061C000005FC0000008
:100070005DC000005BC00000B1C6000057C00000BA
:1000800055C0000053C0000051C00000EC02F9024E
:10009000F902F902E802F902F902F902F902F90299
:1000A000F002F902F902F902F902F902F402F80287
:1000B000F902F902F902F902F902F902F902F90268
:1000C000F902F902F902F902F902F902EC02F90265
:1000D000F902F902E802F902F902F902F902F90259
:1000E000F002F902F902F902F902F902F402F80247
:1000F00011241FBECFEFD0E1DEBFCDBF11E0A0E0E5
:10010000B1E0E2E9FBE100E00BBF02C007900D9215
:10011000AE35B107D9F727E0AEE5B1E001C01D92D9
:10012000AB3CB207E1F7C2D20C94C70D69CF8AB3DA
:100130008F7B8ABB089529B3422F50E021E030E045
:1001400002C0220F331F6A95E2F7242335232115BD
:100150003105B9F0FC01E25AFE4F4081411111C056
:100160002FEF3DEE42E0215030404040E1F700C02B
:100170000000FC01E25AFE4F21E0208380E090E085
:100180000895FC01E25AFE4F4081413091F4232B47
:1001900099F4FC01E25AFE4F10828FEF9DEE22E0AF
:1001A000815090402040E1F700C0000081E090E0E5
:1001B000089580E090E0089580E090E0089566E082
:1001C00070E080E090E0B7DF892B71F081E090E093
:1001D0002091620130916301232B11F080E090E0C7
:1001E0009093630180936201809162019091630119
:1001F000892B61F0E5E6F0E080818860808383E010
:1002000090E090936B0180936A010895E5E6F0E039
:100210008081877F8083D6C208958FEF84BBE1E61B
:10022000F0E08081806F808315BA0895CF93DF93CB
:10023000CDB7DEB72F970FB6F894DEBF0FBECDBF98
:10024000AC019FE0EEE1F1E0DE01119601900D922C
:100250009A95E1F7209164013091650121303105D3
:1002600039F11CF4232B51F091C02230310509F4EF
:1002700041C02330310509F47AC088C08FE78093EC
:1002800062006091660170916701809168019091B0
:1002900069012AE030E040E050E00E949A0AE1E083
:1002A000F0E0EC0FFD1FE60FF71F808185BB6EC0ED
:1002B0008FEB80936200609166017091670180917D
:1002C0006801909169012AE030E040E050E00E942E
:1002D0009A0ACA01B90126E030E040E050E00E94ED
:1002E0009A0AE1E0F0E0EC0FFD1FE60FF71F8081B6
:1002F00085BB4CC08FED8093620060916601709168
:100300006701809168019091690160FF19C02CE339
:1003100030E040E050E00E949A0ACA01B9012AE0A8
:1003200030E040E050E00E949A0AE1E0F0E0EC0F9B
:10033000FD1FE60FF71F90818B85892B85BB26C09B
:100340002CE330E040E050E00E949A0ACA01B90173
:100350002AE030E040E050E00E949A0AE1E0F0E05C
:10036000EC0FFD1FE60FF71F808185BB0FC08FEEDE
:1003700080936200DA01ED91FC913B9681E090E080
:100380008C0F9D1FE80FF91F808185BB8091640150
:1003900090916501019683709078992324F40197D8
:1003A0008C6F9F6F019690936501809364012F96E7
:1003B0000FB6F894DEBF0FBECDBFDF91CF91089589
:1003C00080937000089584EA809374008091740093
:1003D0008823E4F708958093730084E88093740081
:1003E000809174008823E4F7089584E98093740071
:1003F0000895CF93DF93D82FC62FE5DF8D2FEBDF46
:100400008C2FE9DFF2DFDF91CF9108951F93CF9317
:10041000DF9300D000D0CDB7DEB7282F207F30E1AA
:10042000839FC0011124922F9D60998329602A83A4
:10043000982F9D609B8389608C8310E00AC0E1E067
:10044000F0E0EC0FFD1FE10FF11D60818EE4D1DFC4
:100450001F5F1430A0F30F900F900F900F90DF915B
:10046000CF911F9108951F93CF93DF9300D000D0B9
:10047000CDB7DEB7282F207F30E1839FC001112444
:10048000922F9C60998328602A83982F9C609B837D
:1004900088608C8310E00AC0E1E0F0E0EC0FFD1F03
:1004A000E10FF11D60818EE4A4DF1F5F1430A0F323
:1004B0000F900F900F900F90DF91CF911F910895A3
:1004C00080E197E27DDF2FEF80E792E021508040CE
:1004D0009040E1F700C0000083E3C5DF82E3C3DFA3
:1004E00088E2C1DF8CE0BFDF86E0BDDF81E0BBDFFB
:1004F0008FE39CE90197F1F700C0000008950F9386
:100500001F93CF938C01C0E002C080DFCF5FF80162
:10051000EC0FF11D80818111F8CFCF911F910F91C8
:1005200008956F70817090E4899F600D1124862F6B
:10053000805899CF0895CF93DF93EA01F2DFCE017F
:10054000DEDFDF91CF9108950F931F93CF93DF9359
:10055000CDB7DEB764970FB6F894DEBF0FBECDBF40
:10056000FC0121812F9380818F938DE291E09F93F5
:100570008F938E010F5F1F4F1F930F930E94EC0A02
:10058000A80160E081E0D7DF0F900F900F900F90EF
:100590000F900F9064960FB6F894DEBF0FBECDBFDC
:1005A000DF91CF911F910F910895E4E6F0E08081F3
:1005B000886080830895E091C4078E2F90E0FC014D
:1005C000E254F109E233F105A0F4EA5BFF4FD4C72E
:1005D00084EF91E08CD00DC084EF91E09BD009C0F6
:1005E0008CEB92E0AAD005C08CEB92E0B6D001C0B3
:1005F000E9D081E090E090936B0180936A010895C7
:100600001F920F920FB60F9211248F939F93AF9367
:10061000BF9386E082BF8091740190917501A09193
:100620007601B09177010196A11DB11D80937401EF
:1006300090937501A0937601B0937701809170013A
:1006400090917101A0917201B09173010196A11D69
:10065000B11D8093700190937101A0937201B093CA
:10066000730180916C0190916D01A0916E01B09128
:100670006F010196A11DB11D80936C0190936D01D6
:10068000A0936E01B0936F01BF91AF919F918F9135
:100690000F900FBE0F901F90189586E082BF83B712
:1006A000846083BF87B7816087BF089509DF7DDFDE
:1006B000B4DD3DDDF2DF7ED3BFD35FD06FD0B8D4E1
:1006C00080E091E09093C8078093C707789488E70B
:1006D00091E03ADFE0916A01F0916B01EE0FFF1FAC
:1006E000E25FFE4F0190F081E02D0995F0CFDC0133
:1006F000E2E6F0E09081907F908390819560908316
:100700008D919C9111979BBD8ABD8D919C9199BDB6
:1007100088BD0895DC01E2E6F0E09081907F90834F
:1007200090819A6090838D919C9111979BBD8ABD19
:100730008D919C9199BD88BD0895DC01E2E6F0E0C1
:100740009081907F90839081956090831BBC1ABCB0
:100750008D919C9199BD88BD0895DC01E2E6F0E0A1
:100760009081907F90839081956090838D919C91F2
:100770009BBD8ABD19BC18BC089587B3806687BB32
:10078000E1E6F0E080818F608083E2E6F0E0808146
:10079000807F808380818560808308958EB58360AB
:1007A0008EBD8FB582608FBD8EB588618EBD8FB5D1
:1007B00080688FBD8FB580628FBD8FEF93E097BD4E
:1007C00086BD0895E2E6F0E08081807F80838081AD
:1007D0008F6080831BBC1ABC19BC18BC0895CF93D2
:1007E000DF9300D0CDB7DEB788E790E0A0E0B0E0BF
:1007F0008093660190936701A0936801B0936901AB
:1008000049C246D48091740190917501A0917601FE
:10081000B0917701883E9340A105B105D8F01092C0
:1008200074011092750110927601109277018091F7
:10083000660190916701A0916801B09169010197EB
:10084000A109B1098093660190936701A0936801A3
:10085000B09369018091700190917101A091720132
:10086000B09173010297A105B10558F01092700183
:10087000109271011092720110927301CE010196D3
:10088000D5DC80917E0190917F0104978CF480915A
:1008900080019091810104975CF481E090E09A835B
:1008A000898388E592E09093790180937801E6C18D
:1008B000809182019091830104978CF48091800152
:1008C0009091810104975CF481E090E09A838983A0
:1008D00088E592E09093790180937801CFC180916F
:1008E00082019091830104978CF480917E01909114
:1008F0007F0104975CF481E090E09A83898388E526
:1009000092E09093790180937801B8C18091800141
:100910009091810105975CF481E090E09A8389834E
:1009200088E592E09093790180937801A7C1809146
:100930007E0190917F0105975CF482E090E09A83BC
:10094000898384EF91E0909379018093780196C137
:10095000809182019091830105975CF483E090E09F
:100960009A83898384EF91E0909379018093780151
:1009700085C180918201909183010497BCF480919C
:1009800080019091810104978CF480917E01909177
:100990007F0104975CF481E090E09A83898388E585
:1009A00092E0909379018093780168C180917E01F3
:1009B00090917F012091820130918301821B930BE2
:1009C0000497DCF4809182019091830120917E0153
:1009D00030917F01821B930B04977CF480918001FE
:1009E000909181010A974CF01A8219828CE291E071
:1009F000909379018093780141C180918001909119
:100A000081018032934074F480918201909183013E
:100A1000803293403CF480917E0190917F0180323E
:100A200093405CF081E090E09A83898380E991E0D3
:100A3000909379018093780121C180917E019091FA
:100A40007F010897ECF4809180019091810140979B
:100A5000BCF480917E0190917F0104978CF080918D
:100A600080019091810104975CF082E090E09A838C
:100A7000898380E991E09093790180937801FEC0A9
:100A800080918201909183010897ECF4809180011C
:100A9000909181014097BCF48091820190918301F3
:100AA00004978CF0809180019091810104975CF013
:100AB00083E090E09A83898380E991E090937901C3
:100AC00080937801DBC080917E0190917F014597F2
:100AD000ECF480918001909181014F97BCF480915A
:100AE0007E0190917F0104978CF08091800190911C
:100AF000810104975CF082E090E09A83898384EF1F
:100B000091E09093790180937801B8C0809182013F
:100B1000909183014597ECF480918001909181013F
:100B20004F97BCF4809182019091830104978CF0DF
:100B3000809180019091810104975CF083E090E0C6
:100B40009A83898384EF91E090937901809378016F
:100B500095C080917E0190917F0145975CF482E081
:100B600090E09A83898384EF91E090937901809358
:100B7000780184C0809182019091830145975CF453
:100B800083E090E09A83898384EF91E090937901E8
:100B90008093780173C080918201909183012091AC
:100BA0007E0130917F01821B930B039764F4809147
:100BB0007E0190917F012091820130918301821BFF
:100BC000930B03976CF08091800190918101449781
:100BD00084F08091800190918101893C91054CF4D1
:100BE0001A8219828EE591E09093790180937801C1
:100BF00045C080917E0190917F01209182013091CA
:100C00008301821B930B0597BCF480918001909126
:100C1000810108978CF480917E0190917F01069765
:100C20005CF082E090E09A83898384EF91E0909376
:100C300079018093780122C0809182019091830193
:100C400020917E0130917F01821B930B0597B4F4B4
:100C50008091800190918101089784F480918201B4
:100C600090918301069754F083E090E09A83898302
:100C700084EF91E09093790180937801E981FA8182
:100C8000EE0FFF1FEA5EFE4F0190F081E02D88E736
:100C900091E009958091660190916701A0916801AA
:100CA000B0916901892B8A2B8B2B09F0AACD0F906B
:100CB0000F90DF91CF9108951F920F920FB60F9270
:100CC00011240BB60F922F933F934F935F936F9323
:100CD0007F938F939F93AF93BF93EF93FF93CF93A4
:100CE000DF931F92CDB7DEB78CB1898389818D30B8
:100CF00019F089818A3061F520917C0130917D0164
:100D000080917A0190917B0140E5429FF001439FE1
:100D1000F00D1124EC57FE4FE80FF91F10821092CE
:100D20007B0110927A0180917C0190917D01019666
:100D300090937D0180937C0180917C0190917D0155
:100D40006AE070E0E4D390937D0180937C011CC045
:100D500060917C0170917D0180917A0190917B017D
:100D60009C012F5F3F4F30937B0120937A01498193
:100D700050E5569F9001579F300D11242C573E4F40
:100D8000F901E80FF91F40830F90DF91CF91FF9198
:100D9000EF91BF91AF919F918F917F916F915F91F3
:100DA0004F913F912F910F900BBE0F900FBE0F9060
:100DB0001F901895109290008FEC89B98BB18260CA
:100DC0008BB9E5E9F0E08081866080838AB188692B
:100DD0008AB908955D9BFECF8CB908951F920F923A
:100DE0000FB60F9211240BB60F922F933F934F9390
:100DF0005F936F937F938F939F93AF93BF93EF9383
:100E0000FF9380919C008093C4078091C40790E079
:100E1000E1DFFF91EF91BF91AF919F918F917F9112
:100E20006F915F914F913F912F910F900BBE0F905B
:100E30000FBE0F901F901895109298008FEC809322
:100E40009900EBE9F0E0808182608083EDE9F0E0D9
:100E5000808186608083EAE9F0E080818869808310
:100E600008951F920F920FB60F9211240BB60F9296
:100E70002F933F934F935F936F937F938F939F93A2
:100E8000AF93BF93EF93FF930C9B05C01092890023
:100E90001092880020C0609188007091890080E0E5
:100EA00090E044D220E034E244E759E4CDD220E09F
:100EB00030E040E854E4C8D220E034E244E75BE4A8
:100EC0009CD120E030E048E652E497D1FED1709307
:100ED000830160938201FF91EF91BF91AF919F9148
:100EE0008F917F916F915F914F913F912F910F90D3
:100EF0000BBE0F900FBE0F901F9018951F920F9270
:100F00000FB60F9211240BB60F922F933F934F936E
:100F10005F936F937F938F939F93AF93BF93EF9361
:100F2000FF930D9B05C0109289001092880020C08D
:100F3000609188007091890080E090E0F7D120E016
:100F400034E244E759E480D220E030E040E854E461
:100F50007BD220E034E244E75BE44FD120E030E094
:100F600048E652E44AD1B1D1709381016093800187
:100F7000FF91EF91BF91AF919F918F917F916F9171
:100F80005F914F913F912F910F900BBE0F900FBE2D
:100F90000F901F9018951F920F920FB60F92112469
:100FA0000BB60F922F933F934F935F936F937F9363
:100FB0008F939F93AF93BF93EF93FF930E9B05C0C7
:100FC000109289001092880020C060918800709172
:100FD000890080E090E0AAD120E034E244E759E4BF
:100FE00033D220E030E040E854E42ED220E034E276
:100FF00044E75BE402D120E030E048E652E4FDD073
:1010000064D170937F0160937E01FF91EF91BF9156
:10101000AF919F918F917F916F915F914F913F9190
:101020002F910F900BBE0F900FBE0F901F90189531
:101030008AB381608ABB82B18F7E82B98AB78160B0
:101040008ABFEAE8F0E080818560808389B78061AB
:1010500089BF8AB382608ABB82B18F7D82B98AB729
:1010600084608ABF80818560808389B7806289BF00
:101070008AB384608ABB82B18F7B82B98AB7806170
:101080008ABF80818560808389B7806489BF089525
:1010900080916C0190916D01A0916E01B0916F01F2
:1010A0000597A105B10580F48BB38E7F8BBB85E0DE
:1010B0008A95F1F700008BB381608BBB80E58A9540
:1010C000F1F78BB38E7F8BBB80916C0190916D019A
:1010D000A0916E01B0916F018C97A105B105E0F070
:1010E00080916C0190916D01A0916E01B0916F01A2
:1010F000C197A105B10580F48BB38D7F8BBB85E0D3
:101100008A95F1F700008BB382608BBB80E58A95EE
:10111000F1F78BB38D7F8BBB80916C0190916D014A
:10112000A0916E01B0916F0188359105A105B105BF
:10113000E8F080916C0190916D01A0916E01B091E9
:101140006F018D359105A105B10580F48BB38B7FBF
:101150008BBB85E08A95F1F700008BB384608BBB75
:1011600080E58A95F1F78BB38B7F8BBB60916C0127
:1011700070916D0180916E0190916F012FE530E0CB
:1011800040E050E0D7D160936C0170936D01809383
:101190006E0190936F010895809182019091830177
:1011A0009F938F9381E391E09F938F9302D28091DD
:1011B0008001909181019F938F9380E491E09F93B0
:1011C0008F93F7D180917E0190917F019F938F93B0
:1011D0008FE491E09F938F93ECD15ADF82E090E00F
:1011E00090936B0180936A018DB79EB70C960FB6F2
:1011F000F8949EBF0FBE8DBF08950CD0EBC0E3D016
:1012000040F0DAD030F021F45F3F19F0CCC051113A
:1012100015C1CFC0F0D098F39923C9F35523B1F38A
:10122000951B550BBB27AA2762177307840738F055
:101230009F5F5F4F220F331F441FAA1FA9F333D0B4
:101240000E2E3AF0E0E830D091505040E695001C68
:10125000CAF729D0FE2F27D0660F771F881FBB1F24
:10126000261737074807AB07B0E809F0BB0B802DFE
:10127000BF01FF2793585F4F2AF09E3F510568F04A
:1012800092C0DCC05F3FECF3983EDCF38695779527
:101290006795B795F7959F5FC9F7880F911D96954C
:1012A000879597F90895E1E0660F771F881FBB1FA8
:1012B000621773078407BA0720F0621B730B840B55
:1012C000BA0BEE1F88F7E095089504D06894B11129
:1012D000B5C0089598D088F09F5790F0B92F9927FE
:1012E000B751A0F0D1F0660F771F881F991F1AF031
:1012F000BA95C9F712C0B13081F09FD0B1E008951E
:101300009CC0672F782F8827B85F39F0B93FCCF39E
:10131000869577956795B395D9F73EF49095809526
:10132000709561957F4F8F4F9F4F0895E89409C046
:1013300097FB3EF490958095709561957F4F8F4F08
:101340009F4F9923A9F0F92F96E9BB279395F6951E
:10135000879577956795B795F111F8CFFAF4BB0F9C
:1013600011F460FF1BC06F5F7F4F8F4F9F4F16C000
:10137000882311F096E911C0772321F09EE8872F8A
:10138000762F05C0662371F096E8862F70E060E046
:101390002AF09A95660F771F881FDAF7880F9695BF
:1013A000879597F9089597F99F6780E870E060E066
:1013B00008959FEF80EC089500240A9416161706EE
:1013C00018060906089500240A9412161306140636
:1013D00005060895092E0394000C11F4882352F099
:1013E000BB0F40F4BF2B11F460FF04C06F5F7F4F51
:1013F0008F4F9F4F089557FD9058440F551F59F038
:101400005F3F71F04795880F97FB991F61F09F3FF1
:1014100079F087950895121613061406551FF2CF1A
:101420004695F1DF08C0161617061806991FF1CF6A
:1014300086957105610508940895E894BB27662791
:101440007727CB0197F908950BD0C4CFB5DF28F0EB
:10145000BADF18F0952309F0A6CFABCF1124EECF59
:10146000CADFA0F3959FD1F3950F50E0551F629FFF
:10147000F001729FBB27F00DB11D639FAA27F00DED
:10148000B11DAA1F649F6627B00DA11D661F829F14
:101490002227B00DA11D621F739FB00DA11D621FF9
:1014A000839FA00D611D221F749F3327A00D611D16
:1014B000231F849F600D211D822F762F6A2F1124F8
:1014C0009F5750408AF0E1F088234AF0EE0FFF1F4B
:1014D000BB1F661F771F881F91505040A9F79E3F82
:1014E000510570F060CFAACF5F3FECF3983EDCF37C
:1014F000869577956795B795F795E7959F5FC1F7BF
:10150000FE2B880F911D9695879597F9089597FB67
:10151000072E16F4009406D077FD08D036D007FCCD
:1015200005D03EF4909581959F4F089570956195F3
:101530007F4F0895A1E21A2EAA1BBB1BFD010DC00F
:10154000AA1FBB1FEE1FFF1FA217B307E407F50773
:1015500020F0A21BB30BE40BF50B661F771F881F4F
:10156000991F1A9469F760957095809590959B01E5
:10157000AC01BD01CF010895EE0FFF1F0024001C38
:101580000BBE0790F691E02D0994AA1BBB1B51E1FD
:1015900007C0AA1FBB1FA617B70710F0A61BB70BE3
:1015A000881F991F5A95A9F780959095BC01CD0188
:1015B0000895CF93DF93CDB7DEB7AE014B5F5F4F9A
:1015C000FA0161917191AF018091C7079091C807AD
:1015D00031D0DF91CF9108950F931F93CF93DF9375
:1015E000CDB7DEB72E970FB6F894DEBF0FBECDBFD6
:1015F0000D891E8986E08C831A8309838FEF9FE70C
:101600009E838D83AE01475E5F4F6F89788DCE01DB
:10161000019610D0EF81F885E00FF11F10822E9611
:101620000FB6F894DEBF0FBECDBFDF91CF911F91F3
:101630000F9108952F923F924F925F926F927F92F7
:101640008F929F92AF92BF92CF92DF92EF92FF92D2
:101650000F931F93CF93DF93CDB7DEB72B970FB6C2
:10166000F894DEBF0FBECDBF6C017B018A01FC0187
:1016700017821682838181FFBFC1CE0101963C0192
:10168000F6019381F70193FD859193FF81917F018D
:10169000882309F4ADC1853239F493FD859193FF18
:1016A00081917F01853221F4B60190E0D6D1E8CF57
:1016B000912C212C312CFFE1F315D8F08B3279F0ED
:1016C00038F4803279F08332A1F4232D20611DC0DB
:1016D0008D3261F0803369F4232D216016C0832D93
:1016E0008260382EE32DE4603E2E2AC0F32DF86090
:1016F0001DC037FC2DC020ED280F2A3040F08E325F
:10170000B9F436FC75C1232D2064322E19C036FE83
:1017100006C08AE0989E200D1124922E11C0EAE0A6
:101720002E9E200D1124222EF32DF0623F2E08C094
:101730008C3621F4832D8068382E02C0883641F41F
:10174000F70193FD859193FF81917F018111B3CFC3
:10175000982F9F7D9554933028F40C5F1F4F9FE383
:1017600099830DC0833631F0833771F0833509F0EA
:1017700055C020C0F801808189830E5F1F4F8824E7
:101780008394912C530112C02801F2E04F0E511C9A
:10179000F801A080B18036FE03C0692D70E002C060
:1017A0006FEF7FEFC5014ED14C018201F32DFF7722
:1017B0003F2E15C0280122E0420E511CF801A080E6
:1017C000B18036FE03C0692D70E002C06FEF7FEF7D
:1017D000C5012DD14C01F32DF0683F2E820133FC61
:1017E00019C0822D90E088169906A0F4B60180E217
:1017F00090E033D12A94F5CFF50137FC859137FE7F
:1018000081915F01B60190E028D121102A9421E056
:10181000821A91088114910479F7E1C0843611F09D
:10182000893639F5F80137FE07C060817181828100
:1018300093810C5F1F4F08C060817181072E000CDF
:10184000880B990B0E5F1F4FF32DFF763F2E97FFEE
:1018500009C090958095709561957F4F8F4F9F4FF0
:10186000F0683F2E2AE030E0A30133D1882E86189D
:1018700044C0853731F4232D2F7EB22E2AE030E08C
:1018800025C0932D997FB92E8F36C1F018F4883575
:1018900079F0AEC0803719F0883721F0A9C0E92F60
:1018A000E061BE2EB4FE0DC0FB2DF460BF2E09C05A
:1018B00034FE0AC0292F2660B22E06C028E030E090
:1018C00005C020E130E002C020E132E0F801B7FEBF
:1018D00007C060817181828193810C5F1F4F06C0B8
:1018E0006081718180E090E00E5F1F4FA301F1D015
:1018F000882E8618FB2DFF773F2E36FE0DC0232D38
:101900002E7FA22E891458F434FE0BC032FC09C07D
:10191000832D8E7EA82E05C0B82CA32C03C0B82C16
:1019200001C0B92CA4FE0FC0FE01E80DF11D80819D
:10193000803321F49A2D997EA92E09C0A2FE06C0FB
:10194000B394B39404C08A2D867809F0B394A3FCB1
:1019500010C0A0FE06C0B21480F4280C922C9B1874
:101960000DC0B21458F4B60180E290E076D0B39482
:10197000F8CFB21418F42B1802C0982C212CA4FE16
:101980000FC0B60180E390E068D0A2FE16C0A1FCB3
:1019900003C088E790E002C088E590E0B6010CC083
:1019A0008A2D867851F0A1FE02C08BE201C080E250
:1019B000A7FC8DE2B60190E050D0891430F4B60156
:1019C00080E390E04AD09A94F8CF8A94F301E80D2E
:1019D000F11D8081B60190E040D08110F6CF222029
:1019E00009F44ECEB60180E290E037D02A94F7CFCA
:1019F000F6018681978102C08FEF9FEF2B960FB67D
:101A0000F894DEBF0FBECDBFDF91CF911F910F9134
:101A1000FF90EF90DF90CF90BF90AF909F908F900E
:101A20007F906F905F904F903F902F900895FC01B2
:101A30000590615070400110D8F7809590958E0FF9
:101A40009F1F0895FC016150704001900110D8F76C
:101A5000809590958E0F9F1F08950F931F93CF939E
:101A6000DF93FB01238121FD03C08FEF9FEF2CC08B
:101A700022FF16C0468157812481358142175307C2
:101A800044F4A081B1819D012F5F3F4F31832083BA
:101A90008C93268137812F5F3F4F3783268314C075
:101AA0008B01EC01FB010084F185E02D0995892B68
:101AB000E1F6D80116968D919C911797019617968D
:101AC0009C938E931697CE01DF91CF911F910F912A
:101AD0000895FA01AA27283051F1203181F1E894C4
:101AE0006F936E7F6E5F7F4F8F4F9F4FAF4FB1E011
:101AF0003ED0B4E03CD0670F781F891F9A1FA11D0C
:101B0000680F791F8A1F911DA11D6A0F711D811D0C
:101B1000911DA11D20D009F468943F912AE0269FD1
:101B200011243019305D3193DEF6CF010895462F30
:101B30004770405D4193B3E00FD0C9F7F6CF462F11
:101B40004F70405D4A3318F0495D31FD405241937A
:101B500002D0A9F7EACFB4E0A69597958795779537
:101B60006795BA95C9F700976105710508959B01BE
:101B7000AC010A2E06945795479537952795BA9547
:101B8000C9F7620F731F841F951FA01D0895F89455
:021B9000FFCF85
:101B92000000000200000000EA0600000000DB0274
:101BA200CC08DF00EF0377038A039D03AD033F06F2
:101BB2005B4F666D7D277F6F80717C385025336463
:101BC200006C6566742020203A20202535640A00C6
:101BD20063656E746572203A20202535640A0072AE
:0E1BE2006967687420203A20202535640A00C7
:00000001FF
