:1000000077C0000093C0000091C000008FC00000C6
:100010008DC000002DC4000078C40000C3C40000DF
:1000200085C0000083C0000081C000007FC00000C8
:100030007DC000007BC0000079C0000077C00000D8
:10004000EEC1000073C000003EC300006FC000009E
:100050006DC000006BC0000069C0000067C00000F8
:1000600065C0000063C0000061C000005FC0000008
:100070005DC000005BC00000B8C3000057C00000B6
:1000800055C0000053C0000051C00000FB01080231
:1000900008020802F7010802080208020802080222
:1000A000FF01080208020802080208020302070210
:1000B00008020802080208020802080208020802F0
:1000C000080208020802080208020802FB010802EE
:1000D00008020802F70108020802080208020802E2
:1000E000FF010802080208020802080203020702D0
:1000F00011241FBECFEFD0E1DEBFCDBF11E0A0E0E5
:10010000B1E0E4EDF4E100E00BBF02C007900D9216
:10011000AE34B107D9F727E0AEE4B1E001C01D92DB
:10012000A93BB207E1F7D1D10C94680A69CF8AB331
:100130008F7B8ABB089529B3422F50E021E030E045
:1001400002C0220F331F6A95E2F7242335232115BD
:100150003105B9F0FC01E25BFE4F4081411111C055
:100160002FEF3DEE42E0215030404040E1F700C02B
:100170000000FC01E25BFE4F21E0208380E090E084
:100180000895FC01E25BFE4F4081413091F4232B46
:1001900099F4FC01E25BFE4F10828FEF9DEE22E0AE
:1001A000815090402040E1F700C0000081E090E0E5
:1001B000089580E090E0089580E090E0089566E082
:1001C00070E080E090E0B7DF892B71F081E090E093
:1001D0002091520130915301232B11F080E090E0E7
:1001E0009093530180935201809152019091530159
:1001F000892B39F0E5E6F0E0808188608083EBD1DF
:1002000006C0E5E6F0E08081877F8083D7D183E078
:1002100090E090935B0180935A010895CF93DF9310
:10022000CDB7DEB72B970FB6F894DEBF0FBECDBFAC
:100230008BE0E6E1F1E0DE01119601900D928A95E6
:10024000E1F780915401909155018130910529F198
:100250001CF4892B49F099C08230910509F43DC006
:10026000039709F473C091C08FE780936200609197
:1002700056017091570180915801909159012AE0DF
:1002800030E040E050E025D6E1E0F0E0EC0FFD1F6B
:10029000E60FF71F808185BB78C08FEB80936200EB
:1002A00060915601709157018091580190915901C8
:1002B0002AE030E040E050E00CD6CA01B90126E067
:1002C00030E040E050E005D6E1E0F0E0EC0FFD1F4B
:1002D000E60FF71F808185BB58C08FED80936200C9
:1002E0006091560170915701809158019091590188
:1002F00060FF17C02CE330E040E050E0EAD5CA01CF
:10030000B9012AE030E040E050E0E3D5E1E0F0E080
:10031000EC0FFD1FE60FF71F90818B85892B85BBA6
:1003200034C02CE330E040E050E0D3D5CA01B9013D
:100330002AE030E040E050E0CCD5E1E0F0E0EC0F26
:10034000FD1FE60FF71F808185BB1FC08FEE8093D6
:10035000620060915601709157018091580190910F
:10036000590128E532E040E050E0B3D5CA01B901B7
:1003700026E030E040E050E0ACD5E1E0F0E0EC0F0A
:10038000FD1FE60FF71F808185BB8091540190917E
:100390005501019683709078992324F401978C6F0E
:1003A0009F6F019690935501809354012B960FB641
:1003B000F894DEBF0FBECDBFDF91CF910895E4E684
:1003C000F0E0808188608083089510925B01109234
:1003D0005A010895E091B2078E2F90E0FC01E2549B
:1003E000F109E233F105A0F4EA5BFF4F94C584EF15
:1003F00091E0ACD00DC084EF91E0B6D009C08CEB99
:1004000092E0C0D005C08CEB92E0CAD001C0D6D03B
:1004100081E090E090935B0180935A0108951F92D0
:100420000F920FB60F9211248F939F93AF93BF93A8
:1004300086E082BF8091640190916501A091660180
:10044000B09167010196A11DB11D80936401909345
:100450006501A0936601B09367018091600190915E
:100460006101A0916201B09163010196A11DB11DCE
:100470008093600190936101A0936201B093630146
:1004800080915C0190915D01A0915E01B0915F014E
:100490000196A11DB11D80935C0190935D01A09315
:1004A0005E01B0935F01BF91AF919F918F910F90CB
:1004B0000FBE0F901F90189586E082BF83B78460AF
:1004C00083BF87B7816087BF089579DF30DEF4DFAF
:1004D00078D1B9D116D026D0B2D280E091E09093F5
:1004E000B6078093B5077894E0915A01F0915B01CB
:1004F000EE0FFF1FE25FFE4F0190F081E02D0995A6
:10050000F3CF87B3806687BBE1E6F0E080818F6040
:100510008083E2E6F0E08081807F80838081856057
:10052000808308958EB583608EBD8FB582608FBD48
:100530008EB588618EBD8FB580688FBD8FB58062A6
:100540008FBD8FEF93E097BD86BD08959C01E2E6D5
:10055000F0E09081907F90839081956090833BBD87
:100560002ABD39BD28BD08959C01E2E6F0E09081E6
:10057000907F908390819A6090833BBD2ABD39BD66
:1005800028BD08959C01E2E6F0E09081907F908381
:100590009081956090833BBD2ABD19BC18BC08951D
:1005A0009C01E2E6F0E09081907F908390819560DD
:1005B00090831BBC1ABC39BD28BD0895E2E6F0E06B
:1005C0008081807F808380818F6080831BBC1ABC88
:1005D00019BC18BC089588E790E0A0E0B0E08093D3
:1005E000560190935701A0935801B09359015DC0F3
:1005F00056D28091640190916501A0916601B091FD
:100600006701883E9340A105B105D8F010926401BE
:100610001092650110926601109267018091560157
:1006200090915701A0915801B09159010197A109EA
:10063000B1098093560190935701A0935801B0934C
:1006400059018091600190916101A0916201B09186
:1006500063010297A105B10548F010926001109264
:1006600061011092620110926301D8DD80916C01EA
:1006700090916D0145971CF484EF91E083DF8091A8
:1006800070019091710145971CF484EF91E088DF2F
:1006900080916E0190916F01459724F48CE291E076
:1006A00063DF03C08CE291E051DF809156019091AD
:1006B0005701A0915801B0915901892B8A2B8B2B9E
:1006C00009F096CF08951F920F920FB60F92112442
:1006D0000BB60F922F933F934F935F936F937F933C
:1006E0008F939F93AF93BF93EF93FF93CF93DF933A
:1006F0001F92CDB7DEB78CB1898389818D3019F017
:1007000089818A3061F520916A0130916B01809175
:1007100068019091690140E5429FF001439FF00D0F
:100720001124EE58FE4FE80FF91F10821092690154
:100730001092680180916A0190916B0101969093EB
:100740006B0180936A0180916A0190916B016AE06C
:1007500070E0ACD390936B0180936A011CC06091F0
:100760006A0170916B0180916801909169019C010F
:100770002F5F3F4F3093690120936801498150E515
:10078000569F9001579F300D11242E583E4FF9016E
:10079000E80FF91F40830F90DF91CF91FF91EF9108
:1007A000BF91AF919F918F917F916F915F914F9189
:1007B0003F912F910F900BBE0F900FBE0F901F9087
:1007C0001895109290008FEC89B98BB182608BB92B
:1007D000E5E9F0E08081866080838AB188698AB922
:1007E00008955D9BFECF8CB908951F920F920FB6AE
:1007F0000F9211240BB60F922F933F934F935F9359
:100800006F937F938F939F93AF93BF93EF93FF93D8
:1008100080919C008093B2078091B20790E0E1DF65
:10082000FF91EF91BF91AF919F918F917F916F91C8
:100830005F914F913F912F910F900BBE0F900FBE84
:100840000F901F901895109298008FEC809399004C
:10085000EBE9F0E0808182608083EDE9F0E0808167
:1008600086608083EAE9F0E080818869808308956A
:100870001F920F920FB60F9211240BB60F922F9367
:100880003F934F935F936F937F938F939F93AF9318
:10089000BF93EF93FF930C9B05C0109289001092B9
:1008A000880020C0609188007091890080E090E00D
:1008B0000CD220E034E244E759E495D220E030E065
:1008C00040E854E490D220E034E244E75BE464D1B1
:1008D00020E030E048E652E45FD1C6D17093710168
:1008E00060937001FF91EF91BF91AF919F918F91B4
:1008F0007F916F915F914F913F912F910F900BBE20
:100900000F900FBE0F901F9018951F920F920FB669
:100910000F9211240BB60F922F933F934F935F9337
:100920006F937F938F939F93AF93BF93EF93FF93B7
:100930000D9B05C0109289001092880020C0609124
:1009400088007091890080E090E0BFD120E034E21F
:1009500044E759E448D220E030E040E854E443D290
:1009600020E034E244E75BE417D120E030E048E6E1
:1009700052E412D179D170936F0160936E01FF91AF
:10098000EF91BF91AF919F918F917F916F915F9107
:100990004F913F912F910F900BBE0F900FBE0F9074
:1009A0001F9018951F920F920FB60F9211240BB63D
:1009B0000F922F933F934F935F936F937F938F93F8
:1009C0009F93AF93BF93EF93FF930E9B05C010923D
:1009D00089001092880020C0609188007091890081
:1009E00080E090E072D120E034E244E759E4FBD1AA
:1009F00020E030E040E854E4F6D120E034E244E77F
:100A00005BE4CAD020E030E048E652E4C5D02CD107
:100A100070936D0160936C01FF91EF91BF91AF9165
:100A20009F918F917F916F915F914F913F912F9106
:100A30000F900BBE0F900FBE0F901F9018958AB3AA
:100A400081608ABB82B18F7E82B98AB781608ABF9A
:100A5000EAE8F0E080818560808389B7806189BFA2
:100A60008AB382608ABB82B18F7D82B98AB7846083
:100A70008ABF80818560808389B7806289BF8AB39D
:100A800084608ABB82B18F7B82B98AB780618ABF5A
:100A900080818560808389B7806489BF08958BB326
:100AA0008E7F8BBB25E02A95F1F700008BB3816028
:100AB0008BBB80E58A95F1F78BB38E7F8BBB9FEF65
:100AC00020E782E0915020408040E1F700C0000024
:100AD0008BB38D7F8BBB95E09A95F1F700008BB3BC
:100AE00082608BBB20E52A95F1F78BB38D7F8BBBA2
:100AF0008FEF90E722E0815090402040E1F700C066
:100B000000008BB38B7F8BBB85E08A95F1F70000EB
:100B10008BB384608BBB90E59A95F1F78BB38B7F99
:100B20008BBB2FEF80E792E0215080409040E1F7AF
:100B300000C00000089580917001909171019F9311
:100B40008F9381E291E09F938F9302D280916E0107
:100B500090916F019F938F9380E391E09F938F9388
:100B6000F7D180916C0190916D019F938F938FE3EA
:100B700091E09F938F93ECD192DF82E090E090938D
:100B80005B0180935A018DB79EB70C960FB6F8940F
:100B90009EBF0FBE8DBF08950CD0EBC0E3D040F0D8
:100BA000DAD030F021F45F3F19F0CCC0511115C1FB
:100BB000CFC0F0D098F39923C9F35523B1F3951B17
:100BC000550BBB27AA2762177307840738F09F5F6E
:100BD0005F4F220F331F441FAA1FA9F333D00E2EDD
:100BE0003AF0E0E830D091505040E695001CCAF74A
:100BF00029D0FE2F27D0660F771F881FBB1F26170F
:100C000037074807AB07B0E809F0BB0B802DBF01E1
:100C1000FF2793585F4F2AF09E3F510568F092C01E
:100C2000DCC05F3FECF3983EDCF3869577956795E3
:100C3000B795F7959F5FC9F7880F911D9695879592
:100C400097F90895E1E0660F771F881FBB1F6217B1
:100C500073078407BA0720F0621B730B840BBA0B6F
:100C6000EE1F88F7E095089504D06894B111B5C0DF
:100C7000089598D088F09F5790F0B92F9927B751D1
:100C8000A0F0D1F0660F771F881F991F1AF0BA9550
:100C9000C9F712C0B13081F09FD0B1E008959CC077
:100CA000672F782F8827B85F39F0B93FCCF3869546
:100CB00077956795B395D9F73EF4909580957095A3
:100CC00061957F4F8F4F9F4F0895E89409C097FB20
:100CD0003EF490958095709561957F4F8F4F9F4F13
:100CE0009923A9F0F92F96E9BB279395F695879557
:100CF00077956795B795F111F8CFFAF4BB0F11F41A
:100D000060FF1BC06F5F7F4F8F4F9F4F16C08823C0
:100D100011F096E911C0772321F09EE8872F762FF6
:100D200005C0662371F096E8862F70E060E02AF037
:100D30009A95660F771F881FDAF7880F9695879523
:100D400097F9089597F99F6780E870E060E008954B
:100D50009FEF80EC089500240A94161617061806D3
:100D60000906089500240A941216130614060506AF
:100D70000895092E0394000C11F4882352F0BB0F40
:100D800040F4BF2B11F460FF04C06F5F7F4F8F4FA3
:100D90009F4F089557FD9058440F551F59F05F3FDE
:100DA00071F04795880F97FB991F61F09F3F79F08D
:100DB00087950895121613061406551FF2CF46950F
:100DC000F1DF08C0161617061806991FF1CF869591
:100DD0007105610508940895E894BB276627772775
:100DE000CB0197F908950BD0C4CFB5DF28F0BADF57
:100DF00018F0952309F0A6CFABCF1124EECFCADFB0
:100E0000A0F3959FD1F3950F50E0551F629FF0011D
:100E1000729FBB27F00DB11D639FAA27F00DB11D76
:100E2000AA1F649F6627B00DA11D661F829F2227FF
:100E3000B00DA11D621F739FB00DA11D621F839F86
:100E4000A00D611D221F749F3327A00D611D231F5C
:100E5000849F600D211D822F762F6A2F11249F57AA
:100E600050408AF0E1F088234AF0EE0FFF1FBB1FCD
:100E7000661F771F881F91505040A9F79E3F51056C
:100E800070F060CFAACF5F3FECF3983EDCF386951D
:100E900077956795B795F795E7959F5FC1F7FE2B17
:100EA000880F911D9695879597F9089597FB072EC2
:100EB00016F4009406D077FD08D036D007FC05D094
:100EC0003EF4909581959F4F0895709561957F4F61
:100ED0000895A1E21A2EAA1BBB1BFD010DC0AA1F7B
:100EE000BB1FEE1FFF1FA217B307E407F50720F093
:100EF000A21BB30BE40BF50B661F771F881F991F0E
:100F00001A9469F760957095809590959B01AC0156
:100F1000BD01CF010895EE0FFF1F0024001C0BBE82
:100F20000790F691E02D0994AA1BBB1B51E107C065
:100F3000AA1FBB1FA617B70710F0A61BB70B881F69
:100F4000991F5A95A9F780959095BC01CD010895F8
:100F5000CF93DF93CDB7DEB7AE014B5F5F4FFA01A2
:100F600061917191AF018091B5079091B60703D05F
:100F7000DF91CF9108952F923F924F925F926F929F
:100F80007F928F929F92AF92BF92CF92DF92EF9219
:100F9000FF920F931F93CF93DF93CDB7DEB72B97BD
:100FA0000FB6F894DEBF0FBECDBF6C017B018A0186
:100FB000FC0117821682838181FFBFC1CE01019699
:100FC0003C01F6019381F70193FD859193FF819197
:100FD0007F01882309F4ADC1853239F493FD8591F1
:100FE00093FF81917F01853221F4B60190E0D6D143
:100FF000E8CF912C212C312CFFE1F315D8F08B3266
:1010000079F038F4803279F08332A1F4232D206115
:101010001DC08D3261F0803369F4232D216016C02C
:10102000832D8260382EE32DE4603E2E2AC0F32DFE
:10103000F8601DC037FC2DC020ED280F2A3040F08D
:101040008E32B9F436FC75C1232D2064322E19C0BE
:1010500036FE06C08AE0989E200D1124922E11C003
:10106000EAE02E9E200D1124222EF32DF0623F2E59
:1010700008C08C3621F4832D8068382E02C0883653
:1010800041F4F70193FD859193FF81917F018111D7
:10109000B3CF982F9F7D9554933028F40C5F1F4F4A
:1010A0009FE399830DC0833631F0833771F0833528
:1010B00009F055C020C0F801808189830E5F1F4F61
:1010C00088248394912C530112C02801F2E04F0E22
:1010D000511CF801A080B18036FE03C0692D70E07C
:1010E00002C06FEF7FEFC5014ED14C018201F32D9D
:1010F000FF773F2E15C0280122E0420E511CF80157
:10110000A080B18036FE03C0692D70E002C06FEF91
:101110007FEFC5012DD14C01F32DF0683F2E8201E8
:1011200033FC19C0822D90E088169906A0F4B60110
:1011300080E290E033D12A94F5CFF50137FC859118
:1011400037FE81915F01B60190E028D121102A94E9
:1011500021E0821A91088114910479F7E1C0843664
:1011600011F0893639F5F80137FE07C060817181C9
:10117000828193810C5F1F4F08C060817181072EAF
:10118000000C880B990B0E5F1F4FF32DFF763F2E3F
:1011900097FF09C090958095709561957F4F8F4F0F
:1011A0009F4FF0683F2E2AE030E0A30133D1882E14
:1011B000861844C0853731F4232D2F7EB22E2AE0C5
:1011C00030E025C0932D997FB92E8F36C1F018F4E9
:1011D000883579F0AEC0803719F0883721F0A9C082
:1011E000E92FE061BE2EB4FE0DC0FB2DF460BF2ED2
:1011F00009C034FE0AC0292F2660B22E06C028E09E
:1012000030E005C020E130E002C020E132E0F8012A
:10121000B7FE07C060817181828193810C5F1F4F8F
:1012200006C06081718180E090E00E5F1F4FA301D6
:10123000F1D0882E8618FB2DFF773F2E36FE0DC08D
:10124000232D2E7FA22E891458F434FE0BC032FCBD
:1012500009C0832D8E7EA82E05C0B82CA32C03C0F8
:10126000B82C01C0B92CA4FE0FC0FE01E80DF11D81
:101270008081803321F49A2D997EA92E09C0A2FE87
:1012800006C0B394B39404C08A2D867809F0B39451
:10129000A3FC10C0A0FE06C0B21480F4280C922C4F
:1012A0009B180DC0B21458F4B60180E290E076D0DD
:1012B000B394F8CFB21418F42B1802C0982C212C38
:1012C000A4FE0FC0B60180E390E068D0A2FE16C075
:1012D000A1FC03C088E790E002C088E590E0B60179
:1012E0000CC08A2D867851F0A1FE02C08BE201C0AD
:1012F00080E2A7FC8DE2B60190E050D0891430F472
:10130000B60180E390E04AD09A94F8CF8A94F30132
:10131000E80DF11D8081B60190E040D08110F6CF3C
:10132000222009F44ECEB60180E290E037D02A9414
:10133000F7CFF6018681978102C08FEF9FEF2B9642
:101340000FB6F894DEBF0FBECDBFDF91CF911F91D6
:101350000F91FF90EF90DF90CF90BF90AF909F9054
:101360008F907F906F905F904F903F902F90089557
:10137000FC010590615070400110D8F78095909560
:101380008E0F9F1F0895FC01615070400190011065
:10139000D8F7809590958E0F9F1F08950F931F93F8
:1013A000CF93DF93FB01238121FD03C08FEF9FEFDC
:1013B0002CC022FF16C046815781248135814217F7
:1013C000530744F4A081B1819D012F5F3F4F3183CA
:1013D00020838C93268137812F5F3F4F378326836D
:1013E00014C08B01EC01FB010084F185E02D09950F
:1013F000892BE1F6D80116968D919C91179701964D
:1014000017969C938E931697CE01DF91CF911F91E3
:101410000F910895FA01AA27283051F1203181F166
:10142000E8946F936E7F6E5F7F4F8F4F9F4FAF4FEC
:10143000B1E03ED0B4E03CD0670F781F891F9A1FFF
:10144000A11D680F791F8A1F911DA11D6A0F711DB3
:10145000811D911DA11D20D009F468943F912AE0BF
:10146000269F11243019305D3193DEF6CF010895A7
:10147000462F4770405D4193B3E00FD0C9F7F6CFD8
:10148000462F4F70405D4A3318F0495D31FD4052A0
:10149000419302D0A9F7EACFB4E0A6959795879536
:1014A00077956795BA95C9F7009761057105089515
:1014B0009B01AC010A2E06945795479537952795C1
:1014C000BA95C9F7620F731F841F951FA01D089559
:0414D000F894FFCFBE
:1014D4000000000200000000F10300000000EA0127
:1014E4009B05DF00E5013F065B4F666D7D277F6F3F
:1014F400806C6566742020203A20202535640A001B
:1015040063656E746572203A20202535640A007282
:0E1514006967687420203A20202535640A009B
:00000001FF
