S013000031315F4155544F5F4341522E73726563E2
S113000077C0000093C0000091C000008FC00000C2
S11300108DC000006BC50000B6C5000001C600001D
S113002085C0000083C0000081C000007FC00000C4
S11300307DC000007BC0000079C0000077C00000D4
S1130040E9C1000073C000007CC400006FC0000060
S11300506DC000006BC0000069C0000067C00000F4
S113006065C0000063C0000061C000005FC0000004
S11300705DC000005BC00000F6C4000057C0000073
S113008055C0000053C0000051C00000F601030237
S113009003020302F2010302030203020302030246
S11300A0FA0103020302030203020302FE01020235
S11300B00302030203020302030203020302030214
S11300C0030203020302030203020302F601030212
S11300D003020302F2010302030203020302030206
S11300E0FA0103020302030203020302FE010202F5
S11300F011241FBECFEFD0E1DEBFCDBF11E0A0E0E1
S1130100B1E0E2E4F7E100E00BBF02C007900D921A
S1130110A235B107D9F727E0A2E5B1E001C01D92ED
S1130120A13CB207E1F7DFD10C949F0B69CF8AB3EE
S11301308F7B8ABB089529B3422F50E021E030E041
S113014002C0220F331F6A95E2F7242335232115B9
S11301503105B9F0FC01EE5AFE4F4081411111C046
S11301602FEF3DEE42E0215030404040E1F700C027
S11301700000FC01EE5AFE4F21E0208380E090E075
S11301800895FC01EE5AFE4F4081413091F4232B37
S113019099F4FC01EE5AFE4F10828FEF9DEE22E09F
S11301A0815090402040E1F700C0000081E090E0E1
S11301B0089580E090E0089580E090E0089566E07E
S11301C070E080E090E0B7DF892B71F081E090E08F
S11301D02091560130915701232B11F080E090E0DB
S11301E09093570180935601809156019091570145
S11301F0892B39F0E5E6F0E0808188608083B5D210
S113020006C0E5E6F0E08081877F8083E6D183E065
S113021090E090935F0180935E0108958FEF84BB1B
S1130220E1E6F0E08081806F808315BA0895CF9372
S1130230DF93CDB7DEB72F970FB6F894DEBF0FBEAE
S1130240CDBFAC019FE0E6E1F1E0DE011196019043
S11302500D929A95E1F7209158013091590121307E
S1130260310531F11CF4232B51F08AC022303105C1
S113027009F43EC02330310509F473C081C08FE70F
S11302808093620060915A0170915B0180915C01DE
S113029090915D012AE030E040E050E051D7E1E088
S11302A0F0E0EC0FFD1FE60FF71F808185BB68C0EF
S11302B08FEB8093620060915A0170915B01809191
S11302C05C0190915D012AE030E040E050E038D7D5
S11302D0CA01B90126E030E040E050E031D7E1E066
S11302E0F0E0EC0FFD1FE60FF71F808185BB48C0CF
S11302F08FED8093620060915A0170915B0180914F
S11303005C0190915D0160FF17C02CE330E040E098
S113031050E016D7CA01B9012AE030E040E050E0CD
S11303200FD7E1E0F0E0EC0FFD1FE60FF71F90811F
S11303308B85892B85BB24C02CE330E040E050E062
S1130340FFD6CA01B9012AE030E040E050E0F8D617
S1130350E1E0F0E0EC0FFD1FE60FF71F808185BBA5
S11303600FC08FEE80936200DA01ED91FC913A9612
S113037081E090E08C0F9D1FE80FF91F808185BB01
S11303808091580190915901019683709078992336
S113039024F401978C6F9F6F019690935901809379
S11303A058012F960FB6F894DEBF0FBECDBFDF9174
S11303B0CF910895E4E6F0E0808188608083089519
S11303C010925F0110925E010895E091BA078E2F9A
S11303D090E0FC01E254F109E233F105A0F4EA5B98
S11303E0FF4FD0C684EF91E0C0D00DC084EF91E000
S11303F0CAD009C08CEB92E0D4D005C08CEB92E05B
S1130400DED001C0EAD081E090E090935F01809358
S11304105E0108951F920F920FB60F9211248F93CD
S11304209F93AF93BF9386E082BF80916C019091BC
S11304306D01A0916E01B0916F010196A11DB11DD6
S113044080936C0190936D01A0936E01B0936F0142
S11304508091680190916901A0916A01B0916B014A
S11304600196A11DB11D8093680190936901A09329
S11304706A01B0936B018091640190916501A09130
S11304806601B09167010196A11DB11D80936401BD
S113049090936501A0936601B09367018091600118
S11304A090916101A0916201B09163010196A11D37
S11304B0B11D8093600190936101A0936201B09398
S11304C06301BF91AF919F918F910F900FBE0F90D9
S11304D01F90189586E082BF83B7846083BF87B777
S11304E0816087BF089566DF99DE21DEF3DFA7D23E
S11304F0E8D216D026D0E1D380E091E09093BE07F5
S11305008093BD077894E0915E01F0915F01EE0F56
S1130510FF1FE25FFE4F0190F081E02D0995F3CFBC
S113052087B3806687BBE1E6F0E080818F608083DB
S1130530E2E6F0E08081807F808380818560808333
S113054008958EB583608EBD8FB582608FBD8EB5E4
S113055088618EBD8FB580688FBD8FB580628FBD79
S11305608FEF93E097BD86BD08959C01E2E6F0E02D
S11305709081907F90839081956090833BBD2ABD4C
S113058039BD28BD08959C01E2E6F0E09081907F9A
S1130590908390819A6090833BBD2ABD39BD28BD6C
S11305A008959C01E2E6F0E09081907F9083908131
S11305B0956090831BBC1ABC39BD28BD08959C016D
S11305C0E2E6F0E09081907F908390819560908343
S11305D03BBD2ABD19BC18BC0895E2E6F0E0808159
S11305E0807F808380818F6080831BBC1ABC19BC90
S11305F018BC08950F931F93CF93DF9300D000D0BE
S113060000D0CDB7DEB79E838D8301E010E09EC09D
S113061080916C0190916D01A0916E01B0916F0178
S1130620883E9340A105B105D8F010926C01109258
S11306306D0110926E0110926F0180915A01909198
S11306405B01A0915C01B0915D010197A109B10921
S113065080935A0190935B01A0935C01B0935D0178
S11306605CD380917401909175012091780130914F
S11306707901821B930B9C838B83809178019091E9
S113068079012091740130917501821B930B9A8337
S1130690898389819A81049744F082E090E09E8363
S11306A08D8380E991E07DDF3AC08B819C81049742
S11306B044F083E090E09E838D8380E991E07FDFC6
S11306C02EC08B819C81039724F489819A8103979E
S11306D024F18091780190917901079744F483E0A3
S11306E090E09E838D8380E991E04DDF18C0809176
S11306F0740190917501079744F482E090E09E8321
S11307008D8380E991E03FDF0AC081E090E09E8321
S11307108D8380E991E037DF02C000E010E0809132
S1130720680190916901A0916A01B0916B010297EF
S1130730A105B10558F01092680110926901109258
S11307406A0110926B01CE01059671DD0115110548
S113075009F05ECF26960FB6F894DEBF0FBECDBF6C
S1130760DF91CF911F910F910895CF93DF9300D024
S113077000D000D0CDB7DEB784E090E0A0E0B0E0D8
S113078080935A0190935B01A0935C01B0935D0147
S113079035C040916C0150916D0160916E01709172
S11307A06F01483E53406105710598F010926C0149
S11307B010926D0110926E0110926F010197A109C0
S11307C0B10980935A0190935B01A0935C01B093AB
S11307D05D018091680190916901A0916A01B091D5
S11307E06B010297A105B10548F0109268011092BF
S11307F0690110926A0110926B0119DD80915A010E
S113080090915B01A0915C01B0915D010097A105FD
S1130810B10509F0BECF88E790E0A0E0B0E0809396
S11308205A0190935B01A0935C01B0935D0173C086
S113083074D2809174019091750120917801309166
S11308407901821B930B9E838D8380917801909113
S113085079012091740130917501821B930B9C8363
S11308608B8380916C0190916D01A0916E01B09188
S11308706F01883E9340A105B105D8F010926C0138
S113088010926D0110926E0110926F0180915A01C5
S113089090915B01A0915C01B0915D010197A10968
S11308A0B10980935A0190935B01A0935C01B093CA
S11308B05D0180917601909177010A9794F080917F
S11308C078019091790107977CF08091740190915F
S11308D0750107974CF01A82198280E991E045DE90
S11308E003C0CE01019686DE809168019091690172
S11308F0A0916A01B0916B010297A105B10558F06E
S1130900109268011092690110926A0110926B01B1
S1130910CE0101968CDC80915A0190915B01A091EB
S11309205C01B0915D01892B8A2B8B2B09F080CF60
S113093026960FB6F894DEBF0FBECDBFDF91CF91E0
S113094008951F920F920FB60F9211240BB60F92B7
S11309502F933F934F935F936F937F938F939F93C3
S1130960AF93BF93EF93FF93CF93DF931F92CDB7D2
S1130970DEB78CB1898389818D3019F089818A3001
S113098061F5209172013091730180917001909111
S1130990710140E5429FF001439FF00D1124E65898
S11309A0FE4FE80FF91F108210927101109270012E
S11309B080917201909173010196909373018093D9
S11309C0720180917201909173016AE070E0A5D385
S11309D090937301809372011CC0609172017091B5
S11309E0730180917001909171019C012F5F3F4FC1
S11309F03093710120937001498150E5569F900115
S1130A00579F300D112426583E4FF901E80FF91F66
S1130A1040830F90DF91CF91FF91EF91BF91AF9100
S1130A209F918F917F916F915F914F913F912F9102
S1130A300F900BBE0F900FBE0F901F901895109241
S1130A4090008FEC89B98BB182608BB9E5E9F0E055
S1130A508081866080838AB188698AB908955D9BA4
S1130A60FECF8CB908951F920F920FB60F921124E6
S1130A700BB60F922F933F934F935F936F937F9394
S1130A808F939F93AF93BF93EF93FF9380919C00B9
S1130A908093BA078091BA0790E0E1DFFF91EF916C
S1130AA0BF91AF919F918F917F916F915F914F9182
S1130AB03F912F910F900BBE0F900FBE0F901F9080
S1130AC01895109298008FEC80939900EBE9F0E070
S1130AD0808182608083EDE9F0E08081866080839C
S1130AE0EAE9F0E080818869808308951F920F927B
S1130AF00FB60F9211240BB60F922F933F934F937F
S1130B005F936F937F938F939F93AF93BF93EF9371
S1130B10FF930C9B05C0109289001092880020C09E
S1130B20609188007091890080E090E005D220E017
S1130B3034E244E759E48ED220E030E040E854E463
S1130B4089D220E034E244E75BE45DD120E030E088
S1130B5048E652E458D1BFD170937901609378018B
S1130B60FF91EF91BF91AF919F918F917F916F9181
S1130B705F914F913F912F910F900BBE0F900FBE3D
S1130B800F901F9018951F920F920FB60F92112479
S1130B900BB60F922F933F934F935F936F937F9373
S1130BA08F939F93AF93BF93EF93FF930D9B05C0D8
S1130BB0109289001092880020C060918800709182
S1130BC0890080E090E0B8D120E034E244E759E4C1
S1130BD041D220E030E040E854E43CD220E034E26A
S1130BE044E75BE410D120E030E048E652E40BD166
S1130BF072D17093770160937601FF91EF91BF9169
S1130C00AF919F918F917F916F915F914F913F91A0
S1130C102F910F900BBE0F900FBE0F901F90189541
S1130C201F920F920FB60F9211240BB60F922F93AF
S1130C303F934F935F936F937F938F939F93AF9360
S1130C40BF93EF93FF930E9B05C0109289001092FF
S1130C50880020C0609188007091890080E090E055
S1130C606BD120E034E244E759E4F4D120E030E0F1
S1130C7040E854E4EFD120E034E244E75BE4C3D03D
S1130C8020E030E048E652E4BED025D170937501EF
S1130C9060937401FF91EF91BF91AF919F918F91F8
S1130CA07F916F915F914F913F912F910F900BBE68
S1130CB00F900FBE0F901F9018958AB381608ABB66
S1130CC082B18F7E82B98AB781608ABFEAE8F0E098
S1130CD080818560808389B7806189BF8AB382609F
S1130CE08ABB82B18F7D82B98AB784608ABF8081D2
S1130CF08560808389B7806289BF8AB384608ABB38
S1130D0082B18F7B82B98AB780618ABF8081856016
S1130D10808389B7806489BF08958091640190912C
S1130D206501A0916601B09167018697A105B1059F
S1130D30C0F1109264011092650110926601109244
S1130D4067018BB38E7F8BBB85E08A95F1F700003A
S1130D508BB381608BBB80E58A95F1F78BB38E7F73
S1130D608BBB8BB38D7F8BBB85E08A95F1F700003D
S1130D708BB382608BBB80E58A95F1F78BB38D7F53
S1130D808BBB8BB38B7F8BBB85E08A95F1F700001F
S1130D908BB384608BBB80E58A95F1F78BB38B7F33
S1130DA08BBB089580917801909179019F938F93E3
S1130DB085E291E09F938F9302D280917601909186
S1130DC077019F938F9384E391E09F938F93F7D15F
S1130DD080917401909175019F938F9383E491E0C6
S1130DE09F938F93ECD199DF82E090E090935F0121
S1130DF080935E018DB79EB70C960FB6F8949EBF94
S1130E000FBE8DBF08950CD0EBC0E3D040F0DAD014
S1130E1030F021F45F3F19F0CCC0511115C1CFC09F
S1130E20F0D098F39923C9F35523B1F3951B550BCF
S1130E30BB27AA2762177307840738F09F5F5F4FA9
S1130E40220F331F441FAA1FA9F333D00E2E3AF0EA
S1130E50E0E830D091505040E695001CCAF729D004
S1130E60FE2F27D0660F771F881FBB1F2617370753
S1130E704807AB07B0E809F0BB0B802DBF01FF2783
S1130E8093585F4F2AF09E3F510568F092C0DCC032
S1130E905F3FECF3983EDCF3869577956795B795BD
S1130EA0F7959F5FC9F7880F911D9695879597F9D8
S1130EB00895E1E0660F771F881FBB1F6217730751
S1130EC08407BA0720F0621B730B840BBA0BEE1F66
S1130ED088F7E095089504D06894B111B5C00895D9
S1130EE098D088F09F5790F0B92F9927B751A0F068
S1130EF0D1F0660F771F881F991F1AF0BA95C9F7AA
S1130F0012C0B13081F09FD0B1E008959CC0672F2A
S1130F10782F8827B85F39F0B93FCCF38695779559
S1130F206795B395D9F73EF4909580957095619542
S1130F307F4F8F4F9F4F0895E89409C097FB3EF46D
S1130F4090958095709561957F4F8F4F9F4F992312
S1130F50A9F0F92F96E9BB279395F6958795779590
S1130F606795B795F111F8CFFAF4BB0F11F460FF50
S1130F701BC06F5F7F4F8F4F9F4F16C0882311F0A8
S1130F8096E911C0772321F09EE8872F762F05C0BC
S1130F90662371F096E8862F70E060E02AF09A9557
S1130FA0660F771F881FDAF7880F9695879597F94C
S1130FB0089597F99F6780E870E060E008959FEFD7
S1130FC080EC089500240A941616170618060906DC
S1130FD0089500240A9412161306140605060895AB
S1130FE0092E0394000C11F4882352F0BB0F40F433
S1130FF0BF2B11F460FF04C06F5F7F4F8F4F9F4F73
S1131000089557FD9058440F551F59F05F3F71F0F4
S11310104795880F97FB991F61F09F3F79F087955B
S11310200895121613061406551FF2CF4695F1DFE4
S113103008C0161617061806991FF1CF8695710574
S1131040610508940895E894BB2766277727CB01A8
S113105097F908950BD0C4CFB5DF28F0BADF18F0A4
S1131060952309F0A6CFABCF1124EECFCADFA0F3AE
S1131070959FD1F3950F50E0551F629FF001729F29
S1131080BB27F00DB11D639FAA27F00DB11DAA1F48
S1131090649F6627B00DA11D661F829F2227B00D95
S11310A0A11D621F739FB00DA11D621F839FA00D20
S11310B0611D221F749F3327A00D611D231F849F70
S11310C0600D211D822F762F6A2F11249F575040C7
S11310D08AF0E1F088234AF0EE0FFF1FBB1F661F62
S11310E0771F881F91505040A9F79E3F510570F01B
S11310F060CFAACF5F3FECF3983EDCF386957795FB
S11311006795B795F795E7959F5FC1F7FE2B880F15
S1131110911D9695879597F9089597FB072E16F4D8
S1131120009406D077FD08D036D007FC05D03EF4F5
S1131130909581959F4F0895709561957F4F08957F
S1131140A1E21A2EAA1BBB1BFD010DC0AA1FBB1FC7
S1131150EE1FFF1FA217B307E407F50720F0A21B39
S1131160B30BE40BF50B661F771F881F991F1A94A6
S113117069F760957095809590959B01AC01BD01D0
S1131180CF010895EE0FFF1F0024001C0BBE079033
S1131190F691E02D0994AA1BBB1B51E107C0AA1FBD
S11311A0BB1FA617B70710F0A61BB70B881F991F04
S11311B05A95A9F780959095BC01CD010895CF93D8
S11311C0DF93CDB7DEB7AE014B5F5F4FFA0161919C
S11311D07191AF018091BD079091BE0703D0DF915B
S11311E0CF9108952F923F924F925F926F927F9288
S11311F08F929F92AF92BF92CF92DF92EF92FF9223
S11312000F931F93CF93DF93CDB7DEB72B970FB612
S1131210F894DEBF0FBECDBF6C017B018A01FC01D7
S113122017821682838181FFBFC1CE0101963C01E2
S1131230F6019381F70193FD859193FF81917F01DD
S1131240882309F4ADC1853239F493FD859193FF68
S113125081917F01853221F4B60190E0D6D1E8CFA7
S1131260912C212C312CFFE1F315D8F08B3279F03D
S113127038F4803279F08332A1F4232D20611DC02B
S11312808D3261F0803369F4232D216016C0832DE3
S11312908260382EE32DE4603E2E2AC0F32DF860E0
S11312A01DC037FC2DC020ED280F2A3040F08E32AF
S11312B0B9F436FC75C1232D2064322E19C036FED4
S11312C006C08AE0989E200D1124922E11C0EAE0F7
S11312D02E9E200D1124222EF32DF0623F2E08C0E5
S11312E08C3621F4832D8068382E02C0883641F470
S11312F0F70193FD859193FF81917F018111B3CF14
S1131300982F9F7D9554933028F40C5F1F4F9FE3D3
S113131099830DC0833631F0833771F0833509F03A
S113132055C020C0F801808189830E5F1F4F882437
S11313308394912C530112C02801F2E04F0E511CEA
S1131340F801A080B18036FE03C0692D70E002C0B0
S11313506FEF7FEFC5014ED14C018201F32DFF7772
S11313603F2E15C0280122E0420E511CF801A08036
S1131370B18036FE03C0692D70E002C06FEF7FEFCD
S1131380C5012DD14C01F32DF0683F2E820133FCB1
S113139019C0822D90E088169906A0F4B60180E267
S11313A090E033D12A94F5CFF50137FC859137FECF
S11313B081915F01B60190E028D121102A9421E0A7
S11313C0821A91088114910479F7E1C0843611F0EE
S11313D0893639F5F80137FE07C060817181828151
S11313E093810C5F1F4F08C060817181072E000C30
S11313F0880B990B0E5F1F4FF32DFF763F2E97FF3F
S113140009C090958095709561957F4F8F4F9F4F40
S1131410F0683F2E2AE030E0A30133D1882E8618ED
S113142044C0853731F4232D2F7EB22E2AE030E0DC
S113143025C0932D997FB92E8F36C1F018F48835C5
S113144079F0AEC0803719F0883721F0A9C0E92FB0
S1131450E061BE2EB4FE0DC0FB2DF460BF2E09C0AA
S113146034FE0AC0292F2660B22E06C028E030E0E0
S113147005C020E130E002C020E132E0F801B7FE0F
S113148007C060817181828193810C5F1F4F06C008
S11314906081718180E090E00E5F1F4FA301F1D065
S11314A0882E8618FB2DFF773F2E36FE0DC0232D88
S11314B02E7FA22E891458F434FE0BC032FC09C0CE
S11314C0832D8E7EA82E05C0B82CA32C03C0B82C67
S11314D001C0B92CA4FE0FC0FE01E80DF11D8081EE
S11314E0803321F49A2D997EA92E09C0A2FE06C04C
S11314F0B394B39404C08A2D867809F0B394A3FC02
S113150010C0A0FE06C0B21480F4280C922C9B18C4
S11315100DC0B21458F4B60180E290E076D0B394D2
S1131520F8CFB21418F42B1802C0982C212CA4FE66
S11315300FC0B60180E390E068D0A2FE16C0A1FC03
S113154003C088E790E002C088E590E0B6010CC0D3
S11315508A2D867851F0A1FE02C08BE201C080E2A0
S1131560A7FC8DE2B60190E050D0891430F4B601A6
S113157080E390E04AD09A94F8CF8A94F301E80D7E
S1131580F11D8081B60190E040D08110F6CF222079
S113159009F44ECEB60180E290E037D02A94F7CF1A
S11315A0F6018681978102C08FEF9FEF2B960FB6CD
S11315B0F894DEBF0FBECDBFDF91CF911F910F9185
S11315C0FF90EF90DF90CF90BF90AF909F908F905F
S11315D07F906F905F904F903F902F900895FC0103
S11315E00590615070400110D8F7809590958E0F4A
S11315F09F1F0895FC016150704001900110D8F7BD
S1131600809590958E0F9F1F08950F931F93CF93EE
S1131610DF93FB01238121FD03C08FEF9FEF2CC0DB
S113162022FF16C046815781248135814217530712
S113163044F4A081B1819D012F5F3F4F318320830A
S11316408C93268137812F5F3F4F3783268314C0C5
S11316508B01EC01FB010084F185E02D0995892BB8
S1131660E1F6D80116968D919C91179701961796DD
S11316709C938E931697CE01DF91CF911F910F917A
S11316800895FA01AA27283051F1203181F1E89414
S11316906F936E7F6E5F7F4F8F4F9F4FAF4FB1E061
S11316A03ED0B4E03CD0670F781F891F9A1FA11D5C
S11316B0680F791F8A1F911DA11D6A0F711D811D5D
S11316C0911DA11D20D009F468943F912AE0269F22
S11316D011243019305D3193DEF6CF010895462F81
S11316E04770405D4193B3E00FD0C9F7F6CF462F62
S11316F04F70405D4A3318F0495D31FD40524193CB
S113170002D0A9F7EACFB4E0A69597958795779587
S11317106795BA95C9F700976105710508959B010E
S1131720AC010A2E06945795479537952795BA9597
S1131730C9F7620F731F841F951FA01D0895F894A5
S1051740FFCFD5
S113174200000002000000002F0500000000E50177
S1131752D206DF00E0013F065B4F666D7D277F6F97
S1131762807D381F7C6C6566742020203A202025F9
S113177235640A0063656E746572203A202025354B
S1131782640A00726967687420203A20202535644F
S10517920A0047
S9030000FC
