:1000000045C0000060C000005EC000005CC0000091
:100010005AC0000058C0000056C0000054C0000084
:1000200052C0000050C000004EC000004CC0000094
:100030004AC0000048C0000046C0000044C00000A4
:10004000FCC1000040C000003EC000003CC00000F9
:100050003AC0000038C0000036C0000034C00000C4
:1000600032C0000030C000002EC000002CC00000D4
:100070002AC0000028C0000026C0000024C00000E4
:1000800022C0000020C000001EC0000011241FBEBE
:10009000CFEFD0E1DEBFCDBF11E0A0E0B1E0EEEAEE
:1000A000F4E000E00BBF02C007900D92AC30B10746
:1000B000D9F721E0ACE0B1E001C01D92A032B20757
:1000C000E1F7ECD1F2C19CCF80911C0190911D0110
:1000D000A0911E01B0911F0184369105A105B105C3
:1000E00070F110921C0110921D0110921E011092CD
:1000F0001F012091180130911901283031057CF041
:1001000010921901109218011BBA80911A01909156
:100110001B01019690931B0180931A010895C90158
:100120000196909319018093180181E090E002C03C
:10013000880F991F2A95E2F79BB3892B8BBB0895F3
:1001400080911C0190911D01A0911E01B0911F0191
:1001500084369105A105B10570F110921C01109231
:100160001D0110921E0110921F0120911601309165
:100170001701283031057CF01092170110921601FA
:100180001BBA80911A0190911B01019690931B015B
:1001900080931A010895C9010196909317018093E5
:1001A000160180E890E002C0959587952A95E2F7C0
:1001B0009BB3892B8BBB089580911C0190911D01ED
:1001C000A0911E01B0911F0184369105A105B105D2
:1001D00070F110921C0110921D0110921E011092DC
:1001E0001F018091140190911501883091057CF0D8
:1001F00010921501109214011BBA80911A0190916E
:100200001B01019690931B0180931A0108959C0194
:100210002F5F3F4F309315012093140121E030E010
:10022000A90102C0440F551F8A95E2F74BBB089500
:1002300080911C0190911D01A0911E01B0911F01A0
:1002400084369105A105B10570F110921C01109240
:100250001D0110921E0110921F01809112019091B8
:100260001301883091057CF0109213011092120155
:100270001BBA80911A0190911B01019690931B016A
:1002800080931A0108959C012F5F3F4F3093130113
:100290002093120120E830E0A90102C0559547954E
:1002A0008A95E2F74BBB089580911C0190911D0146
:1002B000A0911E01B0911F0184369105A105B105E1
:1002C000D8F110921C0110921D0110921E01109283
:1002D0001F0120910E0130910F01243031057CF077
:1002E00010920F0110920E011BBA80911A01909189
:1002F0001B01019690931B0180931A0108953BB353
:1003000080E190E0AC01022E02C0440F551F0A9418
:10031000E2F788E090E002C0959587952A95E2F78C
:10032000842B832B8BBB80910E0190910F01019642
:1003300090930F0180930E01089580911C0190917C
:100340001D01A0911E01B0911F0184369105A105E8
:10035000B105A8F110921C0110921D0110921E010E
:1003600010921F0140910C0150910D014430510534
:1003700054F010920D0110920C011BBA10921B0147
:1003800010921A01089520EF30E0042E02C0359536
:1003900027950A94E2F78FE090E002C0880F991F3A
:1003A0004A95E2F7207F8F70822B8BBB80910C01E6
:1003B00090910D01019690930D0180930C01089589
:1003C0008FEF8ABBE0911A01F0911B01EE0FFF1F26
:1003D000E050FF4F0190F081E02D0995F3CF8FEFB2
:1003E0008BBB08951BBA089580911C0190911D014B
:1003F000A0911E01B0911F01843F9140A105B1055C
:10040000D8F010921C0110921D0110921E01109242
:100410001F0181E090E02091100130911101232B08
:1004200011F080E090E09093110180931001892BEE
:1004300011F0D5CF0895D6CF08951F920F920FB621
:100440000F9211248F939F93AF93BF9386E082BF47
:1004500080911C0190911D01A0911E01B0911F017E
:100460000196A11DB11D80931C0190931D01A093C5
:100470001E01B0931F01BF91AF919F918F910F907B
:100480000FBE0F901F90189586E082BF83B78460DF
:1004900083BF87B7816087BF78940895F5DF8FEFBA
:0E04A0008ABB1BBA8DDFA0DFFECFF894FFCF22
:0C04AE00DC0018016400A00054019D0156
:00000001FF
