S01D000030365F4D595F554152545F554C545241534F4E49432E737265639E
S113000045C0000060C000005EC000005CC000008D
S11300105AC00000D3C1000056C0000054C0000004
S113002052C0000050C000004EC000004CC0000090
S11300304AC0000048C0000046C0000044C00000A0
S1130040C5C0000040C0000027C100003CC0000043
S11300503AC0000038C0000036C0000034C00000C0
S113006032C0000030C000002EC000002CC00000D0
S11300702AC0000028C0000026C0000024C00000E0
S113008022C0000020C000001EC0000011241FBEBA
S1130090CFEFD0E1DEBFCDBF11E0A0E0B1E0EAE3F5
S11300A0F9E000E00BBF02C007900D92AA31B1073E
S11300B0D9F724E0AAE1B1E001C01D92A435B2074A
S11300C0E1F7DAD038C49CCF8FEF84BB87B3806F5D
S11300D087BB15BA0895CF93DF93CDB7DEB72B97BF
S11300E00FB6F894DEBF0FBECDBFAC019BE0EEE0CF
S11300F0F1E0DE01119601900D929A95E1F72091BD
S11301001A0130911B012130310501F11CF4232B1C
S113011041F042C02230310551F123303105C1F1A3
S11301203BC08FE788BBFA01808191816AE370E06C
S1130130DBD3CB016AE070E0D7D3E1E0F0E0EC0F71
S1130140FD1FE80FF91F808185BB26C08FEB88BB9C
S1130150FA018081918164E472E0C6D3E1E0F0E0C9
S1130160EC0FFD1FE60FF71F808185BB15C08FEDD7
S113017088BBFA018081918168EA76E1B5D3E1E038
S1130180F0E0EC0FFD1FE60FF71F808185BB04C074
S11301908FEE88BB898185BB80911A0190911B01E8
S11301A0019683709078992324F401978C6F9F6F44
S11301B0019690931B0180931A012B960FB6F89425
S11301C0DEBF0FBECDBFDF91CF9108951F920F9276
S11301D00FB60F9211248F939F93AF93BF9386E032
S11301E082BF8091240190912501A0912601B091B4
S11301F027010196A11DB11D80932401909325012F
S1130200A0932601B09327018091200190912101B0
S1130210A0912201B09123010196A11DB11D8093EB
S1130220200190932101A0932201B0932301809196
S11302301C0190911D01A0911E01B0911F01019616
S1130240A11DB11D80931C0190931D01A0931E015B
S1130250B0931F01BF91AF919F918F910F900FBEEB
S11302600F901F90189586E082BF83B7846083BF88
S113027087B7816087BF089527DFF5DF8BD0E2D091
S113028080E091E090935104809350048FEF8ABBF7
S11302901BBA7894FCD0FECF1F920F920FB60F9228
S11302A011240BB60F922F933F934F935F936F9349
S11302B07F938F939F93AF93BF93EF93FF93CF93CA
S11302C0DF931F92CDB7DEB78CB1898389818D30DE
S11302D019F089818A3061F520912A0130912B012E
S11302E0809128019091290140E5429FF001439FAC
S11302F0F00D1124E25DFE4FE80FF91F10821092F9
S113030029011092280180912A0190912B010196D4
S113031090932B0180932A0180912A0190912B01C3
S11303206AE070E0E1D290932B0180932A011CC013
S113033060912A0170912B018091280190912901EB
S11303409C012F5F3F4F309329012093280149815D
S113035050E5569F9001579F300D1124225D3E4F6A
S1130360F901E80FF91F40830F90DF91CF91FF91BE
S1130370EF91BF91AF919F918F917F916F915F9119
S11303804F913F912F910F900BBE0F900FBE0F9086
S11303901F901895109290008FEC89B98BB18260F0
S11303A08BB9E5E9F0E08081866080838AB1886951
S11303B08AB908955D9BFECF8CB908951F920F9260
S11303C00FB60F9211240BB60F922F933F934F93B6
S11303D05F936F937F938F939F93AF93BF93EF93A9
S11303E0FF930C9B03C01DBC1CBC19C06CB57DB530
S11303F080E090E088D120E034E244E759E411D26F
S113040020E030E040E854E40CD220E034E244E759
S11304105BE4E0D047D170932D0160932C01FF91F0
S1130420EF91BF91AF919F918F917F916F915F9168
S11304304F913F912F910F900BBE0F900FBE0F90D5
S11304401F901895E4E6F0E080818061808382B19A
S11304508F7E82B98AB781608ABF8EB585608EBD72
S113046089B7806189BF0895E5E6F0E080818F7ED9
S1130470808385E08A95F1F7000080818061808324
S113048080E58A95F1F780818F7E8083089580913D
S11304901C0190911D01A0911E01B0911F010297B2
S11304A0A105B10508F495C010921C0110921D011C
S11304B010921E0110921F0180912C0190912D0128
S11304C0873C9F4F54F080912C0190912D018E3ADE
S11304D091051CF481E08BBB78C080912C01909134
S11304E02D018E3A910554F080912C0190912D01AB
S11304F0823291401CF483E08BBB67C080912C0155
S113050090912D018232914054F080912C01909170
S11305102D01863991401CF487E08BBB56C0809135
S11305202C0190912D018639914054F080912C0139
S113053090912D018A3092401CF48FE08BBB45C012
S113054080912C0190912D018A30924054F0809139
S11305502C0190912D018E3792401CF48FE18BBBBE
S113056034C080912C0190912D018E37924054F02B
S113057080912C0190912D01823F92401CF48FE3D5
S11305808BBB23C080912C0190912D01823F92401E
S113059054F080912C0190912D01863693401CF4E7
S11305A08FE78BBB12C080912C0190912D01863670
S11305B0934054F080912C0190912D018A3D9340F9
S11305C01CF48FEF8BBB01C01BBA8CE291E083DD7E
S11305D04BCF08950CD0EBC0E3D040F0DAD030F02C
S11305E021F45F3F19F0CCC0511115C1CFC0F0D038
S11305F098F39923C9F35523B1F3951B550BBB27E6
S1130600AA2762177307840738F09F5F5F4F220F92
S1130610331F441FAA1FA9F333D00E2E3AF0E0E88B
S113062030D091505040E695001CCAF729D0FE2FD7
S113063027D0660F771F881FBB1F26173707480769
S1130640AB07B0E809F0BB0B802DBF01FF2793581F
S11306505F4F2AF09E3F510568F092C0DCC05F3FB7
S1130660ECF3983EDCF3869577956795B795F79507
S11306709F5FC9F7880F911D9695879597F90895FF
S1130680E1E0660F771F881FBB1F6217730784079B
S1130690BA0720F0621B730B840BBA0BEE1F88F7AA
S11306A0E095089504D06894B111B5C0089598D028
S11306B088F09F5790F0B92F9927B751A0F0D1F047
S11306C0660F771F881F991F1AF0BA95C9F712C0D1
S11306D0B13081F09FD0B1E008959CC0672F782F8E
S11306E08827B85F39F0B93FCCF38695779567953D
S11306F0B395D9F73EF490958095709561957F4FA9
S11307008F4F9F4F0895E89409C097FB3EF490954E
S11307108095709561957F4F8F4F9F4F9923A9F0D6
S1130720F92F96E9BB279395F69587957795679565
S1130730B795F111F8CFFAF4BB0F11F460FF1BC0A9
S11307406F5F7F4F8F4F9F4F16C0882311F096E93C
S113075011C0772321F09EE8872F762F05C06623EA
S113076071F096E8862F70E060E02AF09A95660FA3
S1130770771F881FDAF7880F9695879597F908955C
S113078097F99F6780E870E060E008959FEF80EC40
S1130790089500240A9416161706180609060895E3
S11307A000240A9412161306140605060895092E49
S11307B00394000C11F4882352F0BB0F40F4BF2BB8
S11307C011F460FF04C06F5F7F4F8F4F9F4F0895F8
S11307D057FD9058440F551F59F05F3F71F04795EE
S11307E0880F97FB991F61F09F3F79F087950895D3
S11307F0121613061406551FF2CF4695F1DF08C0F2
S1130800161617061806991FF1CF8695710561050E
S113081008940895E894BB2766277727CB0197F9B6
S113082008950BD0C4CFB5DF28F0BADF18F09523B4
S113083009F0A6CFABCF1124EECFCADFA0F3959F6A
S1130840D1F3950F50E0551F629FF001729FBB27B3
S1130850F00DB11D639FAA27F00DB11DAA1F649F5F
S11308606627B00DA11D661F829F2227B00DA11D12
S1130870621F739FB00DA11D621F839FA00D611D98
S1130880221F749F3327A00D611D231F849F600DB9
S1130890211D822F762F6A2F11249F5750408AF0F2
S11308A0E1F088234AF0EE0FFF1FBB1F661F771F7E
S11308B0881F91505040A9F79E3F510570F060CFBA
S11308C0AACF5F3FECF3983EDCF386957795679566
S11308D0B795F795E7959F5FC1F7FE2B880F911D9C
S11308E09695879597F9089597FB072E16F400942B
S11308F006D077FD08D00BD007FC05D03EF49095C8
S113090081959F4F0895709561957F4F0895AA1B17
S1130910BB1B51E107C0AA1FBB1FA617B70710F0E6
S1130920A61BB70B881F991F5A95A9F78095909518
S10D0930BC01CD010895F894FFCF37
S113093A0000000200000000DA01000000003F0687
S10D094A5B4F666D7D277F6F800010
S9030000FC
