S01A000030395F57415348494E475F4D414348494E452E73726563DD
S113000045C0000061C000005FC000005DC000008A
S11300105BC00000EEC5000057C0000055C00000E2
S113002053C0000051C000004FC000004DC000008C
S11300304BC0000049C0000047C0000045C000009C
S11300404CC4000041C00000AEC400003DC000002C
S11300503BC0000039C0000037C0000035C00000BC
S113006033C0000031C000002FC000002DC00000CC
S11300702BC0000029C0000028C5000025C00000D6
S113008023C0000021C000001FC0000011241FBEB7
S1130090CFEFD0E1DEBFCDBF11E0A0E0B1E0EEE2F2
S11300A0F6E100E00BBF02C007900D92A434B10743
S11300B0D9F727E0A4E4B1E001C01D92AC3DB2073A
S11300C0E1F761D40C94150B9BCF81B38F7081BB86
S11300D0089520B3422F50E021E030E002C0220F07
S11300E0331F6A95E2F72423352321153105B9F02E
S11300F0FC01EC5BFE4F4081411111C02FEF3DEE3E
S113010042E0215030404040E1F700C00000FC01D3
S1130110EC5BFE4F21E0208380E090E00895FC0139
S1130120EC5BFE4F4081413091F4232B99F4FC01A8
S1130130EC5BFE4F10828FEF9DEE22E081509040E9
S11301402040E1F700C0000081E090E0089580E0E5
S113015090E0089580E090E0089582E090E0A0E0CF
S1130160B0E080934A0190934B01A0934C01B0936B
S11301704D01089583E090E0A0E0B0E080934A014F
S113018090934B01A0934C01B0934D01089584E0EA
S113019090E0A0E0B0E080934A0190934B01A093DB
S11301A04C01B0934D0108951BBA82EF92E0A0E098
S11301B0B0E080934A0190934B01A0934C01B0931B
S11301C04D01089508958091160190911701092E0B
S11301D0000CAA0BBB0B80934A0190934B01A09394
S11301E04C01B0934D018AE491E0DCC308958FEF94
S11301F084BB87B3806F87BB15BA0895CF93DF9311
S1130200CDB7DEB72B970FB6F894DEBF0FBECDBFC8
S11302108BE0EAE2F1E0DE01119601900D928A95FD
S1130220E1F780914801909149018130910519F1DC
S11302301CF4892B41F094C082309105D9F10397C5
S113024009F470C08DC08FE788BB60914A0170913A
S11302504B0180914C0190914D012AE030E040E047
S113026050E0D2D6E1E0F0E0EC0FFD1FE60FF71FFF
S1130270808185BB75C08FEB88BB60914A0170910A
S11302804B0180914C0190914D012AE030E040E017
S113029050E0BAD6CA01B90126E030E040E050E0AF
S11302A0B3D6E1E0F0E0EC0FFD1FE60FF71F80810D
S11302B085BB56C08FED88BB60914A0170914B019C
S11302C080914C0190914D0160FF17C02CE330E008
S11302D040E050E099D6CA01B9012AE030E040E09C
S11302E050E092D6E1E0F0E0EC0FFD1FE60FF71FBF
S11302F090818B85892B85BB33C02CE330E040E0B3
S113030050E082D6CA01B9012AE030E040E050E072
S11303107BD6E1E0F0E0EC0FFD1FE60FF71F8081D4
S113032085BB1EC08FEE88BB60914A0170914B0162
S113033080914C0190914D0128E532E040E050E07D
S113034063D6CA01B90126E030E040E050E05CD653
S1130350E1E0F0E0EC0FFD1FE60FF71F808185BBA5
S11303608091480190914901019683709078992376
S113037024F401978C6F9F6F0196909349018093A9
S113038048012B960FB6F894DEBF0FBECDBFDF91A8
S1130390CF9108958FEF8ABB2ADF97DEE12CF12CF1
S11303A000E010E0C0E0D0E064E070E080E090E0C5
S11303B090DE892B21F010921B0110921A0165E046
S11303C070E081E090E085DE892BB1F081E0209738
S11303D009F080E090E0CD2B41F421E030E030934F
S11303E01B0120931A01EC0107C024E030E0309394
S11303F01B0120931A01EC0166E070E082E090E0BA
S113040068DE892BB9F081E00115110509F080E05F
S113041090E0012B41F422E030E030931B01209363
S11304201A018C0107C024E030E030931B012093B3
S11304301A018C0167E070E083E090E04ADE892BCA
S1130440B9F081E0E114F10409F080E090E0EF28D4
S113045041F423E030E030931B0120931A017C0126
S113046007C024E030E030931B0120931A017C0183
S1130470E0911A01F0911B01EE0FFF1FE65FFE4FA2
S11304800190F081E02D09958091520190915301E2
S1130490A0915401B09155010297A105B10508F44A
S11304A083CF109252011092530110925401109272
S11304B05501A4DE79CF8FEF8BBB81E090E0A0E003
S11304C0B0E080934A0190934B01A0934C01B09308
S11304D04D0133C084E090E090931B0180931A0196
S11304E0089565E070E081E090E0F3DD892B21F070
S11304F010921901109218018091520190915301A8
S1130500A0915401B09155010297A105B10548F09D
S113051010925201109253011092540110925501FD
S11305206DDEE0911801F0911901EE0FFF1FE0500C
S1130530FF4F0190F081E02D099564E070E080E0C8
S113054090E0C7DD892B69F2C5CFCF93DF9387E0B5
S11305508BBB8EE190E0A0E0B0E080934A019093E1
S11305604B01A0934C01B0934D01C1E0D0E060C0B9
S113057066E070E082E090E0ACDD892B99F0809138
S11305804A0190914B01A0914C01B0914D01059706
S1130590A109B10980934A0190934B01A0934C01A6
S11305A0B0934D0167E070E083E090E092DD892B29
S11305B099F080914A0190914B01A0914C01B09126
S11305C04D010596A11DB11D80934A0190934B01E5
S11305D0A0934C01B0934D0165E070E081E090E0A0
S11305E078DD892B81F010924A0110924B01109210
S11305F04C0110924D0181E090E090931901809399
S11306001801C0E0D0E08091520190915301A09173
S11306105401B09155010297A105B10548F010921B
S11306205201109253011092540110925501E6DDCB
S1130630209709F09DCFDF91CF910895CF93DF9359
S113064083E08BBB85E090E0A0E0B0E080934A01BA
S113065090934B01A0934C01B0934D01C1E0D0E0C5
S113066079C066E070E082E090E033DD892B99F098
S113067080914A0190914B01A0914C01B0914D01A0
S11306800197A109B10980934A0190934B01A0936A
S11306904C01B0934D0167E070E083E090E019DD18
S11306A0892B99F080914A0190914B01A0914C01C2
S11306B0B0914D010196A11DB11D80934A01909303
S11306C04B01A0934C01B0934D0165E070E081E0D3
S11306D090E0FFDC892B49F180914A0190914B0114
S11306E09C01220F331F880F991F880F991F880FB1
S11306F0991F820F931F2091160130911701820FC9
S1130700931F909317018093160110924A0110923F
S11307104B0110924C0110924D0182E090E09093B5
S1130720190180931801C0E0D0E0809152019091AA
S11307305301A0915401B09155010297A105B1054F
S113074048F01092520110925301109254011092E9
S1130750550154DD209709F084CFDF91CF9108959E
S1130760CF93DF9381E08BBB83E090E0A0E0B0E027
S113077080934A0190934B01A0934C01B0934D0197
S1130780C1E0D0E0A4C066E070E082E090E0A1DCCB
S1130790892B99F080914A0190914B01A0914C01D1
S11307A0B0914D010197A109B10980934A01909339
S11307B04B01A0934C01B0934D0167E070E083E0DE
S11307C090E087DC892B99F080914A0190914B014C
S11307D0A0914C01B0914D010196A11DB11D8093D2
S11307E04A0190934B01A0934C01B0934D0165E0F5
S11307F070E081E090E06DDC892B09F453C08091B6
S11308004A0190914B01A0914C01B0914D0181306E
S11308109105A105B10539F486E490E090931501A2
S1130820809314012EC082309105A105B10539F4DD
S113083083E790E0909315018093140122C08330E4
S11308409105A105B10539F480EA90E09093150172
S11308508093140116C084309105A105B10539F4C3
S11308608DEC90E090931501809314010AC00597D4
S1130870A105B10531F48AEF90E0909315018093BE
S113088014011BBA10924A0110924B0110924C01B0
S113089010924D0183E090E0909319018093180128
S11308A0C0E0D0E08091520190915301A091540195
S11308B0B09155010297A105B10548F0109252017B
S11308C010925301109254011092550197DC209715
S11308D009F059CFDF91CF9108951F920F920FB66F
S11308E00F9211248F939F93AF93BF9386E082BF9F
S11308F08091560190915701A0915801B0915901EE
S11309000196A11DB11D8093560190935701A093A8
S11309105801B09359018091520190915301A091D3
S11309205401B09155010196A11DB11D809352014E
S113093090935301A0935401B093550180914E01BB
S113094090914F01A0915001B09151010196A11DC8
S1130950B11D80934E0190934F01A0935001B09329
S11309605101BF91AF919F918F910F900FBE0F9046
S11309701F90189586E082BF83B7846083BF87B7D2
S1130980816087BF0895F6DF8CD01ED18ED18CE1B3
S113099091E09093D9078093D8078FEF8ABB78941E
S11309A0F9DCFFCF08951F920F920FB60F92112416
S11309B00BB60F922F933F934F935F936F937F9355
S11309C08F939F93AF93BF93EF93FF93CF93DF9353
S11309D01F92CDB7DEB78CB1898389818D3019F030
S11309E089818A3061F520915C0130915D018091AB
S11309F05A0190915B0140E5429FF001439FF00D45
S1130A001124EC59FE4FE80FF91F108210925B017C
S1130A1010925A0180915C0190915D01019690932E
S1130A205D0180935C0180915C0190915D016AE0BD
S1130A3070E0D7D290935D0180935C011CC06091FB
S1130A405C0170915D0180915A0190915B019C0160
S1130A502F5F3F4F30935B0120935A01498150E54A
S1130A60569F9001579F300D11242C593E4FF90188
S1130A70E80FF91F40830F90DF91CF91FF91EF9121
S1130A80BF91AF919F918F917F916F915F914F91A2
S1130A903F912F910F900BBE0F900FBE0F901F90A0
S1130AA01895109290008FEC89B98BB182608BB944
S1130AB0E5E9F0E08081866080838AB188698AB93B
S1130AC008955D9BFECF8CB908951F920F920FB6C7
S1130AD00F9211240BB60F922F933F934F935F9372
S1130AE06F937F938F939F93AF93BF93EF93FF93F2
S1130AF0CF93DF931F92CDB7DEB780919C0089839B
S1130B0089818D3019F089818A3061F520916001E5
S1130B103091610180915E0190915F0140E5429FB7
S1130B20F001439FF00D1124EC57FB4FE80FF91F20
S1130B30108210925F0110925E0180916001909189
S1130B40610101969093610180936001809160013D
S1130B50909161016AE070E044D2909361018093C6
S1130B6060011CC0609160017091610180915E011F
S1130B7090915F019C012F5F3F4F30935F01209361
S1130B805E01498150E5569F9001579F300D112415
S1130B902C573B4FF901E80FF91F40830F90DF9169
S1130BA0CF91FF91EF91BF91AF919F918F917F91E1
S1130BB06F915F914F913F912F910F900BBE0F90CA
S1130BC00FBE0F901F901895109298008FEC809391
S1130BD09900EBE9F0E0808182608083EDE9F0E048
S1130BE0808186608083EAE9F0E08081886980837F
S1130BF008951F920F920FB60F9211240BB60F9205
S1130C002F933F934F935F936F937F938F939F9310
S1130C10AF93BF93EF93FF930C9B03C01DBC1CBC0D
S1130C2031C06CB57DB580E090E0EAD020E034E2DC
S1130C3044E759E473D120E030E040E854E46ED155
S1130C4020E034E244E75BE442D0A9D0709363012E
S1130C506093620180916201909163016AE370E0A4
S1130C60C0D17F936F9385E391E09F938F9384EA40
S1130C7097E09F938F93FED10F900F900F900F905A
S1130C800F900F90FF91EF91BF91AF919F918F9132
S1130C907F916F915F914F913F912F910F900BBE78
S1130CA00F900FBE0F901F901895E4E6F0E080813E
S1130CB08061808382B18F7E82B98AB781608ABF66
S1130CC08EB585608EBD89B7806189BF08950CD0CB
S1130CD0EBC0E3D040F0DAD030F021F45F3F19F0FC
S1130CE0CCC0511115C1CFC0F0D098F39923C9F3EA
S1130CF05523B1F3951B550BBB27AA27621773071E
S1130D00840738F09F5F5F4F220F331F441FAA1FD1
S1130D10A9F333D00E2E3AF0E0E830D09150504091
S1130D20E695001CCAF729D0FE2F27D0660F771F3F
S1130D30881FBB1F261737074807AB07B0E809F021
S1130D40BB0B802DBF01FF2793585F4F2AF09E3FB6
S1130D50510568F092C0DCC05F3FECF3983EDCF3D1
S1130D60869577956795B795F7959F5FC9F7880F2F
S1130D70911D9695879597F90895E1E0660F771F81
S1130D80881FBB1F621773078407BA0720F0621B12
S1130D90730B840BBA0BEE1F88F7E095089504D00B
S1130DA06894B111B5C0089598D088F09F5790F019
S1130DB0B92F9927B751A0F0D1F0660F771F881F7C
S1130DC0991F1AF0BA95C9F712C0B13081F09FD0BB
S1130DD0B1E008959CC0672F782F8827B85F39F059
S1130DE0B93FCCF3869577956795B395D9F73EF4DB
S1130DF090958095709561957F4F8F4F9F4F089583
S1130E00E89409C097FB3EF49095809570956195A0
S1130E107F4F8F4F9F4F9923A9F0F92F96E9BB2756
S1130E209395F695879577956795B795F111F8CFD2
S1130E30FAF4BB0F11F460FF1BC06F5F7F4F8F4F3D
S1130E409F4F16C0882311F096E911C0772321F033
S1130E509EE8872F762F05C0662371F096E8862FCB
S1130E6070E060E02AF09A95660F771F881FDAF722
S1130E70880F9695879597F9089597F99F6780E865
S1130E8070E060E008959FEF80EC089500240A94D8
S1130E901616170618060906089500240A94121651
S1130EA01306140605060895092E0394000C11F484
S1130EB0882352F0BB0F40F4BF2B11F460FF04C031
S1130EC06F5F7F4F8F4F9F4F089557FD9058440F8A
S1130ED0551F59F05F3F71F04795880F97FB991F95
S1130EE061F09F3F79F08795089512161306140652
S1130EF0551FF2CF4695F1DF08C0161617061806DF
S1130F00991FF1CF86957105610508940895E894B9
S1130F10BB2766277727CB0197F908950BD0C4CF59
S1130F20B5DF28F0BADF18F0952309F0A6CFABCFD0
S1130F301124EECFCADFA0F3959FD1F3950F50E0B3
S1130F40551F629FF001729FBB27F00DB11D639F77
S1130F50AA27F00DB11DAA1F649F6627B00DA11D1D
S1130F60661F829F2227B00DA11D621F739FB00DC3
S1130F70A11D621F839FA00D611D221F749F332733
S1130F80A00D611D231F849F600D211D822F762FCC
S1130F906A2F11249F5750408AF0E1F088234AF0C9
S1130FA0EE0FFF1FBB1F661F771F881F9150504015
S1130FB0A9F79E3F510570F060CFAACF5F3FECF3D5
S1130FC0983EDCF3869577956795B795F795E79501
S1130FD09F5FC1F7FE2B880F911D9695879597F912
S1130FE0089597FB072E16F4009406D077FD08D0D9
S1130FF02DD007FC05D03EF4909581959F4F089520
S1131000709561957F4F0895A1E21A2EAA1BBB1B10
S1131010FD010DC0AA1FBB1FEE1FFF1FA217B307C0
S1131020E407F50720F0A21BB30BE40BF50B661FD6
S1131030771F881F991F1A9469F76095709580959A
S113104090959B01AC01BD01CF010895AA1BBB1B68
S113105051E107C0AA1FBB1FA617B70710F0A61BB4
S1131060B70B881F991F5A95A9F780959095BC01D5
S1131070CD0108950F931F93CF93DF93CDB7DEB7C0
S11310802E970FB6F894DEBF0FBECDBF0D891E8913
S113109086E08C831A8309838FEF9FE79E838D8379
S11310A0AE01475E5F4F6F89788DCE01019610D0F7
S11310B0EF81F885E00FF11F10822E960FB6F89499
S11310C0DEBF0FBECDBFDF91CF911F910F91089569
S11310D02F923F924F925F926F927F928F929F9244
S11310E0AF92BF92CF92DF92EF92FF920F931F9332
S11310F0CF93DF93CDB7DEB72B970FB6F894DEBF4F
S11311000FBECDBF6C017B018A01FC0117821682E0
S1131110838181FFBFC1CE0101963C01F601938119
S1131120F70193FD859193FF81917F01882309F451
S1131130ADC1853239F493FD859193FF81917F018F
S1131140853221F4B60190E0D6D1E8CF912C212C40
S1131150312CFFE1F315D8F08B3279F038F480327A
S113116079F08332A1F4232D20611DC08D3261F00A
S1131170803369F4232D216016C0832D8260382EBC
S1131180E32DE4603E2E2AC0F32DF8601DC037FC29
S11311902DC020ED280F2A3040F08E32B9F436FCF1
S11311A075C1232D2064322E19C036FE06C08AE094
S11311B0989E200D1124922E11C0EAE02E9E200D3F
S11311C01124222EF32DF0623F2E08C08C3621F418
S11311D0832D8068382E02C0883641F4F70193FDD0
S11311E0859193FF81917F018111B3CF982F9F7DCA
S11311F09554933028F40C5F1F4F9FE399830DC0DF
S1131200833631F0833771F0833509F055C020C03F
S1131210F801808189830E5F1F4F88248394912C69
S1131220530112C02801F2E04F0E511CF801A080B6
S1131230B18036FE03C0692D70E002C06FEF7FEF0E
S1131240C5014ED14C018201F32DFF773F2E15C00D
S1131250280122E0420E511CF801A080B18036FE24
S113126003C0692D70E002C06FEF7FEFC5012DD17F
S11312704C01F32DF0683F2E820133FC19C0822DFE
S113128090E088169906A0F4B60180E290E033D18C
S11312902A94F5CFF50137FC859137FE81915F01E2
S11312A0B60190E028D121102A9421E0821A9108F5
S11312B08114910479F7E1C0843611F0893639F547
S11312C0F80137FE07C060817181828193810C5FD0
S11312D01F4F08C060817181072E000C880B990B89
S11312E00E5F1F4FF32DFF763F2E97FF09C0909599
S11312F08095709561957F4F8F4F9F4FF0683F2E7B
S11313002AE030E0A30133D1882E861844C0853703
S113131031F4232D2F7EB22E2AE030E025C0932D08
S1131320997FB92E8F36C1F018F4883579F0AEC0A4
S1131330803719F0883721F0A9C0E92FE061BE2E6B
S1131340B4FE0DC0FB2DF460BF2E09C034FE0AC0EC
S1131350292F2660B22E06C028E030E005C020E127
S113136030E002C020E132E0F801B7FE07C060813E
S11313707181828193810C5F1F4F06C060817181EE
S113138080E090E00E5F1F4FA301F1D0882E8618F5
S1131390FB2DFF773F2E36FE0DC0232D2E7FA22E70
S11313A0891458F434FE0BC032FC09C0832D8E7EA0
S11313B0A82E05C0B82CA32C03C0B82C01C0B92C8E
S11313C0A4FE0FC0FE01E80DF11D8081803321F4DD
S11313D09A2D997EA92E09C0A2FE06C0B394B39497
S11313E004C08A2D867809F0B394A3FC10C0A0FE33
S11313F006C0B21480F4280C922C9B180DC0B214B1
S113140058F4B60180E290E076D0B394F8CFB214E9
S113141018F42B1802C0982C212CA4FE0FC0B6017E
S113142080E390E068D0A2FE16C0A1FC03C088E768
S113143090E002C088E590E0B6010CC08A2D867861
S113144051F0A1FE02C08BE201C080E2A7FC8DE254
S1131450B60190E050D0891430F4B60180E390E0F6
S11314604AD09A94F8CF8A94F301E80DF11D808153
S1131470B60190E040D08110F6CF222009F44ECE80
S1131480B60180E290E037D02A94F7CFF601868146
S1131490978102C08FEF9FEF2B960FB6F894DEBFB3
S11314A00FBECDBFDF91CF911F910F91FF90EF90B1
S11314B0DF90CF90BF90AF909F908F907F906F9070
S11314C05F904F903F902F900895FC0105906150DC
S11314D070400110D8F7809590958E0F9F1F089546
S11314E0FC016150704001900110D8F780959095EF
S11314F08E0F9F1F08950F931F93CF93DF93FB01CC
S1131500238121FD03C08FEF9FEF2CC022FF16C063
S113151046815781248135814217530744F4A081C1
S1131520B1819D012F5F3F4F318320838C932681AE
S113153037812F5F3F4F3783268314C08B01EC0123
S1131540FB010084F185E02D0995892BE1F6D80192
S113155016968D919C911797019617969C938E934E
S11315601697CE01DF91CF911F910F910895FA0143
S1131570AA27283051F1203181F1E8946F936E7FCE
S11315806E5F7F4F8F4F9F4FAF4FB1E03ED0B4E0BF
S11315903CD0670F781F891F9A1FA11D680F791F00
S11315A08A1F911DA11D6A0F711D811D911DA11D11
S11315B020D009F468943F912AE0269F1124301921
S11315C0305D3193DEF6CF010895462F4770405DBC
S11315D04193B3E00FD0C9F7F6CF462F4F70405D6B
S11315E04A3318F0495D31FD4052419302D0A9F7C6
S11315F0EACFB4E0A6959795879577956795BA95C0
S1131600C9F700976105710508959B01AC010A2E85
S113161006945795479537952795BA95C9F7620F5C
S1111620731F841F951FA01D0895F894FFCF1B
S113162EA5021E03B003E300E2005B02AD00BA00A4
S113163EC700D400A0005A000400040000000002F9
S113164E000000006105000000003F065B4F666D60
S113165E7D277F6F80646973203A202564636D0A49
S107166E00257300DC
S9030000FC
