:1000000045C0000061C000005FC000005DC000008E
:100010005BC000000C94050957C0000055C00000EB
:1000200053C0000051C000004FC000004DC0000090
:100030004BC0000049C0000047C0000045C00000A0
:10004000D2C6000041C00000BAC700003DC0000099
:100050003BC0000039C0000037C0000035C00000C0
:1000600033C0000031C000002FC000002DC00000D0
:100070002BC0000029C000000C94710825C00000AE
:1000800023C0000021C000001FC0000011241FBEBB
:10009000CFEFD0E1DEBFCDBF11E0A0E0B1E0E6E4FC
:1000A000FCE100E00BBF02C007900D92A436B1073F
:1000B000D9F728E0A4E6B1E001C01D92A430B20750
:1000C000E1F7FAD60C94210E9BCF81B38F7081BBE0
:1000D000089520B3422F50E021E030E002C0220F0B
:1000E000331F6A95E2F72423352321153105B9F032
:1000F000FC01EC59FE4F4081411111C02FEF3DEE44
:1001000042E0215030404040E1F700C00000FC01D7
:10011000EC59FE4F21E0208380E090E00895FC013F
:10012000EC59FE4F4081413091F4232B99F4FC01AE
:10013000EC59FE4F10828FEF9DEE22E081509040EF
:100140002040E1F700C0000081E090E0089580E0E9
:1001500090E0089580E090E008951BBA85E090E07B
:100160009093190180931801089508958FEF84BB2F
:1001700087B3806F87BB15BA0895CF93DF93CDB750
:10018000DEB72B970FB6F894DEBF0FBECDBF8BE066
:10019000E4E3F1E0DE01119601900D928A95E1F71A
:1001A00080916A0190916B018130910521F11CF4DD
:1001B000892B41F084C082309105F1F1039709F455
:1001C0005EC07DC08FE788BB60916E0170916F014A
:1001D00080917001909171012AE030E040E050E0A0
:1001E0000E94100BE1E0F0E0EC0FFD1FE60FF71F9F
:1001F000808185BB64C08FEB88BB60916E0170917C
:100200006F0180917001909171012AE030E040E02F
:1002100050E00E94100BCA01B90126E030E040E036
:1002200050E00E94100BE1E0F0E0EC0FFD1FE60F44
:10023000F71F808185BB43C08FED88BB60916E0145
:1002400070916F0180917001909171012CE330E009
:1002500040E050E00E94100BCA01B9012AE030E0F2
:1002600040E050E00E94100BE1E0F0E0EC0FFD1FD9
:10027000E60FF71F90818B85892B85BB20C08FEE01
:1002800088BB60916E0170916F01809170019091B7
:10029000710128E532E040E050E00E94100BCA01F5
:1002A000B90126E030E040E050E00E94100BE1E0B0
:1002B000F0E0EC0FFD1FE60FF71F808185BB8091FA
:1002C0006A0190916B01019683709078992324F4D0
:1002D00001978C6F9F6F019690936B0180936A01D9
:1002E0002B960FB6F894DEBF0FBECDBFDF91CF9136
:1002F000089581E090E0A0E0B0E080936E019093DB
:100300006F01A0937001B093710133C084E090E05D
:1003100090931F0180931E01089565E070E081E0D5
:1003200090E0D7DE892B21F010921D0110921C0164
:1003300080917A0190917B01A0917C01B0917D0127
:100340000297A105B10548F010927A0110927B0145
:1003500010927C0110927D0110DFE0911C01F09160
:100360001D01EE0FFF1FE050FF4F0190F081E02DC7
:10037000099564E070E080E090E0ABDE892B69F2E3
:10038000C5CF82E090E0A0E0B0E080936E01909352
:100390006F01A0937001B093710165E070E081E09E
:1003A00090E097DE892B39F084E090E090931F0174
:1003B00080931E01089580917A0190917B01A09114
:1003C0007C01B0917D010297A105B10530F3109237
:1003D0007A0110927B0110927C0110927D01CDDE9A
:1003E000DCCF83E090E0A0E0B0E080936E019093DA
:1003F0006F01A0937001B093710166E070E082E03C
:1004000090E067DE892B39F084E090E090931F0143
:1004100080931E01089580917A0190917B01A091B3
:100420007C01B0917D010297A105B10530F31092D6
:100430007A0110927B0110927C0110927D019DDE69
:10044000DCCF84E090E0A0E0B0E080936E01909378
:100450006F01A0937001B093710167E070E083E0D9
:1004600090E037DE892B39F084E090E090931F0113
:1004700080931E01089580917A0190917B01A09153
:100480007C01B0917D010297A105B10530F3109276
:100490007A0110927B0110927C0110927D016DDE39
:1004A000DCCFCF93DF9387E08BBB8EE190E0A0E0C1
:1004B000B0E080936E0190936F01A0937001B093B0
:1004C0007101C1E0D0E066C066E070E082E090E0DB
:1004D00000DE892B99F080916E0190916F01A091BF
:1004E0007001B09171010597A109B10980936E0166
:1004F00090936F01A0937001B093710167E070E079
:1005000083E090E0E6DD892B99F080916E01909177
:100510006F01A0917001B09171010596A11DB11DEF
:1005200080936E0190936F01A0937001B09371015D
:1005300065E070E081E090E0CCDD892B81F01092E5
:100540006E0110926F01109270011092710181E0A2
:1005500090E090931D0180931C01C0E0D0E0809159
:100560007A0190917B01A0917C01B0917D0102976D
:10057000A105B10548F010927A0110927B0110920A
:100580007C0110927D01F9DD80911C0190911D018B
:10059000059719F0209709F097CFDF91CF91089533
:1005A000CF93DF9383E08BBB82E090E0A0E0B0E0EC
:1005B00080936E0190936F01A0937001B0937101CD
:1005C000C1E0D0E079C066E070E082E090E081DDDB
:1005D000892B99F080916E0190916F01A09170012B
:1005E000B09171010197A109B10980936E019093B7
:1005F0006F01A0937001B093710167E070E083E038
:1006000090E067DD892B99F080916E0190916F01E8
:10061000A0917001B09171010196A11DB11D80934F
:100620006E0190936F01A0937001B093710165E02A
:1006300070E081E090E04DDD892B49F180916E0101
:1006400090916F019C01220F331F880F991F880F13
:10065000991F880F991F820F931F20911A013091C3
:100660001B01820F931F90931B0180931A0110921C
:100670006E0110926F01109270011092710182E070
:1006800090E090931D0180931C01C0E0D0E0809128
:100690007A0190917B01A0917C01B0917D0102973C
:1006A000A105B10548F010927A0110927B011092D9
:1006B0007C0110927D0161DD209709F084CFDF91EC
:1006C000CF910895CF93DF9381E08BBB83E090E0DF
:1006D000A0E0B0E080936E0190936F01A093700151
:1006E000B0937101C1E0D0E098C066E070E082E0B4
:1006F00090E0EFDC892B99F080916E0190916F0171
:10070000A0917001B09171010197A109B109809385
:100710006E0190936F01A0937001B093710167E037
:1007200070E083E090E0D5DC892B99F080916E0138
:1007300090916F01A0917001B09171010196A11D7E
:10074000B11D80936E0190936F01A0937001B093DF
:10075000710165E070E081E090E0BBDC892B09F479
:1007600047C080916E0190916F01A0917001B0918E
:10077000710181309105A105B10539F488E790E058
:1007800090936D0180936C0122C082309105A10588
:10079000B10539F480EA90E090936D0180936C018B
:1007A00016C083309105A105B10539F48DEC90E0B8
:1007B00090936D0180936C010AC00497A105B10567
:1007C00031F48AEF90E090936D0180936C011BBA35
:1007D00083E090E090931D0180931C0110926E01C4
:1007E00010926F011092700110927101C0E0D0E080
:1007F00080917A0190917B01A0917C01B0917D0163
:100800000297A105B10548F010927A0110927B0180
:1008100010927C0110927D01B0DC209709F065CF29
:10082000DF91CF910895EF92FF920F931F93CF9393
:10083000DF93CDB7DEB766970FB6F894DEBF0FBE75
:10084000CDBF9C0196E1EFE3F1E0DE01119601904E
:100850000D929A95E1F7D9018D919C910097D1F075
:100860008130910519F18230910561F10497B1F160
:10087000DB01ED91FC91CF0101962DE030E0B90153
:10088000BCD68C010196B901B8D67C010196B9019C
:10089000B4D62FC0EDE0F0E001E110E00F2EF2E160
:1008A000EF2EF12CF02D80E190E023C0EFE0F0E09E
:1008B00002E110E00F2EF1E1EF2EF12CF02D8EE091
:1008C00090E017C0E1E1F0E003E110E00F2EF3E16A
:1008D000EF2EF12CF02D82E190E00BC0E6E0F0E08D
:1008E00001E010E00F2EF5E1EF2EF12CF02D89E064
:1008F00090E0209168013091690121303105B1F01B
:100900001CF4232B41F032C022303105D1F02330CA
:10091000310511F12BC02FE728BBE1E0F0E0EC0F2F
:10092000FD1FE80FF91F808185BB20C08FEB88BBBE
:10093000E1E0F0E0EC0FFD1FEE0DFF1D808185BBB7
:1009400015C08FED88BBE1E0F0E0EC0FFD1FE00F7C
:10095000F11F808185BB0AC08FEE88BB81E090E0EB
:100960008C0F9D1FE80FF91F808185BB8091680166
:1009700090916901019683709078992324F40197EE
:100980008C6F9F6F019690936901809368016696C2
:100990000FB6F894DEBF0FBECDBFDF91CF911F9190
:1009A0000F91FF90EF900895CF93DF9300D0CDB7D4
:1009B000DEB78FEF8ABBDADB88DB1A82198264E04C
:1009C00070E080E090E085DB892B21F010921F0120
:1009D00010921E0165E070E081E090E07ADB892BE7
:1009E00031F081E090E090931F0180931E0166E05A
:1009F00070E082E090E06DDB892B31F082E090E0E6
:100A000090931F0180931E0167E070E083E090E007
:100A100060DB892B31F083E090E090931F0180939D
:100A20001E01E0911E01F0911F01EE0FFF1FE45F18
:100A3000FE4F0190F081E02D099580917A0190910F
:100A40007B01A0917C01B0917D010297A105B105C8
:100A500070F010927A0110927B0110927C0110923A
:100A60007D01BE016F5F7F4F8AE090E0DCDE809108
:100A70007E0190917F01A0918001B0918101803928
:100A80009140A105B10508F49ACF10927E01109211
:100A90007F01109280011092810189819A810196D3
:100AA0006DE070E0AAD59A83898389CF0F931F9355
:100AB000CF93DF9300D0CDB7DEB780911A0190912C
:100AC0001B01092E000CAA0BBB0B80936E019093A7
:100AD0006F01A0937001B0937101CAC08CE691E0E0
:100AE0001ED280917E0190917F01A0918001B091F2
:100AF00081018A3F9105A105B10538F110927E016F
:100B000010927F01109280011092810180916E01FC
:100B100090916F01A0917001B09171010197A109AD
:100B2000B10980936E0190936F01A0937001B0930F
:100B300071018091180190911901019663E070E0B4
:100B40005CD5909319018093180180917201909166
:100B50007301A0917401B0917501883B9B40A10580
:100B6000B105B0F0109272011092730110927401ED
:100B70001092750181E090E02091160130911701EB
:100B8000232B11F080E090E09093170180931601E1
:100B900040916E0150916F016091700170917101EF
:100BA00080911A0190911B01092E000CAA0BBB0B1E
:100BB000841B950BA60BB70B8F319105A105B105D1
:100BC00028F48FEF90E09A8389832EC08C019D01D9
:100BD0000F511109210931090E3111052105310586
:100BE00028F48EE790E09A8389831EC0CD97A105F3
:100BF000B10550F04E3151056105710528F08CE3C7
:100C000090E09A83898310C04E31510561057105CA
:100C100028F488E190E09A83898306C0452B462B0F
:100C2000472B11F41A82198280917A0190917B01ED
:100C3000A0917C01B0917D010297A105B105C0F0A2
:100C400010927A0110927B0110927C0110927D012A
:100C5000CE0101969ED08091160190911701892BAB
:100C600011F08BDA05C06AE070E088E191E0DBDD2D
:100C700080916E0190916F01A0917001B09171010E
:100C8000892B8A2B8B2B09F029CF1092830010928D
:100C9000820084E090E090931D0180931C011092EB
:100CA0006E0110926F0110927001109271010F90FD
:100CB0000F90DF91CF911F910F910895CF93DF9304
:100CC0001BBA84E090E09093190180931801C1E071
:100CD000D0E047C064E070E080E090E0FAD9892B72
:100CE000A9F465E070E081E090E0F3D9892B71F41C
:100CF00066E070E082E090E0ECD9892B39F467E09F
:100D000070E083E090E0E5D9892B91F084E090E0F9
:100D100090931F0180931E0181E0CD2B09F080E0AC
:100D2000C82FD0E085E090E090931D0180931C01D6
:100D300080917A0190917B01A0917C01B0917D011D
:100D40000297A105B10568F010927A0110927B011B
:100D500010927C0110927D016AE070E088E191E0E0
:100D600062DD209709F0B6CFDF91CF91089520E0A2
:100D700030E00AC0821793070CF41BBA4AE64A9582
:100D8000F1F700C02F5F3F4F2F3F310599F394F3E8
:100D900008952FEF2ABBFC0180818BBB809122013B
:100DA00090912301E4DF2091220130912301809171
:100DB000200190912101820F931F90932301809332
:100DC00022018F3F910531F42FEF3FEF3093210146
:100DD00020932001892B31F481E090E09093210150
:100DE0008093200108951F920F920FB60F92112445
:100DF0008F939F93AF93BF9386E082BF80917E01D4
:100E000090917F01A0918001B09181010196A11D77
:100E1000B11D80937E0190937F01A0938001B093D8
:100E2000810180917A0190917B01A0917C01B09128
:100E30007D010196A11DB11D80937A0190937B01E4
:100E4000A0937C01B0937D01809176019091770110
:100E5000A0917801B09179010196A11DB11D8093F7
:100E6000760190937701A0937801B09379018091F6
:100E7000720190917301A0917401B0917501019676
:100E8000A11DB11D8093720190937301A093740111
:100E9000B0937501BF91AF919F918F910F900FBE4D
:100EA0000F901F90189586E082BF83B7846083BF40
:100EB00087B7816087BF0895F6DFFFD091D101D257
:100EC00004D90CD023D084E291E090930108809360
:100ED00000088FEF8ABB789467DDFFCF82B188620C
:100EE00082B9ABE8B0E08C9181608C93EAE8F0E0E5
:100EF0008081886080838C9188608C9380818360FE
:100F0000808310928300109282000895E2E6F0E060
:100F100080818F7380838081806480830895FC0149
:100F200080819181909383008093820080917601EB
:100F300090917701A0917801B0917901883893411F
:100F4000A105B105D8F0E2E6F0E080818F738083DF
:100F500081E090E02091320130913301232B11F098
:100F600080E090E0909333018093320110927601FB
:100F700010927701109278011092790180913201DC
:100F8000909133018130910531F4E2E6F0E0808107
:100F90008064808307C0892B29F4E2E6F0E0808139
:100FA0008068808364E070E080E090E092D8892BD4
:100FB00029F0E2E6F0E08081806C808308951F9242
:100FC0000F920FB60F9211240BB60F922F933F93EF
:100FD0004F935F936F937F938F939F93AF93BF9341
:100FE000EF93FF93CF93DF931F92CDB7DEB78CB112
:100FF000898389818D3019F089818A3061F520914A
:10100000840130918501809182019091830140E5B6
:10101000429FF001439FF00D1124E457FE4FE80F6B
:10102000F91F108210928301109282018091840135
:101030009091850101969093850180938401809120
:101040008401909185016AE070E0D7D29093850188
:10105000809384011CC0609184017091850180910E
:101060008201909183019C012F5F3F4F3093830158
:1010700020938201498150E5569F9001579F300D82
:10108000112424573E4FF901E80FF91F40830F90B8
:10109000DF91CF91FF91EF91BF91AF919F918F9190
:1010A0007F916F915F914F913F912F910F900BBE68
:1010B0000F900FBE0F901F901895109290008FEC1C
:1010C00089B98BB182608BB9E5E9F0E080818660F7
:1010D00080838AB188698AB908955D9BFECF8CB9F7
:1010E00008951F920F920FB60F9211240BB60F9214
:1010F0002F933F934F935F936F937F938F939F9320
:10110000AF93BF93EF93FF93CF93DF931F92CDB72E
:10111000DEB780919C00898389818D3019F08981A7
:101120008A3061F520918801309189018091860192
:101130009091870140E5429FF001439FF00D1124FB
:10114000E455FB4FE80FF91F1082109287011092AF
:10115000860180918801909189010196909389017F
:101160008093880180918801909189016AE070E004
:1011700044D290938901809388011CC060918801BA
:101180007091890180918601909187019C012F5F68
:101190003F4F3093870120938601498150E5569F48
:1011A0009001579F300D112424553B4FF901E80F52
:1011B000F91F40830F90DF91CF91FF91EF91BF9185
:1011C000AF919F918F917F916F915F914F913F91DF
:1011D0002F910F900BBE0F900FBE0F901F90189580
:1011E000109298008FEC80939900EBE9F0E08081F9
:1011F00082608083EDE9F0E0808186608083EAE9A7
:10120000F0E080818869808308951F920F920FB665
:101210000F9211240BB60F922F933F934F935F932E
:101220006F937F938F939F93AF93BF93EF93FF93AE
:101230000C9B03C01DBC1CBC31C06CB57DB580E0EF
:1012400090E0EAD020E034E244E759E473D120E0B2
:1012500030E040E854E46ED120E034E244E75BE45F
:1012600042D0A9D070938B0160938A0180918A014A
:1012700090918B016AE370E0C0D17F936F9385E515
:1012800091E09F938F938CEC97E09F938F93FED187
:101290000F900F900F900F900F900F90FF91EF9184
:1012A000BF91AF919F918F917F916F915F914F917E
:1012B0003F912F910F900BBE0F900FBE0F901F907C
:1012C0001895E4E6F0E080818061808382B18F7EB2
:1012D00082B98AB781608ABF8EB585608EBD89B7B5
:1012E000806189BF08950CD0EBC0E3D040F0DAD024
:1012F00030F021F45F3F19F0CCC0511115C1CFC0BF
:10130000F0D098F39923C9F35523B1F3951B550BEE
:10131000BB27AA2762177307840738F09F5F5F4FC8
:10132000220F331F441FAA1FA9F333D00E2E3AF009
:10133000E0E830D091505040E695001CCAF729D023
:10134000FE2F27D0660F771F881FBB1F2617370772
:101350004807AB07B0E809F0BB0B802DBF01FF27A2
:1013600093585F4F2AF09E3F510568F092C0DCC051
:101370005F3FECF3983EDCF3869577956795B795DC
:10138000F7959F5FC9F7880F911D9695879597F9F7
:101390000895E1E0660F771F881FBB1F6217730770
:1013A0008407BA0720F0621B730B840BBA0BEE1F85
:1013B00088F7E095089504D06894B111B5C00895F8
:1013C00098D088F09F5790F0B92F9927B751A0F087
:1013D000D1F0660F771F881F991F1AF0BA95C9F7C9
:1013E00012C0B13081F09FD0B1E008959CC0672F4A
:1013F000782F8827B85F39F0B93FCCF38695779579
:101400006795B395D9F73EF4909580957095619561
:101410007F4F8F4F9F4F0895E89409C097FB3EF48C
:1014200090958095709561957F4F8F4F9F4F992331
:10143000A9F0F92F96E9BB279395F69587957795AF
:101440006795B795F111F8CFFAF4BB0F11F460FF6F
:101450001BC06F5F7F4F8F4F9F4F16C0882311F0C7
:1014600096E911C0772321F09EE8872F762F05C0DB
:10147000662371F096E8862F70E060E02AF09A9576
:10148000660F771F881FDAF7880F9695879597F96B
:10149000089597F99F6780E870E060E008959FEFF6
:1014A00080EC089500240A941616170618060906FB
:1014B000089500240A9412161306140605060895CA
:1014C000092E0394000C11F4882352F0BB0F40F452
:1014D000BF2B11F460FF04C06F5F7F4F8F4F9F4F92
:1014E000089557FD9058440F551F59F05F3F71F014
:1014F0004795880F97FB991F61F09F3F79F087957B
:101500000895121613061406551FF2CF4695F1DF03
:1015100008C0161617061806991FF1CF8695710593
:10152000610508940895E894BB2766277727CB01C7
:1015300097F908950BD0C4CFB5DF28F0BADF18F0C3
:10154000952309F0A6CFABCF1124EECFCADFA0F3CD
:10155000959FD1F3950F50E0551F629FF001729F48
:10156000BB27F00DB11D639FAA27F00DB11DAA1F67
:10157000649F6627B00DA11D661F829F2227B00DB4
:10158000A11D621F739FB00DA11D621F839FA00D3F
:10159000611D221F749F3327A00D611D231F849F8F
:1015A000600D211D822F762F6A2F11249F575040E6
:1015B0008AF0E1F088234AF0EE0FFF1FBB1F661F81
:1015C000771F881F91505040A9F79E3F510570F03A
:1015D00060CFAACF5F3FECF3983EDCF3869577951A
:1015E0006795B795F795E7959F5FC1F7FE2B880F35
:1015F000911D9695879597F9089597FB072E16F4F8
:10160000009406D077FD08D02DD007FC05D03EF41D
:10161000909581959F4F0895709561957F4F08959E
:10162000A1E21A2EAA1BBB1BFD010DC0AA1FBB1FE6
:10163000EE1FFF1FA217B307E407F50720F0A21B58
:10164000B30BE40BF50B661F771F881F991F1A94C5
:1016500069F760957095809590959B01AC01BD01EF
:10166000CF010895AA1BBB1B51E107C0AA1FBB1FD6
:10167000A617B70710F0A61BB70B881F991F5A951E
:10168000A9F780959095BC01CD0108950F931F9304
:10169000CF93DF93CDB7DEB72E970FB6F894DEBFAA
:1016A0000FBECDBF0D891E8986E08C831A83098306
:1016B0008FEF9FE79E838D83AE01475E5F4F6F89FB
:1016C000788DCE01019610D0EF81F885E00FF11FE3
:1016D00010822E960FB6F894DEBF0FBECDBFDF91FD
:1016E000CF911F910F9108952F923F924F925F9249
:1016F0006F927F928F929F92AF92BF92CF92DF9222
:10170000EF92FF920F931F93CF93DF93CDB7DEB786
:101710002B970FB6F894DEBF0FBECDBF6C017B01D7
:101720008A01FC0117821682838181FFBFC1CE012D
:1017300001963C01F6019381F70193FD859193FF9A
:1017400081917F01882309F4ADC1853239F493FD7D
:10175000859193FF81917F01853221F4B60190E05C
:10176000D6D1E8CF912C212C312CFFE1F315D8F004
:101770008B3279F038F4803279F08332A1F4232D62
:1017800020611DC08D3261F0803369F4232D21600A
:1017900016C0832D8260382EE32DE4603E2E2AC0D1
:1017A000F32DF8601DC037FC2DC020ED280F2A3026
:1017B00040F08E32B9F436FC75C1232D2064322EF0
:1017C00019C036FE06C08AE0989E200D1124922E84
:1017D00011C0EAE02E9E200D1124222EF32DF0627E
:1017E0003F2E08C08C3621F4832D8068382E02C02D
:1017F000883641F4F70193FD859193FF81917F0134
:101800008111B3CF982F9F7D9554933028F40C5FAE
:101810001F4F9FE399830DC0833631F0833771F0FA
:10182000833509F055C020C0F801808189830E5F9F
:101830001F4F88248394912C530112C02801F2E099
:101840004F0E511CF801A080B18036FE03C0692DF7
:1018500070E002C06FEF7FEFC5014ED14C018201F5
:10186000F32DFF773F2E15C0280122E0420E511CB8
:10187000F801A080B18036FE03C0692D70E002C07F
:101880006FEF7FEFC5012DD14C01F32DF0683F2E96
:10189000820133FC19C0822D90E088169906A0F4CD
:1018A000B60180E290E033D12A94F5CFF50137FC00
:1018B000859137FE81915F01B60190E028D121101A
:1018C0002A9421E0821A91088114910479F7E1C0E9
:1018D000843611F0893639F5F80137FE07C060818A
:1018E0007181828193810C5F1F4F08C0608171817B
:1018F000072E000C880B990B0E5F1F4FF32DFF7600
:101900003F2E97FF09C090958095709561957F4F08
:101910008F4F9F4FF0683F2E2AE030E0A30133D174
:10192000882E861844C0853731F4232D2F7EB22EA1
:101930002AE030E025C0932D997FB92E8F36C1F073
:1019400018F4883579F0AEC0803719F0883721F067
:10195000A9C0E92FE061BE2EB4FE0DC0FB2DF460DE
:10196000BF2E09C034FE0AC0292F2660B22E06C041
:1019700028E030E005C020E130E002C020E132E0A4
:10198000F801B7FE07C060817181828193810C5F8D
:101990001F4F06C06081718180E090E00E5F1F4F95
:1019A000A301F1D0882E8618FB2DFF773F2E36FE3F
:1019B0000DC0232D2E7FA22E891458F434FE0BC0A7
:1019C00032FC09C0832D8E7EA82E05C0B82CA32C16
:1019D00003C0B82C01C0B92CA4FE0FC0FE01E80D55
:1019E000F11D8081803321F49A2D997EA92E09C0A2
:1019F000A2FE06C0B394B39404C08A2D867809F081
:101A0000B394A3FC10C0A0FE06C0B21480F4280C4E
:101A1000922C9B180DC0B21458F4B60180E290E0ED
:101A200076D0B394F8CFB21418F42B1802C0982CC7
:101A3000212CA4FE0FC0B60180E390E068D0A2FE86
:101A400016C0A1FC03C088E790E002C088E590E0E2
:101A5000B6010CC08A2D867851F0A1FE02C08BE23F
:101A600001C080E2A7FC8DE2B60190E050D089145D
:101A700030F4B60180E390E04AD09A94F8CF8A948B
:101A8000F301E80DF11D8081B60190E040D0811096
:101A9000F6CF222009F44ECEB60180E290E037D096
:101AA0002A94F7CFF6018681978102C08FEF9FEFCE
:101AB0002B960FB6F894DEBF0FBECDBFDF91CF914E
:101AC0001F910F91FF90EF90DF90CF90BF90AF905C
:101AD0009F908F907F906F905F904F903F902F904E
:101AE0000895FC010590615070400110D8F7809571
:101AF00090958E0F9F1F0895FC01615070400190DA
:101B00000110D8F7809590958E0F9F1F08950F9321
:101B10001F93CF93DF93FB01238121FD03C08FEF40
:101B20009FEF2CC022FF16C046815781248135814A
:101B30004217530744F4A081B1819D012F5F3F4FAD
:101B4000318320838C93268137812F5F3F4F3783EA
:101B5000268314C08B01EC01FB010084F185E02D8C
:101B60000995892BE1F6D80116968D919C911797CE
:101B7000019617969C938E931697CE01DF91CF9185
:101B80001F910F910895FA01AA27283051F12031B1
:101B900081F1E8946F936E7F6E5F7F4F8F4F9F4F01
:101BA000AF4FB1E03ED0B4E03CD0670F781F891F43
:101BB0009A1FA11D680F791F8A1F911DA11D6A0F11
:101BC000711D811D911DA11D20D009F468943F91C4
:101BD0002AE0269F11243019305D3193DEF6CF01C3
:101BE0000895462F4770405D4193B3E00FD0C9F789
:101BF000F6CF462F4F70405D4A3318F0495D31FDF6
:101C00004052419302D0A9F7EACFB4E0A695979548
:101C1000879577956795BA95C9F70097610571051E
:101C200008959B01AC010A2E069457954795379568
:101C30002795BA95C9F7620F731F841F951FA01DC2
:061C40000895F894FFCFA7
:101C46005102D002620356055E06B5007901C10154
:101C5600F1012102AD00010004005A000500040054
:101C66000100460000000002000000006D080000B0
:101C7600000001003F065B4F666D7D277F6F806D1C
:101C8600793879397800555C5E7900003107380E6D
:101C96000108090054646973203A202564636D0ABB
:041CA60000257300A2
:00000001FF
