S01A000030395F57415348494E475F4D414348494E452E73726563DD
S113000045C0000062C0000060C000005EC0000087
S11300105CC000000C94F10B58C0000056C00000F6
S113002054C0000052C0000050C000004EC0000088
S11300304CC000004AC0000048C0000046C0000098
S11300400C94CB0942C000000C94CB0A3EC00000C3
S11300503CC000003AC0000038C0000036C00000B8
S113006034C0000032C0000030C000002EC00000C8
S11300702CC000002AC000000C945D0B26C00000B8
S113008024C0000022C0000020C0000011241FBEB4
S1130090CFEFD0E1DEBFCDBF11E0A0E0B1E0E2EBF5
S11300A0F2E200E00BBF02C007900D92AC37B1073B
S11300B0D9F728E0ACE7B1E001C01D92A432B20741
S11300C0E1F70E94470A0C9457119ACF81B38F70BD
S11300D081BB089520B3422F50E021E030E002C0FC
S11300E0220F331F6A95E2F72423352321153105A6
S11300F0B9F0FC01E458FE4F4081411111C02FEFCB
S11301003DEE42E0215030404040E1F700C00000A5
S1130110FC01E458FE4F21E0208380E090E0089544
S1130120FC01E458FE4F4081413091F4232B99F4B3
S1130130FC01E458FE4F10828FEF9DEE22E08150C7
S113014090402040E1F700C0000081E090E0089575
S113015080E090E0089580E090E008951BBA8AE082
S113016090E0909319018093180108951BBA0895A3
S11301708FEF84BB87B3806F87BB15BA0895CF9385
S1130180DF93CDB7DEB72B970FB6F894DEBF0FBE63
S1130190CDBF8BE0E4E3F1E0DE01119601900D9216
S11301A08A95E1F7809184019091850181309105D0
S11301B021F11CF4892B41F084C082309105F1F1C6
S11301C0039709F45EC07DC08FE788BB60918A0104
S11301D070918B0180918C0190918D012AE030E027
S11301E040E050E00E94330EE1E0F0E0EC0FFD1F30
S11301F0E60FF71F808185BB64C08FEB88BB6091DD
S11302008A0170918B0180918C0190918D012AE07B
S113021030E040E050E00E94330ECA01B90126E00C
S113022030E040E050E00E94330EE1E0F0E0EC0FFB
S1130230FD1FE60FF71F808185BB43C08FED88BB90
S113024060918A0170918B0180918C0190918D0154
S11302502CE330E040E050E00E94330ECA01B901C3
S11302602AE030E040E050E00E94330EE1E0F0E0AC
S1130270EC0FFD1FE60FF71F90818B85892B85BB43
S113028020C08FEE88BB60918A0170918B018091B0
S11302908C0190918D0128E532E040E050E00E940D
S11302A0330ECA01B90126E030E040E050E00E947C
S11302B0330EE1E0F0E0EC0FFD1FE60FF71F808145
S11302C085BB80918401909185010196837090781B
S11302D0992324F401978C6F9F6F01969093850165
S11302E0809384012B960FB6F894DEBF0FBECDBF6A
S11302F0DF91CF910895CF93DF931092190110925B
S1130300180187E08BBB8EE190E0A0E0B0E0809321
S11303108A0190938B01A0938C01B0938D01C1E06D
S1130320D0E066C066E070E082E090E0D3DE892B26
S113033099F080918A0190918B01A0918C01B091E8
S11303408D010597A109B10980938A0190938B01CE
S1130350A0938C01B0938D0167E070E083E090E09E
S1130360B9DE892B99F080918A0190918B01A0913B
S11303708C01B0918D010596A11DB11D80938A0158
S113038090938B01A0938C01B0938D0165E070E094
S113039081E090E09FDE892B81F010928A01109217
S11303A08B0110928C0110928D0181E090E090936A
S11303B01D0180931C01C0E0D0E080919A019091CE
S11303C09B01A0919C01B0919D010297A105B105EB
S11303D048F010929A0110929B0110929C01109285
S11303E09D01CDDE80911C0190911D01059719F0AE
S11303F0209709F097CFDF91CF910895CF93DF93A2
S113040083E08BBB82E090E0A0E0B0E080938A01BF
S113041090938B01A0938C01B0938D01C1E0D0E047
S113042079C066E070E082E090E054DE892B99F0B8
S113043080918A0190918B01A0918C01B0918D01E2
S11304400197A109B10980938A0190938B01A0932C
S11304508C01B0938D0167E070E083E090E03ADEB8
S1130460892B99F080918A0190918B01A0918C0144
S1130470B0918D010196A11DB11D80938A019093C5
S11304808B01A0938C01B0938D0165E070E081E055
S113049090E020DE892B49F180918A0190918B01B3
S11304A09C01220F331F880F991F880F991F880FF3
S11304B0991F820F931F20911A0130911B01820F03
S11304C0931F90931B0180931A0110928A0110923A
S11304D08B0110928C0110928D0182E090E0909338
S11304E01D0180931C01C0E0D0E080919A0190919D
S11304F09B01A0919C01B0919D010297A105B105BA
S113050048F010929A0110929B0110929C01109253
S11305109D0135DE209709F084CFDF91CF910895B6
S1130520CF93DF9381E08BBB83E090E0A0E0B0E069
S113053080938A0190938B01A0938C01B0938D01D9
S1130540C1E0D0E098C066E070E082E090E0C2DDF7
S1130550892B99F080918A0190918B01A0918C0153
S1130560B0918D010197A109B10980938A019093FB
S11305708B01A0938C01B0938D0167E070E083E060
S113058090E0A8DD892B99F080918A0190918B01EC
S1130590A0918C01B0918D010196A11DB11D809394
S11305A08A0190938B01A0938C01B0938D0165E037
S11305B070E081E090E08EDD892B09F447C08091E2
S11305C08A0190918B01A0918C01B0918D018130B1
S11305D09105A105B10539F48BE790E09093890169
S11305E08093880122C082309105A105B10539F4B8
S11305F080EA90E0909389018093880116C083304B
S11306009105A105B10539F48DEC90E09093890131
S1130610809388010AC00497A105B10531F48AEFDB
S113062090E090938901809388011BBA83E090E065
S113063090931D0180931C0110928A0110928B01EA
S113064010928C0110928D01C0E0D0E080919A014B
S113065090919B01A0919C01B0919D010297A105ED
S1130660B10548F010929A0110929B0110929C01DE
S113067010929D0184DD209709F065CFDF91CF9121
S113068008950F931F93CF93DF93EC018B014AC01E
S1130690109283001092820064E070E080E090E0A9
S11306A019DD892B51F081E090E09983888383E000
S11306B090E090931D0180931C0167E070E083E05B
S11306C090E008DD892BB1F081E090E09983888384
S11306D0109283001092820084E090E090931D01B8
S11306E080931C0110928A0110928B0110928C014C
S11306F010928D0180919A0190919B01A0919C018F
S1130700B0919D010297A105B10548F010929A019C
S113071010929B0110929C0110929D0130DDF80112
S113072080818BBB88819981892B09F4B1CFDF91BA
S1130730CF911F910F910895EF92FF920F931F9302
S1130740CF93DF93CDB7DEB7A7970FB6F894DEBF8C
S11307500FBECDBF9C0197E2EFE3F1E0DE011196FD
S113076001900D929A95E1F7D9018D919C91843075
S1130770910509F443C08530910509F449C08630D8
S1130780910509F451C08730910509F459C08830A6
S1130790910509F461C00997E1F4DB01ED91FC9145
S11307A0CF01019629E030E0B9010E94200E7C01BE
S11307B00196B9010E94200E8C010196B9010E9494
S11307C0200E4E96025E1F4FBEE1EB0EF11C7E968C
S11307D04EC0DB01ED91FC91CF0101962DE030E09C
S11307E0B9010E94200E7C010196B9010E94200EDD
S11307F08C010196B9010E94200E39C0E6E0F0E0B8
S1130800EE24E394F12C0DE010E089E090E02FC099
S1130810EEE0F0E00F2EFFE0EF2EF12CF02D00E1E2
S113082010E081E190E023C0E2E1F0E00F2EF3E17B
S1130830EF2EF12CF02D04E110E085E190E017C0DB
S1130840E6E1F0E00F2EF7E1EF2EF12CF02D08E1B8
S113085010E089E190E00BC0EAE1F0E00F2EFBE14B
S1130860EF2EF12CF02D0CE110E08DE190E02091C1
S113087082013091830121303105B1F01CF4232B26
S113088041F032C022303105D1F02330310511F16D
S11308902BC02FE728BBE1E0F0E0EC0FFD1FE80FD1
S11308A0F91F808185BB20C08FEB88BBE1E0F0E0BD
S11308B0EC0FFD1FE00FF11F808185BB15C08FED8C
S11308C088BBE1E0F0E0EC0FFD1FEE0DFF1D808121
S11308D085BB0AC08FEE88BB81E090E08C0F9D1F22
S11308E0E80FF91F808185BB80918201909183017B
S11308F0019683709078992324F401978C6F9F6FED
S113090001969093830180938201A7960FB6F89481
S1130910DEBF0FBECDBFDF91CF911F910F91FF902E
S1130920EF900895CF93DF9300D0CDB7DEB78FEF6C
S11309308ABB1EDCCBDB1A82198264E070E080E0A3
S113094090E0C8DB892B81F080918601909187012A
S1130950019751F485E090E0909319018093180178
S113096010921F0110921E01E0911E01F0911F01CF
S1130970EE0FFF1FE45FFE4F0190F081E02D09951B
S1130980B1D78091AA019091AB01CA9774F080917C
S1130990AA019091AB01843492403CF481E090E050
S11309A0909387018093860104C01092870110926E
S11309B0860180919A0190919B01A0919C01B09134
S11309C09D010297A105B10570F010929A01109251
S11309D09B0110929C0110929D01BE016F5F7F4F9D
S11309E088E191E0A9DE80919E0190919F01A09100
S11309F0A001B091A10180399140A105B10508F48D
S1130A009CCF10929E0110929F011092A00110920F
S1130A10A10189819A8101966DE070E00E94200E07
S1130A209A8389838ACF81E090E0A0E0B0E080934C
S1130A308A0190938B01A0938C01B0938D014BC0DC
S1130A4086E090E0909319018093180181E090E092
S1130A5090931F0180931E01089567E070E083E086
S1130A6090E038DB892B39F084E090E090931F010B
S1130A7080931E01089565E070E081E090E02ADB38
S1130A80892B21F010921D0110921C0180919A0172
S1130A9090919B01A0919C01B0919D010297A105A9
S1130AA0B10568F010929A0110929B0110929C017A
S1130AB010929D016AE070E088E191E03DDEE091F2
S1130AC01C01F0911D01EE0FFF1FE050FF4F01903C
S1130AD0F081E02D099564E070E080E090E0FADABE
S1130AE0892B09F4BACFACCF82E090E0A0E0B0E06B
S1130AF080938A0190938B01A0938C01B0938D0114
S1130B0064E070E080E090E0E5DA892B69F087E04A
S1130B1090E0909319018093180182E090E0909303
S1130B201F0180931E01089567E070E083E090E068
S1130B30D1DA892B39F084E090E090931F018093FF
S1130B401E01089580919A0190919B01A0919C01AE
S1130B50B0919D010297A105B10590F210929A01FE
S1130B6010929B0110929C0110929D016AE070E02A
S1130B7088E191E0E1DDC4CF83E090E0A0E0B0E063
S1130B8080938A0190938B01A0938C01B0938D0183
S1130B9064E070E080E090E09DDA892B69F088E001
S1130BA090E0909319018093180183E090E0909372
S1130BB01F0180931E01089567E070E083E090E0D8
S1130BC089DA892B39F084E090E090931F018093B7
S1130BD01E01089580919A0190919B01A0919C011E
S1130BE0B0919D010297A105B10590F210929A016E
S1130BF010929B0110929C0110929D016AE070E09A
S1130C0088E191E099DDC4CF84E090E0A0E0B0E019
S1130C1080938A0190938B01A0938C01B0938D01F2
S1130C2064E070E080E090E055DA892B59F085E0CB
S1130C3090E0909319018093180110921F01109273
S1130C401E01089567E070E083E090E043DA892BA9
S1130C5039F084E090E090931F0180931E01089581
S1130C6080919A0190919B01A0919C01B0919D016A
S1130C700297A105B105A0F210929A0110929B016E
S1130C8010929C0110929D016AE070E088E191E06D
S1130C9053DDC6CF0F931F93CF93DF9300D0CDB70F
S1130CA0DEB789E090E090931901809318011A82CD
S1130CB0198201E010E036C0109283001092820085
S1130CC080919E0190919F01A091A001B091A101FA
S1130CD088389341A105B10510F000E010E080913F
S1130CE0920190919301A0919401B09195018C325D
S1130CF09140A105B10580F01092920110929301E8
S1130D00109294011092950189819A81019669E06B
S1130D1070E096D79A838983BE016F5F7F4F88E125
S1130D2091E00ADD0115110539F60F900F90DF915E
S1130D30CF911F910F910895CF93DF931BBA84E055
S1130D4090E09093190180931801C1E0D0E07BC03A
S1130D5064E070E080E090E0BDD9892BA9F465E0FF
S1130D6070E081E090E0B6D9892B71F466E070E020
S1130D7082E090E0AFD9892B39F467E070E083E03A
S1130D8090E0A8D9892B91F084E090E090931F0122
S1130D9080931E0181E0CD2B09F080E0C82FD0E0C4
S1130DA085E090E090931D0180931C0180919A014D
S1130DB090919B01A0919C01B0919D010297A10586
S1130DC0B10568F010929A0110929B0110929C0157
S1130DD010929D016AE070E088E191E0ADDC8091C1
S1130DE09E0190919F01A091A001B091A101853F26
S1130DF09140A105B10518F485E58BBB24C0809111
S1130E009E0190919F01A091A001B091A101853F05
S1130E109140A105B105B8F08AEA8BBB80919E018F
S1130E2090919F01A091A001B091A101883E9340AF
S1130E30A105B10540F010929E0110929F011092FD
S1130E40A0011092A101209709F082CFDF91CF91E8
S1130E500895CF92DF92EF92FF920F931F93CF9357
S1130E60DF93CDB7DEB727970FB6F894DEBF0FBE7A
S1130E70CDBF9C0197E0E6E6F1E0DE01119601901A
S1130E800D929A95E1F7FB0180819181892B79F08C
S1130E90F901808191810097E9F08130910549F150
S1130EA08230910591F1039709F083C03CC0F901A8
S1130EB0808191818330910509F444C08230910589
S1130EC009F44FC08130910509F457C0892B09F406
S1130ED062C06FC040E050E004E010E00F2EF5E087
S1130EE0EF2EF12CF02D0F2EF3E0CF2ED12CF02D80
S1130EF060C042E050E005E010E06894EE24E2F8BF
S1130F00F12CCC24C394D12C54C045E050E006E02D
S1130F1010E00F2EF6E0EF2EF12CF02D6894CC2487
S1130F20C2F8D12C46C044E050E006E010E00F2E99
S1130F30F6E0EF2EF12CF02D0F2EF5E0CF2ED12C74
S1130F40F02D37C040E050E004E010E00F2EF5E053
S1130F50EF2EF12CF02D0F2EF3E0CF2ED12CF02D0F
S1130F6028C042E050E005E010E06894EE24E2F886
S1130F70F12CCC24C394D12C1CC045E050E006E0F5
S1130F8010E00F2EF6E0EF2EF12CF02D6894CC2417
S1130F90C2F8D12C0EC044E050E006E010E00F2E61
S1130FA0F6E0EF2EF12CF02D0F2EF5E0CF2ED12C04
S1130FB0F02D809180019091810181309105A9F0FB
S1130FC01CF4892B39F031C082309105C9F00397A4
S1130FD011F12BC08FE788BBE1E0F0E0EC0FFD1FBF
S1130FE0EC0DFD1D808185BB20C08FEB88BBE1E04B
S1130FF0F0E0EC0FFD1FEE0DFF1D808185BB15C0D9
S11310008FED88BBE1E0F0E0EC0FFD1FE00FF11F76
S1131010808185BB0AC08FEE88BBE1E0F0E0EC0F75
S1131020FD1FE40FF51F808185BB809180019091A5
S11310308101019683709078992324F401978C6F31
S11310409F6F0196909381018093800127960FB63C
S1131050F894DEBF0FBECDBFDF91CF911F910F91EA
S1131060FF90EF90DF90CF9008950F931F93CF934D
S1131070DF93CDB7DEB728970FB6F894DEBF0FBE67
S1131080CDBF81E090E09A8389831E821D821886F9
S11310901F82109219011092180180911A019091E7
S11310A01B01092E000CAA0BBB0B80938A019093A1
S11310B08B01A0938C01B0938D0103C1BE016B5FC2
S11310C07F4F88E891E017D280919E0190919F0113
S11310D0A091A001B091A101883E9340A105B10562
S11310E0D8F010929E0110929F011092A0011092CC
S11310F0A10180918A0190918B01A0918C01B09102
S11311008D010197A109B10980938A0190938B0104
S1131110A0938C01B0938D0180918E0190918F01E9
S1131120A0919001B09191018C329140A105B1053B
S1131130A8F010928E0110928F01109290011092DB
S113114091018F819885019683709078992324F476
S113115001978C6F9F6F019698878F83809192017E
S113116090919301A0919401B0919501883B9B408B
S1131170A105B105B0F01092920110929301109262
S113118094011092950181E090E020911601309134
S11311901701232B11F080E090E0909317018093C6
S11311A0160140918A0150918B0160918C017091DC
S11311B08D0180911A0190911B01092E000CAA0B3C
S11311C0BB0B841B950BA60BB70B8F319105A105A7
S11311D0B10528F48FEF90E09C838B833CC08C0195
S11311E09D010F511109210931090D311105210505
S11311F0310528F48EE790E09C838B832CC08C33DC
S11312009105A105B10511F445DD25C0CD97A105D2
S1131210B10550F04F3151056105710528F08CE39B
S113122090E09C838B8317C04E3151056105710595
S113123011F430DD10C04E3151056105710528F4FB
S113124088E190E09C838B8306C0452B462B472B7B
S113125011F41C821B8280919A0190919B01A091B0
S11312609C01B0919D010297A105B105D0F01092A7
S11312709A0110929B0110929C0110929D01CE0143
S113128003965FD08091160190911701892B19F074
S11312900E94BF0006C0BE016B5F7F4FCE01079660
S11312A0D8DD64E070E080E090E00E946A00892B61
S11312B041F01A821982BE016D5F7F4FCE01019603
S11312C0E0D980918A0190918B01A0918C01B09119
S11312D08D01892B8A2B8B2B29F089819A81019787
S11312E009F4ECCE109283001092820084E090E026
S11312F090931D0180931C0110928A0110928B011E
S113130010928C0110928D0128960FB6F894DEBFCE
S11313100FBECDBFDF91CF911F910F91089520E0B3
S113132030E00AC0821793070CF41BBA4AE64A95C8
S1131330F1F700C02F5F3F4F2F3F310599F394F32E
S113134008952FEF2ABBFC0180818BBB8091220181
S113135090912301E4DF20912201309123018091B7
S1131360200190912101820F931F90932301809378
S113137022018F3F910531F42FEF3FEF309321018C
S113138020932001892B31F481E090E09093210196
S11313908093200108951F920F920FB60F9211248B
S11313A08F939F93AF93BF9386E082BF80919E01FA
S11313B090919F01A091A001B091A1010196A11D5E
S11313C0B11D80939E0190939F01A093A001B093BF
S11313D0A10180919A0190919B01A0919C01B091EF
S11313E09D010196A11DB11D80939A0190939B01CB
S11313F0A0939C01B0939D018091960190919701D7
S1131400A0919801B09199010196A11DB11D8093FD
S1131410960190939701A0939801B09399018091BC
S1131420920190919301A0919401B091950101963C
S1131430A11DB11D8093920190939301A0939401F7
S1131440B093950180918E0190918F01A0919001AC
S1131450B09191010196A11DB11D80938E019093CD
S11314608F01A0939001B0939101BF91AF919F918F
S11314708F910F900FBE0F901F90189586E082BF3A
S113148083B7846083BF87B7816087BF0895F6DF21
S113149000D192D102D20E9466000CD023D084E203
S11314A091E090932108809320088FEF8ABB789471
S11314B039DAFFCF82B1886282B9ABE8B0E08C91AF
S11314C081608C93EAE8F0E08081886080838C916D
S11314D088608C9380818360808310928300109253
S11314E082000895E2E6F0E080818F73808380813A
S11314F0806480830895FC018081918190938300AE
S1131500809382008091960190919701A091980117
S1131510B091990180319742A105B10538F1E2E615
S1131520F0E080818F73808381E090E0209132012C
S113153030913301232B11F080E090E0909333013C
S113154080933201FB012081318181E090E0232BE3
S113155011F080E090E0FB0191838083109296016A
S11315601092970110929801109299018091320182
S1131570909133018130910531F4E2E6F0E080810D
S1131580806480830895892B29F4E2E6F0E0808169
S11315908068808308951F920F920FB60F921124D2
S11315A00BB60F922F933F934F935F936F937F9359
S11315B08F939F93AF93BF93EF93FF93CF93DF9357
S11315C01F92CDB7DEB78CB1898389818D3019F034
S11315D089818A3061F52091A4013091A50180911F
S11315E0A2019091A30140E5429FF001439FF00DB9
S11315F01124E455FE4FE80FF91F10821092A30145
S11316001092A2018091A4019091A501019690935A
S1131610A5018093A4018091A4019091A5016AE0A1
S113162070E00ED39093A5018093A4011CC0609137
S1131630A4017091A5018091A2019091A3019C0144
S11316402F5F3F4F3093A3012093A201498150E5BE
S1131650569F9001579F300D112424553E4FF90198
S1131660E80FF91F40830F90DF91CF91FF91EF9125
S1131670BF91AF919F918F917F916F915F914F91A6
S11316803F912F910F900BBE0F900FBE0F901F90A4
S11316901895109290008FEC89B98BB182608BB948
S11316A0E5E9F0E08081866080838AB188698AB93F
S11316B008955D9BFECF8CB908951F920F920FB6CB
S11316C00F9211240BB60F922F933F934F935F9376
S11316D06F937F938F939F93AF93BF93EF93FF93F6
S11316E0CF93DF931F92CDB7DEB780919C0089839F
S11316F089818D3019F089818A3061F52091A801A2
S11317003091A9018091A6019091A70140E5429FE3
S1131710F001439FF00D1124E453FB4FE80FF91F30
S113172010821092A7011092A6018091A8019091B5
S1131730A90101969093A9018093A8018091A80121
S11317409091A9016AE070E07BD29093A901809303
S1131750A8011CC06091A8017091A9018091A60103
S11317609091A7019C012F5F3F4F3093A7012093D5
S1131770A601498150E5569F9001579F300D1124D1
S113178024533B4FF901E80FF91F40830F90DF9179
S1131790CF91FF91EF91BF91AF919F918F917F91E5
S11317A06F915F914F913F912F910F900BBE0F90CE
S11317B00FBE0F901F901895109298008FEC809395
S11317C09900EBE9F0E0808182608083EDE9F0E04C
S11317D0808186608083EAE9F0E080818869808383
S11317E008951F920F920FB60F9211240BB60F9209
S11317F02F933F934F935F936F937F938F939F9315
S1131800AF93BF93EF93FF930C9B03C01DBC1CBC11
S113181031C06CB57DB580E090E021D120E034E2A8
S113182044E759E4AAD120E030E040E854E4A5D1EB
S113183020E034E244E75BE479D0E0D07093AB017C
S11318406093AA018091AA019091AB016AE370E0D0
S1131850F7D17F936F938DE691E09F938F938CEEF6
S113186097E09F938F9348D20F900F900F900F9013
S11318700F900F90FF91EF91BF91AF919F918F9136
S11318807F916F915F914F913F912F910F900BBE7C
S11318900F900FBE0F901F901895E4E6F0E0808142
S11318A08061808382B18F7E82B98AB781608ABF6A
S11318B08EB585608EBD89B7806189BF0895E5E6E0
S11318C0F0E080818F7E808385E08A95F1F70000C7
S11318D080818061808380E58A95F1F780818F7EA5
S11318E0808308958091960190919701A091980129
S11318F0B0919901883E9340A105B105B0F01092D2
S113190096011092970110929801109299018CEE11
S113191097E09F938F9389E791E09F938F93D9D119
S1131920CEDF0F900F900F900F9008950CD0EBC066
S1131930E3D040F0DAD030F021F45F3F19F0CCC0AE
S1131940511115C1CFC0F0D098F39923C9F3552391
S1131950B1F3951B550BBB27AA276217730784079E
S113196038F09F5F5F4F220F331F441FAA1FA9F354
S113197033D00E2E3AF0E0E830D091505040E69546
S1131980001CCAF729D0FE2F27D0660F771F881FA7
S1131990BB1F261737074807AB07B0E809F0BB0B96
S11319A0802DBF01FF2793585F4F2AF09E3F5105BA
S11319B068F092C0DCC05F3FECF3983EDCF38695A0
S11319C077956795B795F7959F5FC9F7880F911D30
S11319D09695879597F90895E1E0660F771F881F1C
S11319E0BB1F621773078407BA0720F0621B730BCF
S11319F0840BBA0BEE1F88F7E095089504D0689421
S1131A00B111B5C0089598D088F09F5790F0B92FC0
S1131A109927B751A0F0D1F0660F771F881F991F3F
S1131A201AF0BA95C9F712C0B13081F09FD0B1E075
S1131A3008959CC0672F782F8827B85F39F0B93F85
S1131A40CCF3869577956795B395D9F73EF4909541
S1131A508095709561957F4F8F4F9F4F0895E894BF
S1131A6009C097FB3EF490958095709561957F4FE2
S1131A708F4F9F4F9923A9F0F92F96E9BB27939590
S1131A80F695879577956795B795F111F8CFFAF4A0
S1131A90BB0F11F460FF1BC06F5F7F4F8F4F9F4FD1
S1131AA016C0882311F096E911C0772321F09EE82F
S1131AB0872F762F05C0662371F096E8862F70E095
S1131AC060E02AF09A95660F771F881FDAF7880F6F
S1131AD09695879597F9089597F99F6780E870E040
S1131AE060E008959FEF80EC089500240A94161690
S1131AF0170618060906089500240A9412161306F8
S1131B00140605060895092E0394000C11F4882385
S1131B1052F0BB0F40F4BF2B11F460FF04C06F5FA1
S1131B207F4F8F4F9F4F089557FD9058440F551F77
S1131B3059F05F3F71F04795880F97FB991F61F04B
S1131B409F3F79F087950895121613061406551FC2
S1131B50F2CF4695F1DF08C0161617061806991F2E
S1131B60F1CF86957105610508940895E894BB2723
S1131B7066277727CB0197F908950BD0C4CFB5DF3B
S1131B8028F0BADF18F0952309F0A6CFABCF1124C3
S1131B90EECFCADFA0F3959FD1F3950F50E0551F08
S1131BA0629FF001729FBB27F00DB11D639FAA27AE
S1131BB0F00DB11DAA1F649F6627B00DA11D661FFD
S1131BC0829F2227B00DA11D621F739FB00DA11D1E
S1131BD0621F839FA00D611D221F749F3327A00DD8
S1131BE0611D231F849F600D211D822F762F6A2F74
S1131BF011249F5750408AF0E1F088234AF0EE0FF9
S1131C00FF1FBB1F661F771F881F91505040A9F705
S1131C109E3F510570F060CFAACF5F3FECF3983E32
S1131C20DCF3869577956795B795F795E7959F5F6C
S1131C30C1F7FE2B880F911D9695879597F9089506
S1131C4097FB072E16F4009406D077FD08D02DD00C
S1131C5007FC05D03EF4909581959F4F08957095AB
S1131C6061957F4F0895A1E21A2EAA1BBB1BFD01AB
S1131C700DC0AA1FBB1FEE1FFF1FA217B307E40767
S1131C80F50720F0A21BB30BE40BF50B661F771FBF
S1131C90881F991F1A9469F760957095809590959F
S1131CA09B01AC01BD01CF010895AA1BBB1B51E1EF
S1131CB007C0AA1FBB1FA617B70710F0A61BB70BB8
S1131CC0881F991F5A95A9F780959095BC01CD015D
S1131CD00895CF93DF93CDB7DEB7AE014B5F5F4F6F
S1131CE0FA0161917191AF018091200890912108CE
S1131CF031D0DF91CF9108950F931F93CF93DF934A
S1131D00CDB7DEB72E970FB6F894DEBF0FBECDBFAA
S1131D100D891E8986E08C831A8309838FEF9FE7E0
S1131D209E838D83AE01475E5F4F6F89788DCE01B0
S1131D30019610D0EF81F885E00FF11F10822E96E6
S1131D400FB6F894DEBF0FBECDBFDF91CF911F91C8
S1131D500F9108952F923F924F925F926F927F92CC
S1131D608F929F92AF92BF92CF92DF92EF92FF92A7
S1131D700F931F93CF93DF93CDB7DEB72B970FB697
S1131D80F894DEBF0FBECDBF6C017B018A01FC015C
S1131D9017821682838181FFBFC1CE0101963C0167
S1131DA0F6019381F70193FD859193FF81917F0162
S1131DB0882309F4ADC1853239F493FD859193FFED
S1131DC081917F01853221F4B60190E0D6D1E8CF2C
S1131DD0912C212C312CFFE1F315D8F08B3279F0C2
S1131DE038F4803279F08332A1F4232D20611DC0B0
S1131DF08D3261F0803369F4232D216016C0832D68
S1131E008260382EE32DE4603E2E2AC0F32DF86064
S1131E101DC037FC2DC020ED280F2A3040F08E3233
S1131E20B9F436FC75C1232D2064322E19C036FE58
S1131E3006C08AE0989E200D1124922E11C0EAE07B
S1131E402E9E200D1124222EF32DF0623F2E08C069
S1131E508C3621F4832D8068382E02C0883641F4F4
S1131E60F70193FD859193FF81917F018111B3CF98
S1131E70982F9F7D9554933028F40C5F1F4F9FE358
S1131E8099830DC0833631F0833771F0833509F0BF
S1131E9055C020C0F801808189830E5F1F4F8824BC
S1131EA08394912C530112C02801F2E04F0E511C6F
S1131EB0F801A080B18036FE03C0692D70E002C035
S1131EC06FEF7FEFC5014ED14C018201F32DFF77F7
S1131ED03F2E15C0280122E0420E511CF801A080BB
S1131EE0B18036FE03C0692D70E002C06FEF7FEF52
S1131EF0C5012DD14C01F32DF0683F2E820133FC36
S1131F0019C0822D90E088169906A0F4B60180E2EB
S1131F1090E033D12A94F5CFF50137FC859137FE53
S1131F2081915F01B60190E028D121102A9421E02B
S1131F30821A91088114910479F7E1C0843611F072
S1131F40893639F5F80137FE07C0608171818281D5
S1131F5093810C5F1F4F08C060817181072E000CB4
S1131F60880B990B0E5F1F4FF32DFF763F2E97FFC3
S1131F7009C090958095709561957F4F8F4F9F4FC5
S1131F80F0683F2E2AE030E0A30133D1882E861872
S1131F9044C0853731F4232D2F7EB22E2AE030E061
S1131FA025C0932D997FB92E8F36C1F018F488354A
S1131FB079F0AEC0803719F0883721F0A9C0E92F35
S1131FC0E061BE2EB4FE0DC0FB2DF460BF2E09C02F
S1131FD034FE0AC0292F2660B22E06C028E030E065
S1131FE005C020E130E002C020E132E0F801B7FE94
S1131FF007C060817181828193810C5F1F4F06C08D
S11320006081718180E090E00E5F1F4FA301F1D0E9
S1132010882E8618FB2DFF773F2E36FE0DC0232D0C
S11320202E7FA22E891458F434FE0BC032FC09C052
S1132030832D8E7EA82E05C0B82CA32C03C0B82CEB
S113204001C0B92CA4FE0FC0FE01E80DF11D808172
S1132050803321F49A2D997EA92E09C0A2FE06C0D0
S1132060B394B39404C08A2D867809F0B394A3FC86
S113207010C0A0FE06C0B21480F4280C922C9B1849
S11320800DC0B21458F4B60180E290E076D0B39457
S1132090F8CFB21418F42B1802C0982C212CA4FEEB
S11320A00FC0B60180E390E068D0A2FE16C0A1FC88
S11320B003C088E790E002C088E590E0B6010CC058
S11320C08A2D867851F0A1FE02C08BE201C080E225
S11320D0A7FC8DE2B60190E050D0891430F4B6012B
S11320E080E390E04AD09A94F8CF8A94F301E80D03
S11320F0F11D8081B60190E040D08110F6CF2220FE
S113210009F44ECEB60180E290E037D02A94F7CF9E
S1132110F6018681978102C08FEF9FEF2B960FB651
S1132120F894DEBF0FBECDBFDF91CF911F910F9109
S1132130FF90EF90DF90CF90BF90AF909F908F90E3
S11321407F906F905F904F903F902F900895FC0187
S11321500590615070400110D8F7809590958E0FCE
S11321609F1F0895FC016150704001900110D8F741
S1132170809590958E0F9F1F08950F931F93CF9373
S1132180DF93FB01238121FD03C08FEF9FEF2CC060
S113219022FF16C046815781248135814217530797
S11321A044F4A081B1819D012F5F3F4F318320838F
S11321B08C93268137812F5F3F4F3783268314C04A
S11321C08B01EC01FB010084F185E02D0995892B3D
S11321D0E1F6D80116968D919C9117970196179662
S11321E09C938E931697CE01DF91CF911F910F91FF
S11321F00895FA01AA27283051F1203181F1E89499
S11322006F936E7F6E5F7F4F8F4F9F4FAF4FB1E0E5
S11322103ED0B4E03CD0670F781F891F9A1FA11DE0
S1132220680F791F8A1F911DA11D6A0F711D811DE1
S1132230911DA11D20D009F468943F912AE0269FA6
S113224011243019305D3193DEF6CF010895462F05
S11322504770405D4193B3E00FD0C9F7F6CF462FE6
S11322604F70405D4A3318F0495D31FD405241934F
S113227002D0A9F7EACFB4E0A6959795879577950C
S11322806795BA95C9F700976105710508959B0193
S1132290AC010A2E06945795479537952795BA951C
S11322A0C9F7620F731F841F951FA01D0895F8942A
S10522B0FFCF5A
S11322B27B01FE01900235089C06B60013057405E5
S11322C2BC050406AE0001000A005A000500040021
S11322D2010046000000000200000000590B00004B
S11322E2000001003F065B4F666D7D277F6F806DA6
S11322F2793879397800555C5E79000054396D7803
S113230255773E783F71776D78005E5066000073B2
S11323125079737750793107380E0108096469736B
S10F2322203A202564636D0A0025730036
S9030000FC
