S019000030375F4D595F50574D5F434F4E54524F4C2E73726563CC
S113000045C0000061C000005FC000005DC000008A
S11300105BC00000FFC3000057C0000055C00000D3
S113002053C0000051C000004FC000004DC000008C
S11300304BC0000049C0000047C0000045C000009C
S113004048C1000041C00000BFC200003DC0000024
S11300503BC0000039C0000037C0000035C00000BC
S113006033C0000031C000002FC000002DC00000CC
S11300702BC0000029C0000039C3000025C00000C7
S113008023C0000021C000001FC0000011241FBEB7
S1130090CFEFD0E1DEBFCDBF11E0A0E0B1E0E0E5FD
S11300A0F2E100E00BBF02C007900D92A033B1074C
S11300B0D9F727E0A0E3B1E001C01D92A63CB20746
S11300C0E1F74AD10C9426099BCF81B38F7081BB91
S11300D0089520B3422F50E021E030E002C0220F07
S11300E0331F6A95E2F72423352321153105B9F02E
S11300F0FC01E05DFE4F4081411111C02FEF3DEE48
S113010042E0215030404040E1F700C00000FC01D3
S1130110E05DFE4F21E0208380E090E00895FC0143
S1130120E05DFE4F4081413091F4232B99F4FC01B2
S1130130E05DFE4F10828FEF9DEE22E081509040F3
S11301402040E1F700C0000081E090E0089580E0E5
S113015090E0089580E090E008958FEF84BB87B32A
S1130160806F87BB15BA0895CF93DF93CDB7DEB701
S11301702B970FB6F894DEBF0FBECDBF8BE0E6E140
S1130180F1E0DE01119601900D928A95E1F78091DC
S11301903401909135018130910519F11CF4892BBA
S11301A041F07DC082309105D9F1039709F459C01B
S11301B076C08FE788BB60913601709137018091DA
S11301C03801909139012AE030E040E050E02DD52B
S11301D0E1E0F0E0EC0FFD1FE60FF71F808185BB27
S11301E05EC08FEB88BB60913601709137018091BE
S11301F03801909139012AE030E040E050E015D513
S1130200CA01B90126E030E040E050E00ED5E1E05B
S1130210F0E0EC0FFD1FE60FF71F808185BB3FC0A8
S11302208FED88BB60913601709137018091380160
S1130230909139012CE330E040E050E0F6D4CA015B
S1130240B9012AE030E040E050E0EFD4E1E0F0E032
S1130250EC0FFD1FE60FF71F90818B85892B85BB63
S11302601EC08FEE88BB609136017091370180917A
S113027038019091390128E532E040E050E0D5D4CE
S1130280CA01B9012AE030E040E050E0CED4E1E018
S1130290F0E0EC0FFD1FE60FF71F808185BB809116
S11302A0340190913501019683709078992324F458
S11302B001978C6F9F6F0196909335018093340161
S11302C02B960FB6F894DEBF0FBECDBFDF91CF9152
S11302D008951F920F920FB60F9211248F939F933C
S11302E0AF93BF9386E082BF80913E0190913F011E
S11302F0A0914001B09141010196A11DB11D8093CF
S11303003E0190933F01A0934001B093410180913D
S11303103A0190913B01A0913C01B0913D010196BD
S1130320A11DB11D80933A0190933B01A0933C0120
S1130330B0933D01BF91AF919F918F910F900FBEEC
S11303400F901F90189586E082BF83B7846083BFA7
S113035087B7816087BF0895F6DFB4D146D2B6D29D
S1130360FCDE80E091E09093C3078093C2078FEF97
S11303708ABB7894C2D0FFCF8FE790E0909383003C
S1130380809382008091360190913701A0913801C9
S1130390B0913901892B8A2B8B2B41F410924301A4
S11303A010924201109283001092820080913E01CB
S11303B090913F01A0914001B0914101883E93404A
S11303C0A105B105D8F010923E0110923F011092A0
S11303D04001109241018091360190913701A09122
S11303E03801B09139010197A109B109809336010F
S11303F090933701A0933801B09339010895109276
S1130400830010928200089558C064E070E080E098
S113041090E05FDE892B99F080913601909137014D
S1130420A0913801B09139010196A11DB11D8093AD
S1130430360190933701A0933801B093390165E0F8
S113044070E081E090E045DE892B99F080913601DF
S113045090913701A0913801B0913901CC96A11D3A
S1130460B11D8093360190933701A0933801B09366
S1130470390167E070E083E090E02BDE892B41F0E6
S113048010920F0110920E0110924301109242013A
S113049080913A0190913B01A0913C01B0913D01C2
S11304A00297A105B10548F010923A0110923B0160
S11304B010923C0110923D0157DE80910E01909103
S11304C00F01892B09F0A1CF089582B1806E82B902
S11304D0ABE8B0E08C9181608C93EAE8F0E0808135
S11304E0886080838C9188608C9380818360808312
S11304F010928300109282000895E7DDE6DFC0E0E9
S1130500D0E064E070E080E090E0E3DD892BC1F0AE
S113051081E0209709F080E090E0CD2B61F421E0A8
S113052030E0309343012093420130930F01209334
S11305300E01EC0105C01092430110924201EC013E
S113054066E070E082E090E0C4DD892B61F01092F7
S1130550360110923701109238011092390110922D
S113056043011092420167E070E083E090E0B1DD66
S1130570892B41F082E090E0909343018093420103
S1130580C0E0D0E080913A0190913B01A0913C0100
S1130590B0913D010297A105B10548F010923A01CE
S11305A010923B0110923C0110923D01DDDDE0917F
S11305B04201F0914301EE0FFF1FE05FFE4F0190F7
S11305C0F081E02D09959DCF1F920F920FB60F92E7
S11305D011240BB60F922F933F934F935F936F9316
S11305E07F938F939F93AF93BF93EF93FF93CF9397
S11305F0DF931F92CDB7DEB78CB1898389818D30AB
S113060019F089818A3061F52091460130914701C2
S1130610809144019091450140E5429FF001439F40
S1130620F00D1124E25BFE4FE80FF91F10821092C7
S11306304501109244018091460190914701019631
S11306409093470180934601809146019091470120
S11306506AE070E0D7D290934701809346011CC0B2
S11306606091460170914701809144019091450148
S11306709C012F5F3F4F30934501209344014981F2
S113068050E5569F9001579F300D1124225B3E4F39
S1130690F901E80FF91F40830F90DF91CF91FF918B
S11306A0EF91BF91AF919F918F917F916F915F91E6
S11306B04F913F912F910F900BBE0F900FBE0F9053
S11306C01F901895109290008FEC89B98BB18260BD
S11306D08BB9E5E9F0E08081866080838AB188691E
S11306E08AB908955D9BFECF8CB908951F920F922D
S11306F00FB60F9211240BB60F922F933F934F9383
S11307005F936F937F938F939F93AF93BF93EF9375
S1130710FF93CF93DF931F92CDB7DEB780919C00F8
S1130720898389818D3019F089818A3061F520911E
S11307304A0130914B01809148019091490140E573
S1130740429FF001439FF00D1124E259FB4FE80F43
S1130750F91F1082109249011092480180914A01B8
S113076090914B01019690934B0180934A018091A3
S11307704A0190914B016AE070E044D290934B019E
S113078080934A011CC060914A0170914B01809191
S11307904801909149019C012F5F3F4F30934901DB
S11307A020934801498150E5569F9001579F300D91
S11307B0112422593B4FF901E80FF91F40830F9090
S11307C0DF91CF91FF91EF91BF91AF919F918F9165
S11307D07F916F915F914F913F912F910F900BBE3D
S11307E00F900FBE0F901F901895109298008FECE9
S11307F080939900EBE9F0E0808182608083EDE9E9
S1130800F0E0808186608083EAE9F0E08081886995
S1130810808308951F920F920FB60F9211240BB686
S11308200F922F933F934F935F936F937F938F9385
S11308309F93AF93BF93EF93FF930C9B03C01DBC97
S11308401CBC31C06CB57DB580E090E0EAD020E0FE
S113085034E244E759E473D120E030E040E854E462
S11308606ED120E034E244E75BE442D0A9D0709337
S11308704D0160934C0180914C0190914D016AE3CC
S113088070E0C0D17F936F9381E291E09F938F9347
S11308908EE897E09F938F93FED10F900F900F9067
S11308A00F900F900F90FF91EF91BF91AF919F9197
S11308B08F917F916F915F914F913F912F910F9005
S11308C00BBE0F900FBE0F901F901895E4E6F0E05A
S11308D080818061808382B18F7E82B98AB7816092
S11308E08ABF8EB585608EBD89B7806189BF089542
S11308F00CD0EBC0E3D040F0DAD030F021F45F3F0D
S113090019F0CCC0511115C1CFC0F0D098F3992380
S1130910C9F35523B1F3951B550BBB27AA276217BF
S11309207307840738F09F5F5F4F220F331F441F04
S1130930AA1FA9F333D00E2E3AF0E0E830D091503C
S11309405040E695001CCAF729D0FE2F27D0660F29
S1130950771F881FBB1F261737074807AB07B0E868
S113096009F0BB0B802DBF01FF2793585F4F2AF07E
S11309709E3F510568F092C0DCC05F3FECF3983EA7
S1130980DCF3869577956795B795F7959F5FC9F7DB
S1130990880F911D9695879597F90895E1E0660F64
S11309A0771F881FBB1F621773078407BA0720F0DD
S11309B0621B730B840BBA0BEE1F88F7E095089546
S11309C004D06894B111B5C0089598D088F09F57A9
S11309D090F0B92F9927B751A0F0D1F0660F771F87
S11309E0881F991F1AF0BA95C9F712C0B13081F067
S11309F09FD0B1E008959CC0672F782F8827B85FF7
S1130A0039F0B93FCCF3869577956795B395D9F7C7
S1130A103EF490958095709561957F4F8F4F9F4FD1
S1130A200895E89409C097FB3EF4909580957095DD
S1130A3061957F4F8F4F9F4F9923A9F0F92F96E926
S1130A40BB279395F695879577956795B795F1119B
S1130A50F8CFFAF4BB0F11F460FF1BC06F5F7F4F38
S1130A608F4F9F4F16C0882311F096E911C077234A
S1130A7021F09EE8872F762F05C0662371F096E853
S1130A80862F70E060E02AF09A95660F771F881F22
S1130A90DAF7880F9695879597F9089597F99F67E0
S1130AA080E870E060E008959FEF80EC08950024F2
S1130AB00A941616170618060906089500240A94BF
S1130AC012161306140605060895092E0394000C45
S1130AD011F4882352F0BB0F40F4BF2B11F460FFD4
S1130AE004C06F5F7F4F8F4F9F4F089557FD9058FD
S1130AF0440F551F59F05F3F71F04795880F97FBDE
S1130B00991F61F09F3F79F0879508951216130697
S1130B101406551FF2CF4695F1DF08C016161706C6
S1130B201806991FF1CF86957105610508940895FB
S1130B30E894BB2766277727CB0197F908950BD054
S1130B40C4CFB5DF28F0BADF18F0952309F0A6CF9B
S1130B50ABCF1124EECFCADFA0F3959FD1F3950F4D
S1130B6050E0551F629FF001729FBB27F00DB11D2D
S1130B70639FAA27F00DB11DAA1F649F6627B00DBD
S1130B80A11D661F829F2227B00DA11D621F739FA6
S1130B90B00DA11D621F839FA00D611D221F749FB4
S1130BA03327A00D611D231F849F600D211D822FFB
S1130BB0762F6A2F11249F5750408AF0E1F0882342
S1130BC04AF0EE0FFF1FBB1F661F771F881F91504F
S1130BD05040A9F79E3F510570F060CFAACF5F3F08
S1130BE0ECF3983EDCF3869577956795B795F79582
S1130BF0E7959F5FC1F7FE2B880F911D969587950A
S1130C0097F9089597FB072E16F4009406D077FD04
S1130C1008D02DD007FC05D03EF4909581959F4FC8
S1130C200895709561957F4F0895A1E21A2EAA1B2D
S1130C30BB1BFD010DC0AA1FBB1FEE1FFF1FA21788
S1130C40B307E407F50720F0A21BB30BE40BF50B85
S1130C50661F771F881F991F1A9469F7609570950E
S1130C60809590959B01AC01BD01CF010895AA1B0D
S1130C70BB1B51E107C0AA1FBB1FA617B70710F083
S1130C80A61BB70B881F991F5A95A9F780959095B5
S1130C90BC01CD0108950F931F93CF93DF93CDB77C
S1130CA0DEB72E970FB6F894DEBF0FBECDBF0D8909
S1130CB01E8986E08C831A8309838FEF9FE79E83C6
S1130CC08D83AE01475E5F4F6F89788DCE010196AB
S1130CD010D0EF81F885E00FF11F10822E960FB629
S1130CE0F894DEBF0FBECDBFDF91CF911F910F915E
S1130CF008952F923F924F925F926F927F928F92BC
S1130D009F92AF92BF92CF92DF92EF92FF920F9396
S1130D101F93CF93DF93CDB7DEB72B970FB6F8941D
S1130D20DEBF0FBECDBF6C017B018A01FC011782BF
S1130D301682838181FFBFC1CE0101963C01F60179
S1130D409381F70193FD859193FF81917F0188231E
S1130D5009F4ADC1853239F493FD859193FF8191F6
S1130D607F01853221F4B60190E0D6D1E8CF912CF1
S1130D70212C312CFFE1F315D8F08B3279F038F4C3
S1130D80803279F08332A1F4232D20611DC08D328D
S1130D9061F0803369F4232D216016C0832D8260B5
S1130DA0382EE32DE4603E2E2AC0F32DF8601DC0DA
S1130DB037FC2DC020ED280F2A3040F08E32B9F4D4
S1130DC036FC75C1232D2064322E19C036FE06C0B0
S1130DD08AE0989E200D1124922E11C0EAE02E9EE6
S1130DE0200D1124222EF32DF0623F2E08C08C36E4
S1130DF021F4832D8068382E02C0883641F4F7012F
S1130E0093FD859193FF81917F018111B3CF982F39
S1130E109F7D9554933028F40C5F1F4F9FE3998373
S1130E200DC0833631F0833771F0833509F055C036
S1130E3020C0F801808189830E5F1F4F882483942A
S1130E40912C530112C02801F2E04F0E511CF801FD
S1130E50A080B18036FE03C0692D70E002C06FEF40
S1130E607FEFC5014ED14C018201F32DFF773F2E58
S1130E7015C0280122E0420E511CF801A080B18067
S1130E8036FE03C0692D70E002C06FEF7FEFC5012D
S1130E902DD14C01F32DF0683F2E820133FC19C093
S1130EA0822D90E088169906A0F4B60180E290E0C5
S1130EB033D12A94F5CFF50137FC859137FE819122
S1130EC05F01B60190E028D121102A9421E0821A12
S1130ED091088114910479F7E1C0843611F08936C0
S1130EE039F5F80137FE07C06081718182819381F1
S1130EF00C5F1F4F08C060817181072E000C880BA6
S1130F00990B0E5F1F4FF32DFF763F2E97FF09C0FD
S1130F1090958095709561957F4F8F4F9F4FF068A6
S1130F203F2E2AE030E0A30133D1882E861844C036
S1130F30853731F4232D2F7EB22E2AE030E025C0F0
S1130F40932D997FB92E8F36C1F018F4883579F036
S1130F50AEC0803719F0883721F0A9C0E92FE061CD
S1130F60BE2EB4FE0DC0FB2DF460BF2E09C034FEAE
S1130F700AC0292F2660B22E06C028E030E005C042
S1130F8020E130E002C020E132E0F801B7FE07C002
S1130F9060817181828193810C5F1F4F06C06081E3
S1130FA0718180E090E00E5F1F4FA301F1D0882E85
S1130FB08618FB2DFF773F2E36FE0DC0232D2E7F86
S1130FC0A22E891458F434FE0BC032FC09C0832DC0
S1130FD08E7EA82E05C0B82CA32C03C0B82C01C04B
S1130FE0B92CA4FE0FC0FE01E80DF11D80818033F1
S1130FF021F49A2D997EA92E09C0A2FE06C0B394AD
S1131000B39404C08A2D867809F0B394A3FC10C06D
S1131010A0FE06C0B21480F4280C922C9B180DC0BC
S1131020B21458F4B60180E290E076D0B394F8CFCD
S1131030B21418F42B1802C0982C212CA4FE0FC053
S1131040B60180E390E068D0A2FE16C0A1FC03C004
S113105088E790E002C088E590E0B6010CC08A2DD4
S1131060867851F0A1FE02C08BE201C080E2A7FCA9
S11310708DE2B60190E050D0891430F4B60180E3DB
S113108090E04AD09A94F8CF8A94F301E80DF11DC8
S11310908081B60190E040D08110F6CF222009F47F
S11310A04ECEB60180E290E037D02A94F7CFF60115
S11310B08681978102C08FEF9FEF2B960FB6F8942D
S11310C0DEBF0FBECDBFDF91CF911F910F91FF9077
S11310D0EF90DF90CF90BF90AF909F908F907F90D4
S11310E06F905F904F903F902F900895FC01059072
S11310F0615070400110D8F7809590958E0F9F1F16
S11311000895FC016150704001900110D8F780955A
S113111090958E0F9F1F08950F931F93CF93DF9386
S1131120FB01238121FD03C08FEF9FEF2CC022FF21
S113113016C046815781248135814217530744F4F0
S1131140A081B1819D012F5F3F4F318320838C9318
S1131150268137812F5F3F4F3783268314C08B014D
S1131160EC01FB010084F185E02D0995892BE1F662
S1131170D80116968D919C911797019617969C937A
S11311808E931697CE01DF91CF911F910F91089501
S1131190FA01AA27283051F1203181F1E8946F93A4
S11311A06E7F6E5F7F4F8F4F9F4FAF4FB1E03ED04A
S11311B0B4E03CD0670F781F891F9A1FA11D680FE8
S11311C0791F8A1F911DA11D6A0F711D811D911D1B
S11311D0A11D20D009F468943F912AE0269F112490
S11311E03019305D3193DEF6CF010895462F4770F4
S11311F0405D4193B3E00FD0C9F7F6CF462F4F704F
S1131200405D4A3318F0495D31FD4052419302D0AC
S1131210A9F7EACFB4E0A695979587957795679552
S1131220BA95C9F700976105710508959B01AC0152
S11312300A2E06945795479537952795BA95C9F779
S1131240620F731F841F951FA01D0895F894FFCF8C
S11312500000000200000000720300000000010012
S1131260FF01BC0104023F065B4F666D7D277F6F63
S113127080646973203A202564636D0A0025730035
S9030000FC
